{
  "_format": "hh-sol-artifact-1",
  "contractName": "GiftToken",
  "sourceName": "contracts/GiftToken.sol",
  "abi": [
    {
      "inputs": [],
      "stateMutability": "nonpayable",
      "type": "constructor"
    },
    {
      "anonymous": false,
      "inputs": [
        {
          "indexed": true,
          "internalType": "address",
          "name": "owner",
          "type": "address"
        },
        {
          "indexed": true,
          "internalType": "address",
          "name": "spender",
          "type": "address"
        },
        {
          "indexed": false,
          "internalType": "uint256",
          "name": "value",
          "type": "uint256"
        }
      ],
      "name": "Approval",
      "type": "event"
    },
    {
      "anonymous": false,
      "inputs": [
        {
          "indexed": true,
          "internalType": "address",
          "name": "from",
          "type": "address"
        },
        {
          "indexed": true,
          "internalType": "address",
          "name": "to",
          "type": "address"
        },
        {
          "indexed": false,
          "internalType": "uint256",
          "name": "value",
          "type": "uint256"
        }
      ],
      "name": "Transfer",
      "type": "event"
    },
    {
      "anonymous": false,
      "inputs": [
        {
          "indexed": true,
          "internalType": "address",
          "name": "from",
          "type": "address"
        },
        {
          "indexed": true,
          "internalType": "address",
          "name": "to",
          "type": "address"
        }
      ],
      "name": "TransferOwner",
      "type": "event"
    },
    {
      "inputs": [
        {
          "internalType": "address",
          "name": "owner",
          "type": "address"
        },
        {
          "internalType": "address",
          "name": "spender",
          "type": "address"
        }
      ],
      "name": "allowance",
      "outputs": [
        {
          "internalType": "uint256",
          "name": "",
          "type": "uint256"
        }
      ],
      "stateMutability": "view",
      "type": "function"
    },
    {
      "inputs": [
        {
          "internalType": "address",
          "name": "spender",
          "type": "address"
        },
        {
          "internalType": "uint256",
          "name": "amount",
          "type": "uint256"
        }
      ],
      "name": "approve",
      "outputs": [
        {
          "internalType": "bool",
          "name": "",
          "type": "bool"
        }
      ],
      "stateMutability": "nonpayable",
      "type": "function"
    },
    {
      "inputs": [
        {
          "internalType": "address",
          "name": "account",
          "type": "address"
        }
      ],
      "name": "balanceOf",
      "outputs": [
        {
          "internalType": "uint256",
          "name": "",
          "type": "uint256"
        }
      ],
      "stateMutability": "view",
      "type": "function"
    },
    {
      "inputs": [],
      "name": "decimals",
      "outputs": [
        {
          "internalType": "uint8",
          "name": "",
          "type": "uint8"
        }
      ],
      "stateMutability": "view",
      "type": "function"
    },
    {
      "inputs": [
        {
          "internalType": "address",
          "name": "spender",
          "type": "address"
        },
        {
          "internalType": "uint256",
          "name": "subtractedValue",
          "type": "uint256"
        }
      ],
      "name": "decreaseAllowance",
      "outputs": [
        {
          "internalType": "bool",
          "name": "",
          "type": "bool"
        }
      ],
      "stateMutability": "nonpayable",
      "type": "function"
    },
    {
      "inputs": [
        {
          "internalType": "address",
          "name": "spender",
          "type": "address"
        },
        {
          "internalType": "uint256",
          "name": "addedValue",
          "type": "uint256"
        }
      ],
      "name": "increaseAllowance",
      "outputs": [
        {
          "internalType": "bool",
          "name": "",
          "type": "bool"
        }
      ],
      "stateMutability": "nonpayable",
      "type": "function"
    },
    {
      "inputs": [
        {
          "internalType": "address",
          "name": "to",
          "type": "address"
        },
        {
          "internalType": "uint256",
          "name": "amount",
          "type": "uint256"
        }
      ],
      "name": "mint",
      "outputs": [],
      "stateMutability": "nonpayable",
      "type": "function"
    },
    {
      "inputs": [],
      "name": "name",
      "outputs": [
        {
          "internalType": "string",
          "name": "",
          "type": "string"
        }
      ],
      "stateMutability": "view",
      "type": "function"
    },
    {
      "inputs": [],
      "name": "owner",
      "outputs": [
        {
          "internalType": "address",
          "name": "",
          "type": "address"
        }
      ],
      "stateMutability": "view",
      "type": "function"
    },
    {
      "inputs": [],
      "name": "symbol",
      "outputs": [
        {
          "internalType": "string",
          "name": "",
          "type": "string"
        }
      ],
      "stateMutability": "view",
      "type": "function"
    },
    {
      "inputs": [],
      "name": "totalSupply",
      "outputs": [
        {
          "internalType": "uint256",
          "name": "",
          "type": "uint256"
        }
      ],
      "stateMutability": "view",
      "type": "function"
    },
    {
      "inputs": [
        {
          "internalType": "address",
          "name": "",
          "type": "address"
        },
        {
          "internalType": "uint256",
          "name": "",
          "type": "uint256"
        }
      ],
      "name": "transfer",
      "outputs": [
        {
          "internalType": "bool",
          "name": "",
          "type": "bool"
        }
      ],
      "stateMutability": "pure",
      "type": "function"
    },
    {
      "inputs": [
        {
          "internalType": "address",
          "name": "from",
          "type": "address"
        },
        {
          "internalType": "address",
          "name": "to",
          "type": "address"
        },
        {
          "internalType": "uint256",
          "name": "amount",
          "type": "uint256"
        }
      ],
      "name": "transferFrom",
      "outputs": [
        {
          "internalType": "bool",
          "name": "",
          "type": "bool"
        }
      ],
      "stateMutability": "nonpayable",
      "type": "function"
    },
    {
      "inputs": [
        {
          "internalType": "address",
          "name": "to",
          "type": "address"
        }
      ],
      "name": "transferOwner",
      "outputs": [
        {
          "internalType": "bool",
          "name": "",
          "type": "bool"
        }
      ],
      "stateMutability": "nonpayable",
      "type": "function"
    }
  ],
  "bytecode": "0x60806040523480156200001157600080fd5b506040518060400160405280600481526020017f47696674000000000000000000000000000000000000000000000000000000008152506040518060400160405280600381526020017f474654000000000000000000000000000000000000000000000000000000000081525081600390805190602001906200009692919062000298565b508060049080519060200190620000af92919062000298565b50505033600560006101000a81548173ffffffffffffffffffffffffffffffffffffffff021916908373ffffffffffffffffffffffffffffffffffffffff1602179055506200010f3369152d02c7e14af68000006200011560201b60201c565b620004f4565b600073ffffffffffffffffffffffffffffffffffffffff168273ffffffffffffffffffffffffffffffffffffffff16141562000188576040517f08c379a00000000000000000000000000000000000000000000000000000000081526004016200017f90620003a9565b60405180910390fd5b6200019c600083836200028e60201b60201c565b8060026000828254620001b0919062000404565b92505081905550806000808473ffffffffffffffffffffffffffffffffffffffff1673ffffffffffffffffffffffffffffffffffffffff168152602001908152602001600020600082825462000207919062000404565b925050819055508173ffffffffffffffffffffffffffffffffffffffff16600073ffffffffffffffffffffffffffffffffffffffff167fddf252ad1be2c89b69c2b068fc378daa952ba7f163c4a11628f55a4df523b3ef836040516200026e919062000472565b60405180910390a36200028a600083836200029360201b60201c565b5050565b505050565b505050565b828054620002a690620004be565b90600052602060002090601f016020900481019282620002ca576000855562000316565b82601f10620002e557805160ff191683800117855562000316565b8280016001018555821562000316579182015b8281111562000315578251825591602001919060010190620002f8565b5b50905062000325919062000329565b5090565b5b80821115620003445760008160009055506001016200032a565b5090565b600082825260208201905092915050565b7f45524332303a206d696e7420746f20746865207a65726f206164647265737300600082015250565b600062000391601f8362000348565b91506200039e8262000359565b602082019050919050565b60006020820190508181036000830152620003c48162000382565b9050919050565b6000819050919050565b7f4e487b7100000000000000000000000000000000000000000000000000000000600052601160045260246000fd5b60006200041182620003cb565b91506200041e83620003cb565b9250827fffffffffffffffffffffffffffffffffffffffffffffffffffffffffffffffff03821115620004565762000455620003d5565b5b828201905092915050565b6200046c81620003cb565b82525050565b600060208201905062000489600083018462000461565b92915050565b7f4e487b7100000000000000000000000000000000000000000000000000000000600052602260045260246000fd5b60006002820490506001821680620004d757607f821691505b60208210811415620004ee57620004ed6200048f565b5b50919050565b6118ee80620005046000396000f3fe608060405234801561001057600080fd5b50600436106100ea5760003560e01c80634fb2e45d1161008c57806395d89b411161006657806395d89b4114610273578063a457c2d714610291578063a9059cbb146102c1578063dd62ed3e146102f1576100ea565b80634fb2e45d146101f557806370a08231146102255780638da5cb5b14610255576100ea565b806323b872dd116100c857806323b872dd1461015b578063313ce5671461018b57806339509351146101a957806340c10f19146101d9576100ea565b806306fdde03146100ef578063095ea7b31461010d57806318160ddd1461013d575b600080fd5b6100f7610321565b6040516101049190611014565b60405180910390f35b610127600480360381019061012291906110cf565b6103b3565b604051610134919061112a565b60405180910390f35b6101456103d6565b6040516101529190611154565b60405180910390f35b6101756004803603810190610170919061116f565b6103e0565b604051610182919061112a565b60405180910390f35b61019361040f565b6040516101a091906111de565b60405180910390f35b6101c360048036038101906101be91906110cf565b610418565b6040516101d0919061112a565b60405180910390f35b6101f360048036038101906101ee91906110cf565b6104c2565b005b61020f600480360381019061020a91906111f9565b610560565b60405161021c919061112a565b60405180910390f35b61023f600480360381019061023a91906111f9565b6106b8565b60405161024c9190611154565b60405180910390f35b61025d610700565b60405161026a9190611235565b60405180910390f35b61027b610726565b6040516102889190611014565b60405180910390f35b6102ab60048036038101906102a691906110cf565b6107b8565b6040516102b8919061112a565b60405180910390f35b6102db60048036038101906102d691906110cf565b6108a2565b6040516102e8919061112a565b60405180910390f35b61030b60048036038101906103069190611250565b6108aa565b6040516103189190611154565b60405180910390f35b606060038054610330906112bf565b80601f016020809104026020016040519081016040528092919081815260200182805461035c906112bf565b80156103a95780601f1061037e576101008083540402835291602001916103a9565b820191906000526020600020905b81548152906001019060200180831161038c57829003601f168201915b5050505050905090565b6000806103be610931565b90506103cb818585610939565b600191505092915050565b6000600254905090565b6000806103eb610931565b90506103f8858285610b04565b610403858585610b90565b60019150509392505050565b60006012905090565b600080610423610931565b90506104b7818585600160008673ffffffffffffffffffffffffffffffffffffffff1673ffffffffffffffffffffffffffffffffffffffff16815260200190815260200160002060008973ffffffffffffffffffffffffffffffffffffffff1673ffffffffffffffffffffffffffffffffffffffff168152602001908152602001600020546104b29190611320565b610939565b600191505092915050565b600560009054906101000a900473ffffffffffffffffffffffffffffffffffffffff1673ffffffffffffffffffffffffffffffffffffffff163373ffffffffffffffffffffffffffffffffffffffff1614610552576040517f08c379a0000000000000000000000000000000000000000000000000000000008152600401610549906113c2565b60405180910390fd5b61055c8282610e11565b5050565b6000600560009054906101000a900473ffffffffffffffffffffffffffffffffffffffff1673ffffffffffffffffffffffffffffffffffffffff163373ffffffffffffffffffffffffffffffffffffffff16146105f2576040517f08c379a00000000000000000000000000000000000000000000000000000000081526004016105e990611454565b60405180910390fd5b81600560006101000a81548173ffffffffffffffffffffffffffffffffffffffff021916908373ffffffffffffffffffffffffffffffffffffffff1602179055508173ffffffffffffffffffffffffffffffffffffffff16600560009054906101000a900473ffffffffffffffffffffffffffffffffffffffff1673ffffffffffffffffffffffffffffffffffffffff167f5bb496b3f951b55d3a1d8e479725a4d25bdc7644fc355f0b71c540354820a1c560405160405180910390a360019050919050565b60008060008373ffffffffffffffffffffffffffffffffffffffff1673ffffffffffffffffffffffffffffffffffffffff168152602001908152602001600020549050919050565b600560009054906101000a900473ffffffffffffffffffffffffffffffffffffffff1681565b606060048054610735906112bf565b80601f0160208091040260200160405190810160405280929190818152602001828054610761906112bf565b80156107ae5780601f10610783576101008083540402835291602001916107ae565b820191906000526020600020905b81548152906001019060200180831161079157829003601f168201915b5050505050905090565b6000806107c3610931565b90506000600160008373ffffffffffffffffffffffffffffffffffffffff1673ffffffffffffffffffffffffffffffffffffffff16815260200190815260200160002060008673ffffffffffffffffffffffffffffffffffffffff1673ffffffffffffffffffffffffffffffffffffffff16815260200190815260200160002054905083811015610889576040517f08c379a0000000000000000000000000000000000000000000000000000000008152600401610880906114e6565b60405180910390fd5b6108968286868403610939565b60019250505092915050565b600092915050565b6000600160008473ffffffffffffffffffffffffffffffffffffffff1673ffffffffffffffffffffffffffffffffffffffff16815260200190815260200160002060008373ffffffffffffffffffffffffffffffffffffffff1673ffffffffffffffffffffffffffffffffffffffff16815260200190815260200160002054905092915050565b600033905090565b600073ffffffffffffffffffffffffffffffffffffffff168373ffffffffffffffffffffffffffffffffffffffff1614156109a9576040517f08c379a00000000000000000000000000000000000000000000000000000000081526004016109a090611578565b60405180910390fd5b600073ffffffffffffffffffffffffffffffffffffffff168273ffffffffffffffffffffffffffffffffffffffff161415610a19576040517f08c379a0000000000000000000000000000000000000000000000000000000008152600401610a109061160a565b60405180910390fd5b80600160008573ffffffffffffffffffffffffffffffffffffffff1673ffffffffffffffffffffffffffffffffffffffff16815260200190815260200160002060008473ffffffffffffffffffffffffffffffffffffffff1673ffffffffffffffffffffffffffffffffffffffff168152602001908152602001600020819055508173ffffffffffffffffffffffffffffffffffffffff168373ffffffffffffffffffffffffffffffffffffffff167f8c5be1e5ebec7d5bd14f71427d1e84f3dd0314c0f7b2291e5b200ac8c7c3b92583604051610af79190611154565b60405180910390a3505050565b6000610b1084846108aa565b90507fffffffffffffffffffffffffffffffffffffffffffffffffffffffffffffffff8114610b8a5781811015610b7c576040517f08c379a0000000000000000000000000000000000000000000000000000000008152600401610b7390611676565b60405180910390fd5b610b898484848403610939565b5b50505050565b600073ffffffffffffffffffffffffffffffffffffffff168373ffffffffffffffffffffffffffffffffffffffff161415610c00576040517f08c379a0000000000000000000000000000000000000000000000000000000008152600401610bf790611708565b60405180910390fd5b600073ffffffffffffffffffffffffffffffffffffffff168273ffffffffffffffffffffffffffffffffffffffff161415610c70576040517f08c379a0000000000000000000000000000000000000000000000000000000008152600401610c679061179a565b60405180910390fd5b610c7b838383610f71565b60008060008573ffffffffffffffffffffffffffffffffffffffff1673ffffffffffffffffffffffffffffffffffffffff16815260200190815260200160002054905081811015610d01576040517f08c379a0000000000000000000000000000000000000000000000000000000008152600401610cf89061182c565b60405180910390fd5b8181036000808673ffffffffffffffffffffffffffffffffffffffff1673ffffffffffffffffffffffffffffffffffffffff16815260200190815260200160002081905550816000808573ffffffffffffffffffffffffffffffffffffffff1673ffffffffffffffffffffffffffffffffffffffff1681526020019081526020016000206000828254610d949190611320565b925050819055508273ffffffffffffffffffffffffffffffffffffffff168473ffffffffffffffffffffffffffffffffffffffff167fddf252ad1be2c89b69c2b068fc378daa952ba7f163c4a11628f55a4df523b3ef84604051610df89190611154565b60405180910390a3610e0b848484610f76565b50505050565b600073ffffffffffffffffffffffffffffffffffffffff168273ffffffffffffffffffffffffffffffffffffffff161415610e81576040517f08c379a0000000000000000000000000000000000000000000000000000000008152600401610e7890611898565b60405180910390fd5b610e8d60008383610f71565b8060026000828254610e9f9190611320565b92505081905550806000808473ffffffffffffffffffffffffffffffffffffffff1673ffffffffffffffffffffffffffffffffffffffff1681526020019081526020016000206000828254610ef49190611320565b925050819055508173ffffffffffffffffffffffffffffffffffffffff16600073ffffffffffffffffffffffffffffffffffffffff167fddf252ad1be2c89b69c2b068fc378daa952ba7f163c4a11628f55a4df523b3ef83604051610f599190611154565b60405180910390a3610f6d60008383610f76565b5050565b505050565b505050565b600081519050919050565b600082825260208201905092915050565b60005b83811015610fb5578082015181840152602081019050610f9a565b83811115610fc4576000848401525b50505050565b6000601f19601f8301169050919050565b6000610fe682610f7b565b610ff08185610f86565b9350611000818560208601610f97565b61100981610fca565b840191505092915050565b6000602082019050818103600083015261102e8184610fdb565b905092915050565b600080fd5b600073ffffffffffffffffffffffffffffffffffffffff82169050919050565b60006110668261103b565b9050919050565b6110768161105b565b811461108157600080fd5b50565b6000813590506110938161106d565b92915050565b6000819050919050565b6110ac81611099565b81146110b757600080fd5b50565b6000813590506110c9816110a3565b92915050565b600080604083850312156110e6576110e5611036565b5b60006110f485828601611084565b9250506020611105858286016110ba565b9150509250929050565b60008115159050919050565b6111248161110f565b82525050565b600060208201905061113f600083018461111b565b92915050565b61114e81611099565b82525050565b60006020820190506111696000830184611145565b92915050565b60008060006060848603121561118857611187611036565b5b600061119686828701611084565b93505060206111a786828701611084565b92505060406111b8868287016110ba565b9150509250925092565b600060ff82169050919050565b6111d8816111c2565b82525050565b60006020820190506111f360008301846111cf565b92915050565b60006020828403121561120f5761120e611036565b5b600061121d84828501611084565b91505092915050565b61122f8161105b565b82525050565b600060208201905061124a6000830184611226565b92915050565b6000806040838503121561126757611266611036565b5b600061127585828601611084565b925050602061128685828601611084565b9150509250929050565b7f4e487b7100000000000000000000000000000000000000000000000000000000600052602260045260246000fd5b600060028204905060018216806112d757607f821691505b602082108114156112eb576112ea611290565b5b50919050565b7f4e487b7100000000000000000000000000000000000000000000000000000000600052601160045260246000fd5b600061132b82611099565b915061133683611099565b9250827fffffffffffffffffffffffffffffffffffffffffffffffffffffffffffffffff0382111561136b5761136a6112f1565b5b828201905092915050565b7f4f6e6c79206f776e65722063616e206d696e7400000000000000000000000000600082015250565b60006113ac601383610f86565b91506113b782611376565b602082019050919050565b600060208201905081810360008301526113db8161139f565b9050919050565b7f4f6e6c79206f776e65722063616e207472616e73666572206f776e657273686960008201527f7000000000000000000000000000000000000000000000000000000000000000602082015250565b600061143e602183610f86565b9150611449826113e2565b604082019050919050565b6000602082019050818103600083015261146d81611431565b9050919050565b7f45524332303a2064656372656173656420616c6c6f77616e63652062656c6f7760008201527f207a65726f000000000000000000000000000000000000000000000000000000602082015250565b60006114d0602583610f86565b91506114db82611474565b604082019050919050565b600060208201905081810360008301526114ff816114c3565b9050919050565b7f45524332303a20617070726f76652066726f6d20746865207a65726f2061646460008201527f7265737300000000000000000000000000000000000000000000000000000000602082015250565b6000611562602483610f86565b915061156d82611506565b604082019050919050565b6000602082019050818103600083015261159181611555565b9050919050565b7f45524332303a20617070726f766520746f20746865207a65726f20616464726560008201527f7373000000000000000000000000000000000000000000000000000000000000602082015250565b60006115f4602283610f86565b91506115ff82611598565b604082019050919050565b60006020820190508181036000830152611623816115e7565b9050919050565b7f45524332303a20696e73756666696369656e7420616c6c6f77616e6365000000600082015250565b6000611660601d83610f86565b915061166b8261162a565b602082019050919050565b6000602082019050818103600083015261168f81611653565b9050919050565b7f45524332303a207472616e736665722066726f6d20746865207a65726f20616460008201527f6472657373000000000000000000000000000000000000000000000000000000602082015250565b60006116f2602583610f86565b91506116fd82611696565b604082019050919050565b60006020820190508181036000830152611721816116e5565b9050919050565b7f45524332303a207472616e7366657220746f20746865207a65726f206164647260008201527f6573730000000000000000000000000000000000000000000000000000000000602082015250565b6000611784602383610f86565b915061178f82611728565b604082019050919050565b600060208201905081810360008301526117b381611777565b9050919050565b7f45524332303a207472616e7366657220616d6f756e742065786365656473206260008201527f616c616e63650000000000000000000000000000000000000000000000000000602082015250565b6000611816602683610f86565b9150611821826117ba565b604082019050919050565b6000602082019050818103600083015261184581611809565b9050919050565b7f45524332303a206d696e7420746f20746865207a65726f206164647265737300600082015250565b6000611882601f83610f86565b915061188d8261184c565b602082019050919050565b600060208201905081810360008301526118b181611875565b905091905056fea26469706673582212201a9bd5fda620e7761c436d9814d87b264778019243e3a54976164bd44a7ba3e964736f6c634300080b0033",
  "linkReferences": {},
  "deployedLinkReferences": {}
}