{
  "_format": "hh-sol-artifact-1",
  "contractName": "Gift",
  "sourceName": "contracts/Gift.sol",
  "abi": [
    {
      "inputs": [
        {
          "internalType": "contract GiftToken",
          "name": "_token",
          "type": "address"
        }
      ],
      "stateMutability": "nonpayable",
      "type": "constructor"
    },
    {
      "anonymous": false,
      "inputs": [
        {
          "indexed": false,
          "internalType": "string",
          "name": "CID",
          "type": "string"
        },
        {
          "indexed": true,
          "internalType": "address",
          "name": "creator",
          "type": "address"
        },
        {
          "indexed": false,
          "internalType": "uint256",
          "name": "targetAmount",
          "type": "uint256"
        },
        {
          "indexed": false,
          "internalType": "uint256",
          "name": "collectedAmount",
          "type": "uint256"
        }
      ],
      "name": "CampaignCreated",
      "type": "event"
    },
    {
      "inputs": [
        {
          "internalType": "uint256",
          "name": "_index",
          "type": "uint256"
        }
      ],
      "name": "buyNFT",
      "outputs": [],
      "stateMutability": "payable",
      "type": "function"
    },
    {
      "inputs": [
        {
          "internalType": "uint256",
          "name": "_index",
          "type": "uint256"
        }
      ],
      "name": "claimBackNFT",
      "outputs": [],
      "stateMutability": "payable",
      "type": "function"
    },
    {
      "inputs": [
        {
          "internalType": "string",
          "name": "CID",
          "type": "string"
        },
        {
          "internalType": "uint256",
          "name": "_targetAmount",
          "type": "uint256"
        }
      ],
      "name": "createCampaign",
      "outputs": [],
      "stateMutability": "nonpayable",
      "type": "function"
    },
    {
      "inputs": [
        {
          "internalType": "address",
          "name": "_nftContractAddress",
          "type": "address"
        },
        {
          "internalType": "uint256",
          "name": "_tokenId",
          "type": "uint256"
        },
        {
          "internalType": "uint256",
          "name": "_price",
          "type": "uint256"
        },
        {
          "internalType": "address",
          "name": "_campaignCreator",
          "type": "address"
        },
        {
          "internalType": "uint256",
          "name": "_campaignIndex",
          "type": "uint256"
        }
      ],
      "name": "donateNFT",
      "outputs": [],
      "stateMutability": "payable",
      "type": "function"
    },
    {
      "inputs": [
        {
          "internalType": "address",
          "name": "_creator",
          "type": "address"
        },
        {
          "internalType": "uint256",
          "name": "index",
          "type": "uint256"
        }
      ],
      "name": "getCampaign",
      "outputs": [
        {
          "components": [
            {
              "internalType": "string",
              "name": "CID",
              "type": "string"
            },
            {
              "internalType": "uint256",
              "name": "targetAmount",
              "type": "uint256"
            },
            {
              "internalType": "uint256",
              "name": "collectedAmount",
              "type": "uint256"
            }
          ],
          "internalType": "struct Gift.Campaign",
          "name": "",
          "type": "tuple"
        }
      ],
      "stateMutability": "view",
      "type": "function"
    },
    {
      "inputs": [
        {
          "internalType": "address",
          "name": "_creator",
          "type": "address"
        }
      ],
      "name": "getCampaignsByCreator",
      "outputs": [
        {
          "components": [
            {
              "internalType": "string",
              "name": "CID",
              "type": "string"
            },
            {
              "internalType": "uint256",
              "name": "targetAmount",
              "type": "uint256"
            },
            {
              "internalType": "uint256",
              "name": "collectedAmount",
              "type": "uint256"
            }
          ],
          "internalType": "struct Gift.Campaign[]",
          "name": "",
          "type": "tuple[]"
        }
      ],
      "stateMutability": "view",
      "type": "function"
    },
    {
      "inputs": [
        {
          "internalType": "address",
          "name": "_contract",
          "type": "address"
        },
        {
          "internalType": "uint256",
          "name": "_tokenId",
          "type": "uint256"
        }
      ],
      "name": "getNFTMetadata",
      "outputs": [
        {
          "internalType": "string",
          "name": "",
          "type": "string"
        }
      ],
      "stateMutability": "view",
      "type": "function"
    },
    {
      "inputs": [],
      "name": "getNftGifts",
      "outputs": [
        {
          "components": [
            {
              "internalType": "enum Gift.NFTGiftState",
              "name": "status",
              "type": "uint8"
            },
            {
              "internalType": "address",
              "name": "contractAddress",
              "type": "address"
            },
            {
              "internalType": "uint256",
              "name": "tokenId",
              "type": "uint256"
            },
            {
              "internalType": "address",
              "name": "prevOwner",
              "type": "address"
            },
            {
              "internalType": "uint256",
              "name": "price",
              "type": "uint256"
            },
            {
              "internalType": "address",
              "name": "campaignCreator",
              "type": "address"
            },
            {
              "internalType": "uint256",
              "name": "campaignId",
              "type": "uint256"
            }
          ],
          "internalType": "struct Gift.NFTGift[]",
          "name": "",
          "type": "tuple[]"
        }
      ],
      "stateMutability": "view",
      "type": "function"
    },
    {
      "inputs": [
        {
          "internalType": "address",
          "name": "_creator",
          "type": "address"
        },
        {
          "internalType": "uint256",
          "name": "index",
          "type": "uint256"
        }
      ],
      "name": "gift",
      "outputs": [],
      "stateMutability": "payable",
      "type": "function"
    },
    {
      "inputs": [
        {
          "internalType": "uint256",
          "name": "",
          "type": "uint256"
        }
      ],
      "name": "nftGifts",
      "outputs": [
        {
          "internalType": "enum Gift.NFTGiftState",
          "name": "status",
          "type": "uint8"
        },
        {
          "internalType": "address",
          "name": "contractAddress",
          "type": "address"
        },
        {
          "internalType": "uint256",
          "name": "tokenId",
          "type": "uint256"
        },
        {
          "internalType": "address",
          "name": "prevOwner",
          "type": "address"
        },
        {
          "internalType": "uint256",
          "name": "price",
          "type": "uint256"
        },
        {
          "internalType": "address",
          "name": "campaignCreator",
          "type": "address"
        },
        {
          "internalType": "uint256",
          "name": "campaignId",
          "type": "uint256"
        }
      ],
      "stateMutability": "view",
      "type": "function"
    },
    {
      "inputs": [
        {
          "internalType": "uint256",
          "name": "_nftIndex",
          "type": "uint256"
        }
      ],
      "name": "revokeNFtGift",
      "outputs": [],
      "stateMutability": "nonpayable",
      "type": "function"
    }
  ],
  "bytecode": "0x60806040523480156200001157600080fd5b5060405162003c6838038062003c688339818101604052810190620000379190620000fd565b80600260006101000a81548173ffffffffffffffffffffffffffffffffffffffff021916908373ffffffffffffffffffffffffffffffffffffffff160217905550506200012f565b600080fd5b600073ffffffffffffffffffffffffffffffffffffffff82169050919050565b6000620000b18262000084565b9050919050565b6000620000c582620000a4565b9050919050565b620000d781620000b8565b8114620000e357600080fd5b50565b600081519050620000f781620000cc565b92915050565b6000602082840312156200011657620001156200007f565b5b60006200012684828501620000e6565b91505092915050565b613b29806200013f6000396000f3fe60806040526004361061009b5760003560e01c806388cd69711161006457806388cd697114610148578063a838e43b1461018b578063b08328b4146101c8578063cbce4c9714610205578063d5b8d84a14610221578063f102a67c1461025e5761009b565b80623a4772146100a057806309a81929146100cb578063247ca62a146100f457806351ed828814610110578063873e58db1461012c575b600080fd5b3480156100ac57600080fd5b506100b5610287565b6040516100c29190612811565b60405180910390f35b3480156100d757600080fd5b506100f260048036038101906100ed9190612873565b610441565b005b61010e60048036038101906101099190612873565b610703565b005b61012a60048036038101906101259190612873565b610bb1565b005b610146600480360381019061014191906128cc565b611366565b005b34801561015457600080fd5b5061016f600480360381019061016a9190612873565b6119bf565b6040516101829796959493929190612974565b60405180910390f35b34801561019757600080fd5b506101b260048036038101906101ad91906129e3565b611a7e565b6040516101bf9190612abc565b60405180910390f35b3480156101d457600080fd5b506101ef60048036038101906101ea91906129e3565b611b0d565b6040516101fc9190612b78565b60405180910390f35b61021f600480360381019061021a91906129e3565b611d37565b005b34801561022d57600080fd5b5061024860048036038101906102439190612b9a565b61225d565b6040516102559190612cd9565b60405180910390f35b34801561026a57600080fd5b5061028560048036038101906102809190612d60565b6123a1565b005b60606000805480602002602001604051908101604052809291908181526020016000905b8282101561043857838290600052602060002090600602016040518060e00160405290816000820160009054906101000a900460ff1660028111156102f3576102f261262f565b5b60028111156103055761030461262f565b5b81526020016000820160019054906101000a900473ffffffffffffffffffffffffffffffffffffffff1673ffffffffffffffffffffffffffffffffffffffff1673ffffffffffffffffffffffffffffffffffffffff168152602001600182015481526020016002820160009054906101000a900473ffffffffffffffffffffffffffffffffffffffff1673ffffffffffffffffffffffffffffffffffffffff1673ffffffffffffffffffffffffffffffffffffffff168152602001600382015481526020016004820160009054906101000a900473ffffffffffffffffffffffffffffffffffffffff1673ffffffffffffffffffffffffffffffffffffffff1673ffffffffffffffffffffffffffffffffffffffff168152602001600582015481525050815260200190600101906102ab565b50505050905090565b6000805490508110610488576040517f08c379a000000000000000000000000000000000000000000000000000000000815260040161047f90612e0c565b60405180910390fd5b6000818154811061049c5761049b612e2c565b5b906000526020600020906006020160020160009054906101000a900473ffffffffffffffffffffffffffffffffffffffff1673ffffffffffffffffffffffffffffffffffffffff163373ffffffffffffffffffffffffffffffffffffffff161461053b576040517f08c379a000000000000000000000000000000000000000000000000000000000815260040161053290612ecd565b60405180910390fd5b6000600281111561054f5761054e61262f565b5b6000828154811061056357610562612e2c565b5b906000526020600020906006020160000160009054906101000a900460ff1660028111156105945761059361262f565b5b146105d4576040517f08c379a00000000000000000000000000000000000000000000000000000000081526004016105cb90612f5f565b60405180910390fd5b60008082815481106105e9576105e8612e2c565b5b906000526020600020906006020160000160019054906101000a900473ffffffffffffffffffffffffffffffffffffffff1690508073ffffffffffffffffffffffffffffffffffffffff166323b872dd30336000868154811061064f5761064e612e2c565b5b9060005260206000209060060201600101546040518463ffffffff1660e01b815260040161067f93929190612f7f565b600060405180830381600087803b15801561069957600080fd5b505af11580156106ad573d6000803e3d6000fd5b505050506001600083815481106106c7576106c6612e2c565b5b906000526020600020906006020160000160006101000a81548160ff021916908360028111156106fa576106f961262f565b5b02179055505050565b600080549050811061074a576040517f08c379a000000000000000000000000000000000000000000000000000000000815260040161074190613002565b60405180910390fd5b600080828154811061075f5761075e612e2c565b5b90600052602060002090600602016040518060e00160405290816000820160009054906101000a900460ff16600281111561079d5761079c61262f565b5b60028111156107af576107ae61262f565b5b81526020016000820160019054906101000a900473ffffffffffffffffffffffffffffffffffffffff1673ffffffffffffffffffffffffffffffffffffffff1673ffffffffffffffffffffffffffffffffffffffff168152602001600182015481526020016002820160009054906101000a900473ffffffffffffffffffffffffffffffffffffffff1673ffffffffffffffffffffffffffffffffffffffff1673ffffffffffffffffffffffffffffffffffffffff168152602001600382015481526020016004820160009054906101000a900473ffffffffffffffffffffffffffffffffffffffff1673ffffffffffffffffffffffffffffffffffffffff1673ffffffffffffffffffffffffffffffffffffffff16815260200160058201548152505090503373ffffffffffffffffffffffffffffffffffffffff16816060015173ffffffffffffffffffffffffffffffffffffffff1614610947576040517f08c379a000000000000000000000000000000000000000000000000000000000815260040161093e90613094565b60405180910390fd5b60028081111561095a5761095961262f565b5b816000015160028111156109715761097061262f565b5b14156109b2576040517f08c379a00000000000000000000000000000000000000000000000000000000081526004016109a990613100565b60405180910390fd5b6000816020015190508073ffffffffffffffffffffffffffffffffffffffff166323b872dd30846060015185604001516040518463ffffffff1660e01b8152600401610a0093929190612f7f565b600060405180830381600087803b158015610a1a57600080fd5b505af1158015610a2e573d6000803e3d6000fd5b50505050600182600001906002811115610a4b57610a4a61262f565b5b90816002811115610a5f57610a5e61262f565b5b815250508160008481548110610a7857610a77612e2c565b5b906000526020600020906006020160008201518160000160006101000a81548160ff02191690836002811115610ab157610ab061262f565b5b021790555060208201518160000160016101000a81548173ffffffffffffffffffffffffffffffffffffffff021916908373ffffffffffffffffffffffffffffffffffffffff1602179055506040820151816001015560608201518160020160006101000a81548173ffffffffffffffffffffffffffffffffffffffff021916908373ffffffffffffffffffffffffffffffffffffffff1602179055506080820151816003015560a08201518160040160006101000a81548173ffffffffffffffffffffffffffffffffffffffff021916908373ffffffffffffffffffffffffffffffffffffffff16021790555060c08201518160050155905050505050565b6000805490508110610bf8576040517f08c379a0000000000000000000000000000000000000000000000000000000008152600401610bef90613002565b60405180910390fd5b60006002811115610c0c57610c0b61262f565b5b60008281548110610c2057610c1f612e2c565b5b906000526020600020906006020160000160009054906101000a900460ff166002811115610c5157610c5061262f565b5b14610c91576040517f08c379a0000000000000000000000000000000000000000000000000000000008152600401610c889061316c565b60405180910390fd5b3460008281548110610ca657610ca5612e2c565b5b9060005260206000209060060201600301541115610cf9576040517f08c379a0000000000000000000000000000000000000000000000000000000008152600401610cf0906131d8565b60405180910390fd5b600060016000808481548110610d1257610d11612e2c565b5b906000526020600020906006020160040160009054906101000a900473ffffffffffffffffffffffffffffffffffffffff1673ffffffffffffffffffffffffffffffffffffffff1673ffffffffffffffffffffffffffffffffffffffff16815260200190815260200160002060008381548110610d9257610d91612e2c565b5b90600052602060002090600602016005015481548110610db557610db4612e2c565b5b9060005260206000209060030201604051806060016040529081600082018054610dde90613227565b80601f0160208091040260200160405190810160405280929190818152602001828054610e0a90613227565b8015610e575780601f10610e2c57610100808354040283529160200191610e57565b820191906000526020600020905b815481529060010190602001808311610e3a57829003601f168201915b505050505081526020016001820154815260200160028201548152505090508060200151816040015110610ec0576040517f08c379a0000000000000000000000000000000000000000000000000000000008152600401610eb7906132cb565b60405180910390fd5b6000808381548110610ed557610ed4612e2c565b5b906000526020600020906006020160000160019054906101000a900473ffffffffffffffffffffffffffffffffffffffff1690508073ffffffffffffffffffffffffffffffffffffffff166323b872dd303360008781548110610f3b57610f3a612e2c565b5b9060005260206000209060060201600101546040518463ffffffff1660e01b8152600401610f6b93929190612f7f565b600060405180830381600087803b158015610f8557600080fd5b505af1158015610f99573d6000803e3d6000fd5b505050506000808481548110610fb257610fb1612e2c565b5b906000526020600020906006020160040160009054906101000a900473ffffffffffffffffffffffffffffffffffffffff1673ffffffffffffffffffffffffffffffffffffffff16346040516110079061331c565b60006040518083038185875af1925050503d8060008114611044576040519150601f19603f3d011682016040523d82523d6000602084013e611049565b606091505b505090508061108d576040517f08c379a00000000000000000000000000000000000000000000000000000000081526004016110849061337d565b60405180910390fd5b348360400181815161109f91906133cc565b9150818152505082600160008087815481106110be576110bd612e2c565b5b906000526020600020906006020160040160009054906101000a900473ffffffffffffffffffffffffffffffffffffffff1673ffffffffffffffffffffffffffffffffffffffff1673ffffffffffffffffffffffffffffffffffffffff1681526020019081526020016000206000868154811061113e5761113d612e2c565b5b9060005260206000209060060201600501548154811061116157611160612e2c565b5b9060005260206000209060030201600082015181600001908051906020019061118b92919061253f565b506020820151816001015560408201518160020155905050600260009054906101000a900473ffffffffffffffffffffffffffffffffffffffff1673ffffffffffffffffffffffffffffffffffffffff166340c10f19600086815481106111f5576111f4612e2c565b5b906000526020600020906006020160020160009054906101000a900473ffffffffffffffffffffffffffffffffffffffff16346040518363ffffffff1660e01b8152600401611245929190613422565b600060405180830381600087803b15801561125f57600080fd5b505af1158015611273573d6000803e3d6000fd5b50505050600260009054906101000a900473ffffffffffffffffffffffffffffffffffffffff1673ffffffffffffffffffffffffffffffffffffffff166340c10f19336064346112c3919061347a565b6040518363ffffffff1660e01b81526004016112e0929190613422565b600060405180830381600087803b1580156112fa57600080fd5b505af115801561130e573d6000803e3d6000fd5b5050505060026000858154811061132857611327612e2c565b5b906000526020600020906006020160000160006101000a81548160ff0219169083600281111561135b5761135a61262f565b5b021790555050505050565b6000600160008473ffffffffffffffffffffffffffffffffffffffff1673ffffffffffffffffffffffffffffffffffffffff168152602001908152602001600020805490501415806113f95750600160008373ffffffffffffffffffffffffffffffffffffffff1673ffffffffffffffffffffffffffffffffffffffff1681526020019081526020016000208054905081105b611438576040517f08c379a000000000000000000000000000000000000000000000000000000000815260040161142f906134f7565b60405180910390fd5b6000600160008473ffffffffffffffffffffffffffffffffffffffff1673ffffffffffffffffffffffffffffffffffffffff168152602001908152602001600020828154811061148b5761148a612e2c565b5b90600052602060002090600302016040518060600160405290816000820180546114b490613227565b80601f01602080910402602001604051908101604052809291908181526020018280546114e090613227565b801561152d5780601f106115025761010080835404028352916020019161152d565b820191906000526020600020905b81548152906001019060200180831161151057829003601f168201915b505050505081526020016001820154815260200160028201548152505090508060200151816040015110611596576040517f08c379a000000000000000000000000000000000000000000000000000000000815260040161158d906132cb565b60405180910390fd5b60008690503373ffffffffffffffffffffffffffffffffffffffff168173ffffffffffffffffffffffffffffffffffffffff16636352211e886040518263ffffffff1660e01b81526004016115eb9190613517565b602060405180830381865afa158015611608573d6000803e3d6000fd5b505050506040513d601f19601f8201168201806040525081019061162c9190613547565b73ffffffffffffffffffffffffffffffffffffffff1614611682576040517f08c379a0000000000000000000000000000000000000000000000000000000008152600401611679906135e6565b60405180910390fd5b3073ffffffffffffffffffffffffffffffffffffffff168173ffffffffffffffffffffffffffffffffffffffff1663081812fc886040518263ffffffff1660e01b81526004016116d29190613517565b602060405180830381865afa1580156116ef573d6000803e3d6000fd5b505050506040513d601f19601f820116820180604052508101906117139190613547565b73ffffffffffffffffffffffffffffffffffffffff1614611769576040517f08c379a000000000000000000000000000000000000000000000000000000000815260040161176090613678565b60405180910390fd5b8073ffffffffffffffffffffffffffffffffffffffff166323b872dd3330896040518463ffffffff1660e01b81526004016117a693929190612f7f565b600060405180830381600087803b1580156117c057600080fd5b505af11580156117d4573d6000803e3d6000fd5b5050505060006040518060e00160405280600060028111156117f9576117f861262f565b5b81526020018973ffffffffffffffffffffffffffffffffffffffff1681526020018881526020013373ffffffffffffffffffffffffffffffffffffffff1681526020018781526020018673ffffffffffffffffffffffffffffffffffffffff168152602001858152509050600081908060018154018082558091505060019003906000526020600020906006020160009091909190915060008201518160000160006101000a81548160ff021916908360028111156118bb576118ba61262f565b5b021790555060208201518160000160016101000a81548173ffffffffffffffffffffffffffffffffffffffff021916908373ffffffffffffffffffffffffffffffffffffffff1602179055506040820151816001015560608201518160020160006101000a81548173ffffffffffffffffffffffffffffffffffffffff021916908373ffffffffffffffffffffffffffffffffffffffff1602179055506080820151816003015560a08201518160040160006101000a81548173ffffffffffffffffffffffffffffffffffffffff021916908373ffffffffffffffffffffffffffffffffffffffff16021790555060c0820151816005015550505050505050505050565b600081815481106119cf57600080fd5b90600052602060002090600602016000915090508060000160009054906101000a900460ff16908060000160019054906101000a900473ffffffffffffffffffffffffffffffffffffffff16908060010154908060020160009054906101000a900473ffffffffffffffffffffffffffffffffffffffff16908060030154908060040160009054906101000a900473ffffffffffffffffffffffffffffffffffffffff16908060050154905087565b606060008390508073ffffffffffffffffffffffffffffffffffffffff1663c87b56dd846040518263ffffffff1660e01b8152600401611abe9190613517565b600060405180830381865afa158015611adb573d6000803e3d6000fd5b505050506040513d6000823e3d601f19601f82011682018060405250810190611b0491906137b9565b91505092915050565b611b156125c5565b6000600160008573ffffffffffffffffffffffffffffffffffffffff1673ffffffffffffffffffffffffffffffffffffffff168152602001908152602001600020805490501415611b9b576040517f08c379a0000000000000000000000000000000000000000000000000000000008152600401611b929061384e565b60405180910390fd5b600160008473ffffffffffffffffffffffffffffffffffffffff1673ffffffffffffffffffffffffffffffffffffffff168152602001908152602001600020805490508210611c1f576040517f08c379a0000000000000000000000000000000000000000000000000000000008152600401611c1690612e0c565b60405180910390fd5b600160008473ffffffffffffffffffffffffffffffffffffffff1673ffffffffffffffffffffffffffffffffffffffff1681526020019081526020016000208281548110611c7057611c6f612e2c565b5b9060005260206000209060030201604051806060016040529081600082018054611c9990613227565b80601f0160208091040260200160405190810160405280929190818152602001828054611cc590613227565b8015611d125780601f10611ce757610100808354040283529160200191611d12565b820191906000526020600020905b815481529060010190602001808311611cf557829003601f168201915b5050505050815260200160018201548152602001600282015481525050905092915050565b8173ffffffffffffffffffffffffffffffffffffffff163373ffffffffffffffffffffffffffffffffffffffff161415611da6576040517f08c379a0000000000000000000000000000000000000000000000000000000008152600401611d9d906138ba565b60405180910390fd5b6000600160008473ffffffffffffffffffffffffffffffffffffffff1673ffffffffffffffffffffffffffffffffffffffff168152602001908152602001600020805490501415611e2c576040517f08c379a0000000000000000000000000000000000000000000000000000000008152600401611e239061384e565b60405180910390fd5b600160008373ffffffffffffffffffffffffffffffffffffffff1673ffffffffffffffffffffffffffffffffffffffff168152602001908152602001600020805490508110611eb0576040517f08c379a0000000000000000000000000000000000000000000000000000000008152600401611ea790612e0c565b60405180910390fd5b6000600160008473ffffffffffffffffffffffffffffffffffffffff1673ffffffffffffffffffffffffffffffffffffffff1681526020019081526020016000208281548110611f0357611f02612e2c565b5b9060005260206000209060030201604051806060016040529081600082018054611f2c90613227565b80601f0160208091040260200160405190810160405280929190818152602001828054611f5890613227565b8015611fa55780601f10611f7a57610100808354040283529160200191611fa5565b820191906000526020600020905b815481529060010190602001808311611f8857829003601f168201915b505050505081526020016001820154815260200160028201548152505090508060200151348260400151611fd991906133cc565b10612019576040517f08c379a0000000000000000000000000000000000000000000000000000000008152600401612010906132cb565b60405180910390fd5b8060400151816020015161202d91906138da565b34111561206f576040517f08c379a000000000000000000000000000000000000000000000000000000000815260040161206690613980565b60405180910390fd5b60008373ffffffffffffffffffffffffffffffffffffffff16346040516120959061331c565b60006040518083038185875af1925050503d80600081146120d2576040519150601f19603f3d011682016040523d82523d6000602084013e6120d7565b606091505b505090508061211b576040517f08c379a00000000000000000000000000000000000000000000000000000000081526004016121129061337d565b60405180910390fd5b348260400181815161212d91906133cc565b9150818152505081600160008673ffffffffffffffffffffffffffffffffffffffff1673ffffffffffffffffffffffffffffffffffffffff168152602001908152602001600020848154811061218657612185612e2c565b5b906000526020600020906003020160008201518160000190805190602001906121b092919061253f565b506020820151816001015560408201518160020155905050600260009054906101000a900473ffffffffffffffffffffffffffffffffffffffff1673ffffffffffffffffffffffffffffffffffffffff166340c10f1933346040518363ffffffff1660e01b8152600401612225929190613422565b600060405180830381600087803b15801561223f57600080fd5b505af1158015612253573d6000803e3d6000fd5b5050505050505050565b6060600160008373ffffffffffffffffffffffffffffffffffffffff1673ffffffffffffffffffffffffffffffffffffffff168152602001908152602001600020805480602002602001604051908101604052809291908181526020016000905b8282101561239657838290600052602060002090600302016040518060600160405290816000820180546122f190613227565b80601f016020809104026020016040519081016040528092919081815260200182805461231d90613227565b801561236a5780601f1061233f5761010080835404028352916020019161236a565b820191906000526020600020905b81548152906001019060200180831161234d57829003601f168201915b5050505050815260200160018201548152602001600282015481525050815260200190600101906122be565b505050509050919050565b600081116123e4576040517f08c379a00000000000000000000000000000000000000000000000000000000081526004016123db90613a12565b60405180910390fd5b6000604051806060016040528085858080601f016020809104026020016040519081016040528093929190818152602001838380828437600081840152601f19601f82011690508083019250505050505050815260200183815260200160008152509050600160003373ffffffffffffffffffffffffffffffffffffffff1673ffffffffffffffffffffffffffffffffffffffff16815260200190815260200160002081908060018154018082558091505060019003906000526020600020906003020160009091909190915060008201518160000190805190602001906124cd92919061253f565b50602082015181600101556040820151816002015550503373ffffffffffffffffffffffffffffffffffffffff167fd7117cbe9cfaa8f2a534ecf8be64be721fbc54fae44ed5185ab51dbe320ef50a85858560006040516125319493929190613ab3565b60405180910390a250505050565b82805461254b90613227565b90600052602060002090601f01602090048101928261256d57600085556125b4565b82601f1061258657805160ff19168380011785556125b4565b828001600101855582156125b4579182015b828111156125b3578251825591602001919060010190612598565b5b5090506125c191906125e6565b5090565b60405180606001604052806060815260200160008152602001600081525090565b5b808211156125ff5760008160009055506001016125e7565b5090565b600081519050919050565b600082825260208201905092915050565b6000819050602082019050919050565b7f4e487b7100000000000000000000000000000000000000000000000000000000600052602160045260246000fd5b6003811061266f5761266e61262f565b5b50565b60008190506126808261265e565b919050565b600061269082612672565b9050919050565b6126a081612685565b82525050565b600073ffffffffffffffffffffffffffffffffffffffff82169050919050565b60006126d1826126a6565b9050919050565b6126e1816126c6565b82525050565b6000819050919050565b6126fa816126e7565b82525050565b60e0820160008201516127166000850182612697565b50602082015161272960208501826126d8565b50604082015161273c60408501826126f1565b50606082015161274f60608501826126d8565b50608082015161276260808501826126f1565b5060a082015161277560a08501826126d8565b5060c082015161278860c08501826126f1565b50505050565b600061279a8383612700565b60e08301905092915050565b6000602082019050919050565b60006127be82612603565b6127c8818561260e565b93506127d38361261f565b8060005b838110156128045781516127eb888261278e565b97506127f6836127a6565b9250506001810190506127d7565b5085935050505092915050565b6000602082019050818103600083015261282b81846127b3565b905092915050565b6000604051905090565b600080fd5b600080fd5b612850816126e7565b811461285b57600080fd5b50565b60008135905061286d81612847565b92915050565b6000602082840312156128895761288861283d565b5b60006128978482850161285e565b91505092915050565b6128a9816126c6565b81146128b457600080fd5b50565b6000813590506128c6816128a0565b92915050565b600080600080600060a086880312156128e8576128e761283d565b5b60006128f6888289016128b7565b95505060206129078882890161285e565b94505060406129188882890161285e565b9350506060612929888289016128b7565b925050608061293a8882890161285e565b9150509295509295909350565b61295081612685565b82525050565b61295f816126c6565b82525050565b61296e816126e7565b82525050565b600060e082019050612989600083018a612947565b6129966020830189612956565b6129a36040830188612965565b6129b06060830187612956565b6129bd6080830186612965565b6129ca60a0830185612956565b6129d760c0830184612965565b98975050505050505050565b600080604083850312156129fa576129f961283d565b5b6000612a08858286016128b7565b9250506020612a198582860161285e565b9150509250929050565b600081519050919050565b600082825260208201905092915050565b60005b83811015612a5d578082015181840152602081019050612a42565b83811115612a6c576000848401525b50505050565b6000601f19601f8301169050919050565b6000612a8e82612a23565b612a988185612a2e565b9350612aa8818560208601612a3f565b612ab181612a72565b840191505092915050565b60006020820190508181036000830152612ad68184612a83565b905092915050565b600082825260208201905092915050565b6000612afa82612a23565b612b048185612ade565b9350612b14818560208601612a3f565b612b1d81612a72565b840191505092915050565b60006060830160008301518482036000860152612b458282612aef565b9150506020830151612b5a60208601826126f1565b506040830151612b6d60408601826126f1565b508091505092915050565b60006020820190508181036000830152612b928184612b28565b905092915050565b600060208284031215612bb057612baf61283d565b5b6000612bbe848285016128b7565b91505092915050565b600081519050919050565b600082825260208201905092915050565b6000819050602082019050919050565b60006060830160008301518482036000860152612c108282612aef565b9150506020830151612c2560208601826126f1565b506040830151612c3860408601826126f1565b508091505092915050565b6000612c4f8383612bf3565b905092915050565b6000602082019050919050565b6000612c6f82612bc7565b612c798185612bd2565b935083602082028501612c8b85612be3565b8060005b85811015612cc75784840389528151612ca88582612c43565b9450612cb383612c57565b925060208a01995050600181019050612c8f565b50829750879550505050505092915050565b60006020820190508181036000830152612cf38184612c64565b905092915050565b600080fd5b600080fd5b600080fd5b60008083601f840112612d2057612d1f612cfb565b5b8235905067ffffffffffffffff811115612d3d57612d3c612d00565b5b602083019150836001820283011115612d5957612d58612d05565b5b9250929050565b600080600060408486031215612d7957612d7861283d565b5b600084013567ffffffffffffffff811115612d9757612d96612842565b5b612da386828701612d0a565b93509350506020612db68682870161285e565b9150509250925092565b7f496e646578206f7574206f6620626f756e647300000000000000000000000000600082015250565b6000612df6601383612a2e565b9150612e0182612dc0565b602082019050919050565b60006020820190508181036000830152612e2581612de9565b9050919050565b7f4e487b7100000000000000000000000000000000000000000000000000000000600052603260045260246000fd5b7f596f7520617265206e6f74207468652070726576696f7573206f776e6572206f60008201527f6620746869732067696674000000000000000000000000000000000000000000602082015250565b6000612eb7602b83612a2e565b9150612ec282612e5b565b604082019050919050565b60006020820190508181036000830152612ee681612eaa565b9050919050565b7f4e465420697320616c726561647920736f6c64206f722077697468647261776e60008201527f2e00000000000000000000000000000000000000000000000000000000000000602082015250565b6000612f49602183612a2e565b9150612f5482612eed565b604082019050919050565b60006020820190508181036000830152612f7881612f3c565b9050919050565b6000606082019050612f946000830186612956565b612fa16020830185612956565b612fae6040830184612965565b949350505050565b7f4e465420646f65736e2774206578697374732100000000000000000000000000600082015250565b6000612fec601383612a2e565b9150612ff782612fb6565b602082019050919050565b6000602082019050818103600083015261301b81612fdf565b9050919050565b7f596f752077657265206e6f7420746865206f776e6572206f662074686973206e60008201527f6674000000000000000000000000000000000000000000000000000000000000602082015250565b600061307e602283612a2e565b915061308982613022565b604082019050919050565b600060208201905081810360008301526130ad81613071565b9050919050565b7f4e465420697320616c726561647920646f6e6174656400000000000000000000600082015250565b60006130ea601683612a2e565b91506130f5826130b4565b602082019050919050565b60006020820190508181036000830152613119816130dd565b9050919050565b7f4e4654206973206e6f74206c6973746564000000000000000000000000000000600082015250565b6000613156601183612a2e565b915061316182613120565b602082019050919050565b6000602082019050818103600083015261318581613149565b9050919050565b7f4769667420697320746f6f20657870656e736976650000000000000000000000600082015250565b60006131c2601583612a2e565b91506131cd8261318c565b602082019050919050565b600060208201905081810360008301526131f1816131b5565b9050919050565b7f4e487b7100000000000000000000000000000000000000000000000000000000600052602260045260246000fd5b6000600282049050600182168061323f57607f821691505b60208210811415613253576132526131f8565b5b50919050565b7f43616d706169676e20697320616c72656164792072656163686564206974277360008201527f2074617267657420616d6f756e742e0000000000000000000000000000000000602082015250565b60006132b5602f83612a2e565b91506132c082613259565b604082019050919050565b600060208201905081810360008301526132e4816132a8565b9050919050565b600081905092915050565b50565b60006133066000836132eb565b9150613311826132f6565b600082019050919050565b6000613327826132f9565b9150819050919050565b7f4661696c656420746f207472616e73666572206769667420616d6f756e740000600082015250565b6000613367601e83612a2e565b915061337282613331565b602082019050919050565b600060208201905081810360008301526133968161335a565b9050919050565b7f4e487b7100000000000000000000000000000000000000000000000000000000600052601160045260246000fd5b60006133d7826126e7565b91506133e2836126e7565b9250827fffffffffffffffffffffffffffffffffffffffffffffffffffffffffffffffff038211156134175761341661339d565b5b828201905092915050565b60006040820190506134376000830185612956565b6134446020830184612965565b9392505050565b7f4e487b7100000000000000000000000000000000000000000000000000000000600052601260045260246000fd5b6000613485826126e7565b9150613490836126e7565b9250826134a05761349f61344b565b5b828204905092915050565b7f43616d706169676e20646f6573206e6f74206578697374732e00000000000000600082015250565b60006134e1601983612a2e565b91506134ec826134ab565b602082019050919050565b60006020820190508181036000830152613510816134d4565b9050919050565b600060208201905061352c6000830184612965565b92915050565b600081519050613541816128a0565b92915050565b60006020828403121561355d5761355c61283d565b5b600061356b84828501613532565b91505092915050565b7f596f7520617265206e6f7420746865206f776e6572206f66207468697320746f60008201527f6b656e0000000000000000000000000000000000000000000000000000000000602082015250565b60006135d0602383612a2e565b91506135db82613574565b604082019050919050565b600060208201905081810360008301526135ff816135c3565b9050919050565b7f506c6561736520617070726f76652074686520636f6e747261637420746f206160008201527f636365737320796f7572204e4654206265666f726520646f6e6174696e670000602082015250565b6000613662603e83612a2e565b915061366d82613606565b604082019050919050565b6000602082019050818103600083015261369181613655565b9050919050565b600080fd5b7f4e487b7100000000000000000000000000000000000000000000000000000000600052604160045260246000fd5b6136d582612a72565b810181811067ffffffffffffffff821117156136f4576136f361369d565b5b80604052505050565b6000613707612833565b905061371382826136cc565b919050565b600067ffffffffffffffff8211156137335761373261369d565b5b61373c82612a72565b9050602081019050919050565b600061375c61375784613718565b6136fd565b90508281526020810184848401111561377857613777613698565b5b613783848285612a3f565b509392505050565b600082601f8301126137a05761379f612cfb565b5b81516137b0848260208601613749565b91505092915050565b6000602082840312156137cf576137ce61283d565b5b600082015167ffffffffffffffff8111156137ed576137ec612842565b5b6137f98482850161378b565b91505092915050565b7f4e6f2063616d706169676e7320666f756e640000000000000000000000000000600082015250565b6000613838601283612a2e565b915061384382613802565b602082019050919050565b600060208201905081810360008301526138678161382b565b9050919050565b7f596f752063616e6e6f74206769667420746f20796f757273656c660000000000600082015250565b60006138a4601b83612a2e565b91506138af8261386e565b602082019050919050565b600060208201905081810360008301526138d381613897565b9050919050565b60006138e5826126e7565b91506138f0836126e7565b9250828210156139035761390261339d565b5b828203905092915050565b7f446f6e6174696f6e206973206c6172676572207468616e207468652072656d6160008201527f696e696e672074617267657420616d6f756e742e000000000000000000000000602082015250565b600061396a603483612a2e565b91506139758261390e565b604082019050919050565b600060208201905081810360008301526139998161395d565b9050919050565b7f54617267657420616d6f756e742073686f756c6420626520677265617465722060008201527f7468616e20300000000000000000000000000000000000000000000000000000602082015250565b60006139fc602683612a2e565b9150613a07826139a0565b604082019050919050565b60006020820190508181036000830152613a2b816139ef565b9050919050565b82818337600083830152505050565b6000613a4d8385612a2e565b9350613a5a838584613a32565b613a6383612a72565b840190509392505050565b6000819050919050565b6000819050919050565b6000613a9d613a98613a9384613a6e565b613a78565b6126e7565b9050919050565b613aad81613a82565b82525050565b60006060820190508181036000830152613ace818688613a41565b9050613add6020830185612965565b613aea6040830184613aa4565b9594505050505056fea2646970667358221220bccb51aa1d85c597fb582e9cc292f224c808deb67c623c8514ed00d60f0b042564736f6c634300080b0033",
  "linkReferences": {},
  "deployedLinkReferences": {}
}