{
  "_format": "hh-sol-artifact-1",
  "contractName": "Gift",
  "sourceName": "contracts/Gift.sol",
  "abi": [
    {
      "inputs": [
        {
          "internalType": "contract GiftToken",
          "name": "_token",
          "type": "address"
        }
      ],
      "stateMutability": "nonpayable",
      "type": "constructor"
    },
    {
      "anonymous": false,
      "inputs": [
        {
          "indexed": true,
          "internalType": "address",
          "name": "creator",
          "type": "address"
        },
        {
          "indexed": false,
          "internalType": "string",
          "name": "title",
          "type": "string"
        },
        {
          "indexed": false,
          "internalType": "string",
          "name": "description",
          "type": "string"
        },
        {
          "indexed": false,
          "internalType": "uint256",
          "name": "targetAmount",
          "type": "uint256"
        },
        {
          "indexed": false,
          "internalType": "uint256",
          "name": "collectedAmount",
          "type": "uint256"
        },
        {
          "indexed": false,
          "internalType": "string",
          "name": "image",
          "type": "string"
        },
        {
          "indexed": false,
          "internalType": "string",
          "name": "externalLink",
          "type": "string"
        }
      ],
      "name": "CampaignCreated",
      "type": "event"
    },
    {
      "inputs": [
        {
          "internalType": "string",
          "name": "_title",
          "type": "string"
        },
        {
          "internalType": "string",
          "name": "_description",
          "type": "string"
        },
        {
          "internalType": "uint256",
          "name": "_targetAmount",
          "type": "uint256"
        },
        {
          "internalType": "string",
          "name": "_image",
          "type": "string"
        },
        {
          "internalType": "string",
          "name": "_externalLink",
          "type": "string"
        }
      ],
      "name": "createCampaign",
      "outputs": [],
      "stateMutability": "nonpayable",
      "type": "function"
    },
    {
      "inputs": [
        {
          "internalType": "address",
          "name": "_creator",
          "type": "address"
        },
        {
          "internalType": "uint256",
          "name": "index",
          "type": "uint256"
        }
      ],
      "name": "getCampaign",
      "outputs": [
        {
          "components": [
            {
              "internalType": "string",
              "name": "title",
              "type": "string"
            },
            {
              "internalType": "string",
              "name": "description",
              "type": "string"
            },
            {
              "internalType": "uint256",
              "name": "targetAmount",
              "type": "uint256"
            },
            {
              "internalType": "uint256",
              "name": "collectedAmount",
              "type": "uint256"
            },
            {
              "internalType": "string",
              "name": "image",
              "type": "string"
            },
            {
              "internalType": "string",
              "name": "externalLink",
              "type": "string"
            }
          ],
          "internalType": "struct Gift.Campaign",
          "name": "",
          "type": "tuple"
        }
      ],
      "stateMutability": "view",
      "type": "function"
    },
    {
      "inputs": [
        {
          "internalType": "address",
          "name": "_creator",
          "type": "address"
        }
      ],
      "name": "getCampaignsByCreator",
      "outputs": [
        {
          "components": [
            {
              "internalType": "string",
              "name": "title",
              "type": "string"
            },
            {
              "internalType": "string",
              "name": "description",
              "type": "string"
            },
            {
              "internalType": "uint256",
              "name": "targetAmount",
              "type": "uint256"
            },
            {
              "internalType": "uint256",
              "name": "collectedAmount",
              "type": "uint256"
            },
            {
              "internalType": "string",
              "name": "image",
              "type": "string"
            },
            {
              "internalType": "string",
              "name": "externalLink",
              "type": "string"
            }
          ],
          "internalType": "struct Gift.Campaign[]",
          "name": "",
          "type": "tuple[]"
        }
      ],
      "stateMutability": "view",
      "type": "function"
    },
    {
      "inputs": [
        {
          "internalType": "address",
          "name": "_creator",
          "type": "address"
        },
        {
          "internalType": "uint256",
          "name": "index",
          "type": "uint256"
        }
      ],
      "name": "gift",
      "outputs": [],
      "stateMutability": "payable",
      "type": "function"
    }
  ],
  "bytecode": "0x60806040523480156200001157600080fd5b5060405162001fe338038062001fe38339818101604052810190620000379190620000fd565b80600160006101000a81548173ffffffffffffffffffffffffffffffffffffffff021916908373ffffffffffffffffffffffffffffffffffffffff160217905550506200012f565b600080fd5b600073ffffffffffffffffffffffffffffffffffffffff82169050919050565b6000620000b18262000084565b9050919050565b6000620000c582620000a4565b9050919050565b620000d781620000b8565b8114620000e357600080fd5b50565b600081519050620000f781620000cc565b92915050565b6000602082840312156200011657620001156200007f565b5b60006200012684828501620000e6565b91505092915050565b611ea4806200013f6000396000f3fe60806040526004361061003f5760003560e01c8063a076913e14610044578063b08328b41461006d578063cbce4c97146100aa578063d5b8d84a146100c6575b600080fd5b34801561005057600080fd5b5061006b6004803603810190610066919061136a565b610103565b005b34801561007957600080fd5b50610094600480360381019061008f91906114c4565b6103e7565b6040516100a1919061164a565b60405180910390f35b6100c460048036038101906100bf91906114c4565b6107c4565b005b3480156100d257600080fd5b506100ed60048036038101906100e8919061166c565b610ef3565b6040516100fa91906117f9565b60405180910390f35b60008511610146576040517f08c379a000000000000000000000000000000000000000000000000000000000815260040161013d9061189e565b60405180910390fd5b60006040518060c001604052808b8b8080601f016020809104026020016040519081016040528093929190818152602001838380828437600081840152601f19601f82011690508083019250505050505050815260200189898080601f016020809104026020016040519081016040528093929190818152602001838380828437600081840152601f19601f8201169050808301925050505050505081526020018781526020016000815260200186868080601f016020809104026020016040519081016040528093929190818152602001838380828437600081840152601f19601f82011690508083019250505050505050815260200184848080601f016020809104026020016040519081016040528093929190818152602001838380828437600081840152601f19601f8201169050808301925050505050505081525090506000803373ffffffffffffffffffffffffffffffffffffffff1673ffffffffffffffffffffffffffffffffffffffff168152602001908152602001600020819080600181540180825580915050600190039060005260206000209060060201600090919091909150600082015181600001908051906020019061030c9291906111ec565b5060208201518160010190805190602001906103299291906111ec565b506040820151816002015560608201518160030155608082015181600401908051906020019061035a9291906111ec565b5060a08201518160050190805190602001906103779291906111ec565b5050503373ffffffffffffffffffffffffffffffffffffffff167f34e80b05a0a3efd9887eda706c4d48c03b8b01a72e44d1ea8e301657e71326448b8b8b8b8b60008c8c8c8c6040516103d39a9998979695949392919061194e565b60405180910390a250505050505050505050565b6103ef611272565b60008060008573ffffffffffffffffffffffffffffffffffffffff1673ffffffffffffffffffffffffffffffffffffffff168152602001908152602001600020805490501415610474576040517f08c379a000000000000000000000000000000000000000000000000000000000815260040161046b90611a1f565b60405180910390fd5b6000808473ffffffffffffffffffffffffffffffffffffffff1673ffffffffffffffffffffffffffffffffffffffff1681526020019081526020016000208054905082106104f7576040517f08c379a00000000000000000000000000000000000000000000000000000000081526004016104ee90611a8b565b60405180910390fd5b6000808473ffffffffffffffffffffffffffffffffffffffff1673ffffffffffffffffffffffffffffffffffffffff168152602001908152602001600020828154811061054757610546611aab565b5b90600052602060002090600602016040518060c001604052908160008201805461057090611b09565b80601f016020809104026020016040519081016040528092919081815260200182805461059c90611b09565b80156105e95780601f106105be576101008083540402835291602001916105e9565b820191906000526020600020905b8154815290600101906020018083116105cc57829003601f168201915b5050505050815260200160018201805461060290611b09565b80601f016020809104026020016040519081016040528092919081815260200182805461062e90611b09565b801561067b5780601f106106505761010080835404028352916020019161067b565b820191906000526020600020905b81548152906001019060200180831161065e57829003601f168201915b5050505050815260200160028201548152602001600382015481526020016004820180546106a890611b09565b80601f01602080910402602001604051908101604052809291908181526020018280546106d490611b09565b80156107215780601f106106f657610100808354040283529160200191610721565b820191906000526020600020905b81548152906001019060200180831161070457829003601f168201915b5050505050815260200160058201805461073a90611b09565b80601f016020809104026020016040519081016040528092919081815260200182805461076690611b09565b80156107b35780601f10610788576101008083540402835291602001916107b3565b820191906000526020600020905b81548152906001019060200180831161079657829003601f168201915b505050505081525050905092915050565b8173ffffffffffffffffffffffffffffffffffffffff163373ffffffffffffffffffffffffffffffffffffffff161415610833576040517f08c379a000000000000000000000000000000000000000000000000000000000815260040161082a90611b87565b60405180910390fd5b60008060008473ffffffffffffffffffffffffffffffffffffffff1673ffffffffffffffffffffffffffffffffffffffff1681526020019081526020016000208054905014156108b8576040517f08c379a00000000000000000000000000000000000000000000000000000000081526004016108af90611a1f565b60405180910390fd5b6000808373ffffffffffffffffffffffffffffffffffffffff1673ffffffffffffffffffffffffffffffffffffffff16815260200190815260200160002080549050811061093b576040517f08c379a000000000000000000000000000000000000000000000000000000000815260040161093290611a8b565b60405180910390fd5b60008060008473ffffffffffffffffffffffffffffffffffffffff1673ffffffffffffffffffffffffffffffffffffffff168152602001908152602001600020828154811061098d5761098c611aab565b5b90600052602060002090600602016040518060c00160405290816000820180546109b690611b09565b80601f01602080910402602001604051908101604052809291908181526020018280546109e290611b09565b8015610a2f5780601f10610a0457610100808354040283529160200191610a2f565b820191906000526020600020905b815481529060010190602001808311610a1257829003601f168201915b50505050508152602001600182018054610a4890611b09565b80601f0160208091040260200160405190810160405280929190818152602001828054610a7490611b09565b8015610ac15780601f10610a9657610100808354040283529160200191610ac1565b820191906000526020600020905b815481529060010190602001808311610aa457829003601f168201915b505050505081526020016002820154815260200160038201548152602001600482018054610aee90611b09565b80601f0160208091040260200160405190810160405280929190818152602001828054610b1a90611b09565b8015610b675780601f10610b3c57610100808354040283529160200191610b67565b820191906000526020600020905b815481529060010190602001808311610b4a57829003601f168201915b50505050508152602001600582018054610b8090611b09565b80601f0160208091040260200160405190810160405280929190818152602001828054610bac90611b09565b8015610bf95780601f10610bce57610100808354040283529160200191610bf9565b820191906000526020600020905b815481529060010190602001808311610bdc57829003601f168201915b50505050508152505090508060400151348260600151610c199190611bd6565b10610c59576040517f08c379a0000000000000000000000000000000000000000000000000000000008152600401610c5090611c9e565b60405180910390fd5b80606001518160400151610c6d9190611cbe565b341115610caf576040517f08c379a0000000000000000000000000000000000000000000000000000000008152600401610ca690611d64565b60405180910390fd5b60008373ffffffffffffffffffffffffffffffffffffffff1634604051610cd590611db5565b60006040518083038185875af1925050503d8060008114610d12576040519150601f19603f3d011682016040523d82523d6000602084013e610d17565b606091505b5050905080610d5b576040517f08c379a0000000000000000000000000000000000000000000000000000000008152600401610d5290611e16565b60405180910390fd5b3482606001818151610d6d9190611bd6565b91508181525050816000808673ffffffffffffffffffffffffffffffffffffffff1673ffffffffffffffffffffffffffffffffffffffff1681526020019081526020016000208481548110610dc557610dc4611aab565b5b90600052602060002090600602016000820151816000019080519060200190610def9291906111ec565b506020820151816001019080519060200190610e0c9291906111ec565b5060408201518160020155606082015181600301556080820151816004019080519060200190610e3d9291906111ec565b5060a0820151816005019080519060200190610e5a9291906111ec565b50905050600160009054906101000a900473ffffffffffffffffffffffffffffffffffffffff1673ffffffffffffffffffffffffffffffffffffffff166340c10f1933346040518363ffffffff1660e01b8152600401610ebb929190611e45565b600060405180830381600087803b158015610ed557600080fd5b505af1158015610ee9573d6000803e3d6000fd5b5050505050505050565b60606000808373ffffffffffffffffffffffffffffffffffffffff1673ffffffffffffffffffffffffffffffffffffffff168152602001908152602001600020805480602002602001604051908101604052809291908181526020016000905b828210156111e157838290600052602060002090600602016040518060c0016040529081600082018054610f8690611b09565b80601f0160208091040260200160405190810160405280929190818152602001828054610fb290611b09565b8015610fff5780601f10610fd457610100808354040283529160200191610fff565b820191906000526020600020905b815481529060010190602001808311610fe257829003601f168201915b5050505050815260200160018201805461101890611b09565b80601f016020809104026020016040519081016040528092919081815260200182805461104490611b09565b80156110915780601f1061106657610100808354040283529160200191611091565b820191906000526020600020905b81548152906001019060200180831161107457829003601f168201915b5050505050815260200160028201548152602001600382015481526020016004820180546110be90611b09565b80601f01602080910402602001604051908101604052809291908181526020018280546110ea90611b09565b80156111375780601f1061110c57610100808354040283529160200191611137565b820191906000526020600020905b81548152906001019060200180831161111a57829003601f168201915b5050505050815260200160058201805461115090611b09565b80601f016020809104026020016040519081016040528092919081815260200182805461117c90611b09565b80156111c95780601f1061119e576101008083540402835291602001916111c9565b820191906000526020600020905b8154815290600101906020018083116111ac57829003601f168201915b50505050508152505081526020019060010190610f53565b505050509050919050565b8280546111f890611b09565b90600052602060002090601f01602090048101928261121a5760008555611261565b82601f1061123357805160ff1916838001178555611261565b82800160010185558215611261579182015b82811115611260578251825591602001919060010190611245565b5b50905061126e91906112a8565b5090565b6040518060c001604052806060815260200160608152602001600081526020016000815260200160608152602001606081525090565b5b808211156112c15760008160009055506001016112a9565b5090565b600080fd5b600080fd5b600080fd5b600080fd5b600080fd5b60008083601f8401126112f4576112f36112cf565b5b8235905067ffffffffffffffff811115611311576113106112d4565b5b60208301915083600182028301111561132d5761132c6112d9565b5b9250929050565b6000819050919050565b61134781611334565b811461135257600080fd5b50565b6000813590506113648161133e565b92915050565b600080600080600080600080600060a08a8c03121561138c5761138b6112c5565b5b60008a013567ffffffffffffffff8111156113aa576113a96112ca565b5b6113b68c828d016112de565b995099505060208a013567ffffffffffffffff8111156113d9576113d86112ca565b5b6113e58c828d016112de565b975097505060406113f88c828d01611355565b95505060608a013567ffffffffffffffff811115611419576114186112ca565b5b6114258c828d016112de565b945094505060808a013567ffffffffffffffff811115611448576114476112ca565b5b6114548c828d016112de565b92509250509295985092959850929598565b600073ffffffffffffffffffffffffffffffffffffffff82169050919050565b600061149182611466565b9050919050565b6114a181611486565b81146114ac57600080fd5b50565b6000813590506114be81611498565b92915050565b600080604083850312156114db576114da6112c5565b5b60006114e9858286016114af565b92505060206114fa85828601611355565b9150509250929050565b600081519050919050565b600082825260208201905092915050565b60005b8381101561153e578082015181840152602081019050611523565b8381111561154d576000848401525b50505050565b6000601f19601f8301169050919050565b600061156f82611504565b611579818561150f565b9350611589818560208601611520565b61159281611553565b840191505092915050565b6115a681611334565b82525050565b600060c08301600083015184820360008601526115c98282611564565b915050602083015184820360208601526115e38282611564565b91505060408301516115f8604086018261159d565b50606083015161160b606086018261159d565b50608083015184820360808601526116238282611564565b91505060a083015184820360a086015261163d8282611564565b9150508091505092915050565b6000602082019050818103600083015261166481846115ac565b905092915050565b600060208284031215611682576116816112c5565b5b6000611690848285016114af565b91505092915050565b600081519050919050565b600082825260208201905092915050565b6000819050602082019050919050565b600060c08301600083015184820360008601526116e28282611564565b915050602083015184820360208601526116fc8282611564565b9150506040830151611711604086018261159d565b506060830151611724606086018261159d565b506080830151848203608086015261173c8282611564565b91505060a083015184820360a08601526117568282611564565b9150508091505092915050565b600061176f83836116c5565b905092915050565b6000602082019050919050565b600061178f82611699565b61179981856116a4565b9350836020820285016117ab856116b5565b8060005b858110156117e757848403895281516117c88582611763565b94506117d383611777565b925060208a019950506001810190506117af565b50829750879550505050505092915050565b600060208201905081810360008301526118138184611784565b905092915050565b600082825260208201905092915050565b7f54617267657420616d6f756e742073686f756c6420626520677265617465722060008201527f7468616e20300000000000000000000000000000000000000000000000000000602082015250565b600061188860268361181b565b91506118938261182c565b604082019050919050565b600060208201905081810360008301526118b78161187b565b9050919050565b82818337600083830152505050565b60006118d9838561181b565b93506118e68385846118be565b6118ef83611553565b840190509392505050565b61190381611334565b82525050565b6000819050919050565b6000819050919050565b600061193861193361192e84611909565b611913565b611334565b9050919050565b6119488161191d565b82525050565b600060c0820190508181036000830152611969818c8e6118cd565b9050818103602083015261197e818a8c6118cd565b905061198d60408301896118fa565b61199a606083018861193f565b81810360808301526119ad8186886118cd565b905081810360a08301526119c28184866118cd565b90509b9a5050505050505050505050565b7f4e6f2063616d706169676e7320666f756e640000000000000000000000000000600082015250565b6000611a0960128361181b565b9150611a14826119d3565b602082019050919050565b60006020820190508181036000830152611a38816119fc565b9050919050565b7f496e646578206f7574206f6620626f756e647300000000000000000000000000600082015250565b6000611a7560138361181b565b9150611a8082611a3f565b602082019050919050565b60006020820190508181036000830152611aa481611a68565b9050919050565b7f4e487b7100000000000000000000000000000000000000000000000000000000600052603260045260246000fd5b7f4e487b7100000000000000000000000000000000000000000000000000000000600052602260045260246000fd5b60006002820490506001821680611b2157607f821691505b60208210811415611b3557611b34611ada565b5b50919050565b7f596f752063616e6e6f74206769667420746f20796f757273656c660000000000600082015250565b6000611b71601b8361181b565b9150611b7c82611b3b565b602082019050919050565b60006020820190508181036000830152611ba081611b64565b9050919050565b7f4e487b7100000000000000000000000000000000000000000000000000000000600052601160045260246000fd5b6000611be182611334565b9150611bec83611334565b9250827fffffffffffffffffffffffffffffffffffffffffffffffffffffffffffffffff03821115611c2157611c20611ba7565b5b828201905092915050565b7f43616d706169676e20697320616c72656164792072656163686564206974277360008201527f2074617267657420616d6f756e742e0000000000000000000000000000000000602082015250565b6000611c88602f8361181b565b9150611c9382611c2c565b604082019050919050565b60006020820190508181036000830152611cb781611c7b565b9050919050565b6000611cc982611334565b9150611cd483611334565b925082821015611ce757611ce6611ba7565b5b828203905092915050565b7f446f6e6174696f6e206973206c6172676572207468616e207468652072656d6160008201527f696e696e672074617267657420616d6f756e742e000000000000000000000000602082015250565b6000611d4e60348361181b565b9150611d5982611cf2565b604082019050919050565b60006020820190508181036000830152611d7d81611d41565b9050919050565b600081905092915050565b50565b6000611d9f600083611d84565b9150611daa82611d8f565b600082019050919050565b6000611dc082611d92565b9150819050919050565b7f4661696c656420746f207472616e73666572206769667420616d6f756e740000600082015250565b6000611e00601e8361181b565b9150611e0b82611dca565b602082019050919050565b60006020820190508181036000830152611e2f81611df3565b9050919050565b611e3f81611486565b82525050565b6000604082019050611e5a6000830185611e36565b611e6760208301846118fa565b939250505056fea264697066735822122095ce0dc3fc22be8d1d7d604903cb58b3a6da65be671a2ef93bd7a1fd081c908b64736f6c634300080b0033",
  "linkReferences": {},
  "deployedLinkReferences": {}
}