{
  "_format": "hh-sol-artifact-1",
  "contractName": "Gift",
  "sourceName": "contracts/Gift.sol",
  "abi": [
    {
      "inputs": [
        {
          "internalType": "contract GiftToken",
          "name": "_token",
          "type": "address"
        }
      ],
      "stateMutability": "nonpayable",
      "type": "constructor"
    },
    {
      "anonymous": false,
      "inputs": [
        {
          "indexed": true,
          "internalType": "address",
          "name": "creator",
          "type": "address"
        },
        {
          "indexed": false,
          "internalType": "string",
          "name": "title",
          "type": "string"
        },
        {
          "indexed": false,
          "internalType": "string",
          "name": "description",
          "type": "string"
        },
        {
          "indexed": false,
          "internalType": "uint256",
          "name": "targetAmount",
          "type": "uint256"
        },
        {
          "indexed": false,
          "internalType": "uint256",
          "name": "collectedAmount",
          "type": "uint256"
        },
        {
          "indexed": false,
          "internalType": "string",
          "name": "image",
          "type": "string"
        },
        {
          "indexed": false,
          "internalType": "string",
          "name": "externalLink",
          "type": "string"
        }
      ],
      "name": "CampaignCreated",
      "type": "event"
    },
    {
      "inputs": [
        {
          "internalType": "uint256",
          "name": "_index",
          "type": "uint256"
        }
      ],
      "name": "buyNFT",
      "outputs": [],
      "stateMutability": "payable",
      "type": "function"
    },
    {
      "inputs": [
        {
          "internalType": "uint256",
          "name": "_index",
          "type": "uint256"
        }
      ],
      "name": "claimBackNFT",
      "outputs": [],
      "stateMutability": "payable",
      "type": "function"
    },
    {
      "inputs": [
        {
          "internalType": "string",
          "name": "_title",
          "type": "string"
        },
        {
          "internalType": "string",
          "name": "_description",
          "type": "string"
        },
        {
          "internalType": "uint256",
          "name": "_targetAmount",
          "type": "uint256"
        },
        {
          "internalType": "string",
          "name": "_image",
          "type": "string"
        },
        {
          "internalType": "string",
          "name": "_externalLink",
          "type": "string"
        }
      ],
      "name": "createCampaign",
      "outputs": [],
      "stateMutability": "nonpayable",
      "type": "function"
    },
    {
      "inputs": [
        {
          "internalType": "address",
          "name": "_nftContractAddress",
          "type": "address"
        },
        {
          "internalType": "uint256",
          "name": "_tokenId",
          "type": "uint256"
        },
        {
          "internalType": "uint256",
          "name": "_price",
          "type": "uint256"
        },
        {
          "internalType": "address",
          "name": "_campaignCreator",
          "type": "address"
        },
        {
          "internalType": "uint256",
          "name": "_campaignIndex",
          "type": "uint256"
        }
      ],
      "name": "donateNFT",
      "outputs": [],
      "stateMutability": "payable",
      "type": "function"
    },
    {
      "inputs": [
        {
          "internalType": "address",
          "name": "_creator",
          "type": "address"
        },
        {
          "internalType": "uint256",
          "name": "index",
          "type": "uint256"
        }
      ],
      "name": "getCampaign",
      "outputs": [
        {
          "components": [
            {
              "internalType": "string",
              "name": "title",
              "type": "string"
            },
            {
              "internalType": "string",
              "name": "description",
              "type": "string"
            },
            {
              "internalType": "uint256",
              "name": "targetAmount",
              "type": "uint256"
            },
            {
              "internalType": "uint256",
              "name": "collectedAmount",
              "type": "uint256"
            },
            {
              "internalType": "string",
              "name": "image",
              "type": "string"
            },
            {
              "internalType": "string",
              "name": "externalLink",
              "type": "string"
            }
          ],
          "internalType": "struct Gift.Campaign",
          "name": "",
          "type": "tuple"
        }
      ],
      "stateMutability": "view",
      "type": "function"
    },
    {
      "inputs": [
        {
          "internalType": "address",
          "name": "_creator",
          "type": "address"
        }
      ],
      "name": "getCampaignsByCreator",
      "outputs": [
        {
          "components": [
            {
              "internalType": "string",
              "name": "title",
              "type": "string"
            },
            {
              "internalType": "string",
              "name": "description",
              "type": "string"
            },
            {
              "internalType": "uint256",
              "name": "targetAmount",
              "type": "uint256"
            },
            {
              "internalType": "uint256",
              "name": "collectedAmount",
              "type": "uint256"
            },
            {
              "internalType": "string",
              "name": "image",
              "type": "string"
            },
            {
              "internalType": "string",
              "name": "externalLink",
              "type": "string"
            }
          ],
          "internalType": "struct Gift.Campaign[]",
          "name": "",
          "type": "tuple[]"
        }
      ],
      "stateMutability": "view",
      "type": "function"
    },
    {
      "inputs": [
        {
          "internalType": "address",
          "name": "_contract",
          "type": "address"
        },
        {
          "internalType": "uint256",
          "name": "_tokenId",
          "type": "uint256"
        }
      ],
      "name": "getNFTMetadata",
      "outputs": [
        {
          "internalType": "string",
          "name": "",
          "type": "string"
        }
      ],
      "stateMutability": "view",
      "type": "function"
    },
    {
      "inputs": [],
      "name": "getNftGifts",
      "outputs": [
        {
          "components": [
            {
              "internalType": "enum Gift.NFTGiftState",
              "name": "status",
              "type": "uint8"
            },
            {
              "internalType": "address",
              "name": "contractAddress",
              "type": "address"
            },
            {
              "internalType": "uint256",
              "name": "tokenId",
              "type": "uint256"
            },
            {
              "internalType": "address",
              "name": "prevOwner",
              "type": "address"
            },
            {
              "internalType": "uint256",
              "name": "price",
              "type": "uint256"
            },
            {
              "internalType": "address",
              "name": "campaignCreator",
              "type": "address"
            },
            {
              "internalType": "uint256",
              "name": "campaignId",
              "type": "uint256"
            }
          ],
          "internalType": "struct Gift.NFTGift[]",
          "name": "",
          "type": "tuple[]"
        }
      ],
      "stateMutability": "view",
      "type": "function"
    },
    {
      "inputs": [
        {
          "internalType": "address",
          "name": "_creator",
          "type": "address"
        },
        {
          "internalType": "uint256",
          "name": "index",
          "type": "uint256"
        }
      ],
      "name": "gift",
      "outputs": [],
      "stateMutability": "payable",
      "type": "function"
    },
    {
      "inputs": [
        {
          "internalType": "uint256",
          "name": "",
          "type": "uint256"
        }
      ],
      "name": "nftGifts",
      "outputs": [
        {
          "internalType": "enum Gift.NFTGiftState",
          "name": "status",
          "type": "uint8"
        },
        {
          "internalType": "address",
          "name": "contractAddress",
          "type": "address"
        },
        {
          "internalType": "uint256",
          "name": "tokenId",
          "type": "uint256"
        },
        {
          "internalType": "address",
          "name": "prevOwner",
          "type": "address"
        },
        {
          "internalType": "uint256",
          "name": "price",
          "type": "uint256"
        },
        {
          "internalType": "address",
          "name": "campaignCreator",
          "type": "address"
        },
        {
          "internalType": "uint256",
          "name": "campaignId",
          "type": "uint256"
        }
      ],
      "stateMutability": "view",
      "type": "function"
    },
    {
      "inputs": [
        {
          "internalType": "uint256",
          "name": "_nftIndex",
          "type": "uint256"
        }
      ],
      "name": "revokeNFtGift",
      "outputs": [],
      "stateMutability": "nonpayable",
      "type": "function"
    }
  ],
  "bytecode": "0x60806040523480156200001157600080fd5b506040516200487d3803806200487d8339818101604052810190620000379190620000fd565b80600260006101000a81548173ffffffffffffffffffffffffffffffffffffffff021916908373ffffffffffffffffffffffffffffffffffffffff160217905550506200012f565b600080fd5b600073ffffffffffffffffffffffffffffffffffffffff82169050919050565b6000620000b18262000084565b9050919050565b6000620000c582620000a4565b9050919050565b620000d781620000b8565b8114620000e357600080fd5b50565b600081519050620000f781620000cc565b92915050565b6000602082840312156200011657620001156200007f565b5b60006200012684828501620000e6565b91505092915050565b61473e806200013f6000396000f3fe60806040526004361061009b5760003560e01c806388cd69711161006457806388cd697114610148578063a076913e1461018b578063a838e43b146101b4578063b08328b4146101f1578063cbce4c971461022e578063d5b8d84a1461024a5761009b565b80623a4772146100a057806309a81929146100cb578063247ca62a146100f457806351ed828814610110578063873e58db1461012c575b600080fd5b3480156100ac57600080fd5b506100b5610287565b6040516100c291906132a9565b60405180910390f35b3480156100d757600080fd5b506100f260048036038101906100ed919061330b565b610441565b005b61010e6004803603810190610109919061330b565b610703565b005b61012a6004803603810190610125919061330b565b610bb1565b005b61014660048036038101906101419190613364565b611573565b005b34801561015457600080fd5b5061016f600480360381019061016a919061330b565b611d82565b604051610182979695949392919061340c565b60405180910390f35b34801561019757600080fd5b506101b260048036038101906101ad91906134e0565b611e41565b005b3480156101c057600080fd5b506101db60048036038101906101d691906135dc565b612126565b6040516101e891906136b5565b60405180910390f35b3480156101fd57600080fd5b50610218600480360381019061021391906135dc565b6121b5565b60405161022591906137bf565b60405180910390f35b610248600480360381019061024391906135dc565b612595565b005b34801561025657600080fd5b50610271600480360381019061026c91906137e1565b612cc8565b60405161027e919061396e565b60405180910390f35b60606000805480602002602001604051908101604052809291908181526020016000905b8282101561043857838290600052602060002090600602016040518060e00160405290816000820160009054906101000a900460ff1660028111156102f3576102f26130c7565b5b6002811115610305576103046130c7565b5b81526020016000820160019054906101000a900473ffffffffffffffffffffffffffffffffffffffff1673ffffffffffffffffffffffffffffffffffffffff1673ffffffffffffffffffffffffffffffffffffffff168152602001600182015481526020016002820160009054906101000a900473ffffffffffffffffffffffffffffffffffffffff1673ffffffffffffffffffffffffffffffffffffffff1673ffffffffffffffffffffffffffffffffffffffff168152602001600382015481526020016004820160009054906101000a900473ffffffffffffffffffffffffffffffffffffffff1673ffffffffffffffffffffffffffffffffffffffff1673ffffffffffffffffffffffffffffffffffffffff168152602001600582015481525050815260200190600101906102ab565b50505050905090565b6000805490508110610488576040517f08c379a000000000000000000000000000000000000000000000000000000000815260040161047f906139dc565b60405180910390fd5b6000818154811061049c5761049b6139fc565b5b906000526020600020906006020160020160009054906101000a900473ffffffffffffffffffffffffffffffffffffffff1673ffffffffffffffffffffffffffffffffffffffff163373ffffffffffffffffffffffffffffffffffffffff161461053b576040517f08c379a000000000000000000000000000000000000000000000000000000000815260040161053290613a9d565b60405180910390fd5b6000600281111561054f5761054e6130c7565b5b60008281548110610563576105626139fc565b5b906000526020600020906006020160000160009054906101000a900460ff166002811115610594576105936130c7565b5b146105d4576040517f08c379a00000000000000000000000000000000000000000000000000000000081526004016105cb90613b2f565b60405180910390fd5b60008082815481106105e9576105e86139fc565b5b906000526020600020906006020160000160019054906101000a900473ffffffffffffffffffffffffffffffffffffffff1690508073ffffffffffffffffffffffffffffffffffffffff166323b872dd30336000868154811061064f5761064e6139fc565b5b9060005260206000209060060201600101546040518463ffffffff1660e01b815260040161067f93929190613b4f565b600060405180830381600087803b15801561069957600080fd5b505af11580156106ad573d6000803e3d6000fd5b505050506001600083815481106106c7576106c66139fc565b5b906000526020600020906006020160000160006101000a81548160ff021916908360028111156106fa576106f96130c7565b5b02179055505050565b600080549050811061074a576040517f08c379a000000000000000000000000000000000000000000000000000000000815260040161074190613bd2565b60405180910390fd5b600080828154811061075f5761075e6139fc565b5b90600052602060002090600602016040518060e00160405290816000820160009054906101000a900460ff16600281111561079d5761079c6130c7565b5b60028111156107af576107ae6130c7565b5b81526020016000820160019054906101000a900473ffffffffffffffffffffffffffffffffffffffff1673ffffffffffffffffffffffffffffffffffffffff1673ffffffffffffffffffffffffffffffffffffffff168152602001600182015481526020016002820160009054906101000a900473ffffffffffffffffffffffffffffffffffffffff1673ffffffffffffffffffffffffffffffffffffffff1673ffffffffffffffffffffffffffffffffffffffff168152602001600382015481526020016004820160009054906101000a900473ffffffffffffffffffffffffffffffffffffffff1673ffffffffffffffffffffffffffffffffffffffff1673ffffffffffffffffffffffffffffffffffffffff16815260200160058201548152505090503373ffffffffffffffffffffffffffffffffffffffff16816060015173ffffffffffffffffffffffffffffffffffffffff1614610947576040517f08c379a000000000000000000000000000000000000000000000000000000000815260040161093e90613c64565b60405180910390fd5b60028081111561095a576109596130c7565b5b81600001516002811115610971576109706130c7565b5b14156109b2576040517f08c379a00000000000000000000000000000000000000000000000000000000081526004016109a990613cd0565b60405180910390fd5b6000816020015190508073ffffffffffffffffffffffffffffffffffffffff166323b872dd30846060015185604001516040518463ffffffff1660e01b8152600401610a0093929190613b4f565b600060405180830381600087803b158015610a1a57600080fd5b505af1158015610a2e573d6000803e3d6000fd5b50505050600182600001906002811115610a4b57610a4a6130c7565b5b90816002811115610a5f57610a5e6130c7565b5b815250508160008481548110610a7857610a776139fc565b5b906000526020600020906006020160008201518160000160006101000a81548160ff02191690836002811115610ab157610ab06130c7565b5b021790555060208201518160000160016101000a81548173ffffffffffffffffffffffffffffffffffffffff021916908373ffffffffffffffffffffffffffffffffffffffff1602179055506040820151816001015560608201518160020160006101000a81548173ffffffffffffffffffffffffffffffffffffffff021916908373ffffffffffffffffffffffffffffffffffffffff1602179055506080820151816003015560a08201518160040160006101000a81548173ffffffffffffffffffffffffffffffffffffffff021916908373ffffffffffffffffffffffffffffffffffffffff16021790555060c08201518160050155905050505050565b6000805490508110610bf8576040517f08c379a0000000000000000000000000000000000000000000000000000000008152600401610bef90613bd2565b60405180910390fd5b60006002811115610c0c57610c0b6130c7565b5b60008281548110610c2057610c1f6139fc565b5b906000526020600020906006020160000160009054906101000a900460ff166002811115610c5157610c506130c7565b5b14610c91576040517f08c379a0000000000000000000000000000000000000000000000000000000008152600401610c8890613d3c565b60405180910390fd5b3460008281548110610ca657610ca56139fc565b5b9060005260206000209060060201600301541115610cf9576040517f08c379a0000000000000000000000000000000000000000000000000000000008152600401610cf090613da8565b60405180910390fd5b600060016000808481548110610d1257610d116139fc565b5b906000526020600020906006020160040160009054906101000a900473ffffffffffffffffffffffffffffffffffffffff1673ffffffffffffffffffffffffffffffffffffffff1673ffffffffffffffffffffffffffffffffffffffff16815260200190815260200160002060008381548110610d9257610d916139fc565b5b90600052602060002090600602016005015481548110610db557610db46139fc565b5b90600052602060002090600602016040518060c0016040529081600082018054610dde90613df7565b80601f0160208091040260200160405190810160405280929190818152602001828054610e0a90613df7565b8015610e575780601f10610e2c57610100808354040283529160200191610e57565b820191906000526020600020905b815481529060010190602001808311610e3a57829003601f168201915b50505050508152602001600182018054610e7090613df7565b80601f0160208091040260200160405190810160405280929190818152602001828054610e9c90613df7565b8015610ee95780601f10610ebe57610100808354040283529160200191610ee9565b820191906000526020600020905b815481529060010190602001808311610ecc57829003601f168201915b505050505081526020016002820154815260200160038201548152602001600482018054610f1690613df7565b80601f0160208091040260200160405190810160405280929190818152602001828054610f4290613df7565b8015610f8f5780601f10610f6457610100808354040283529160200191610f8f565b820191906000526020600020905b815481529060010190602001808311610f7257829003601f168201915b50505050508152602001600582018054610fa890613df7565b80601f0160208091040260200160405190810160405280929190818152602001828054610fd490613df7565b80156110215780601f10610ff657610100808354040283529160200191611021565b820191906000526020600020905b81548152906001019060200180831161100457829003601f168201915b50505050508152505090508060400151816060015110611076576040517f08c379a000000000000000000000000000000000000000000000000000000000815260040161106d90613e9b565b60405180910390fd5b600080838154811061108b5761108a6139fc565b5b906000526020600020906006020160000160019054906101000a900473ffffffffffffffffffffffffffffffffffffffff1690508073ffffffffffffffffffffffffffffffffffffffff166323b872dd3033600087815481106110f1576110f06139fc565b5b9060005260206000209060060201600101546040518463ffffffff1660e01b815260040161112193929190613b4f565b600060405180830381600087803b15801561113b57600080fd5b505af115801561114f573d6000803e3d6000fd5b505050506000808481548110611168576111676139fc565b5b906000526020600020906006020160040160009054906101000a900473ffffffffffffffffffffffffffffffffffffffff1673ffffffffffffffffffffffffffffffffffffffff16346040516111bd90613eec565b60006040518083038185875af1925050503d80600081146111fa576040519150601f19603f3d011682016040523d82523d6000602084013e6111ff565b606091505b5050905080611243576040517f08c379a000000000000000000000000000000000000000000000000000000000815260040161123a90613f4d565b60405180910390fd5b34836060018181516112559190613f9c565b915081815250508260016000808781548110611274576112736139fc565b5b906000526020600020906006020160040160009054906101000a900473ffffffffffffffffffffffffffffffffffffffff1673ffffffffffffffffffffffffffffffffffffffff1673ffffffffffffffffffffffffffffffffffffffff168152602001908152602001600020600086815481106112f4576112f36139fc565b5b90600052602060002090600602016005015481548110611317576113166139fc565b5b90600052602060002090600602016000820151816000019080519060200190611341929190612fc2565b50602082015181600101908051906020019061135e929190612fc2565b506040820151816002015560608201518160030155608082015181600401908051906020019061138f929190612fc2565b5060a08201518160050190805190602001906113ac929190612fc2565b50905050600260009054906101000a900473ffffffffffffffffffffffffffffffffffffffff1673ffffffffffffffffffffffffffffffffffffffff166340c10f1960008681548110611402576114016139fc565b5b906000526020600020906006020160020160009054906101000a900473ffffffffffffffffffffffffffffffffffffffff16346040518363ffffffff1660e01b8152600401611452929190613ff2565b600060405180830381600087803b15801561146c57600080fd5b505af1158015611480573d6000803e3d6000fd5b50505050600260009054906101000a900473ffffffffffffffffffffffffffffffffffffffff1673ffffffffffffffffffffffffffffffffffffffff166340c10f19336064346114d0919061404a565b6040518363ffffffff1660e01b81526004016114ed929190613ff2565b600060405180830381600087803b15801561150757600080fd5b505af115801561151b573d6000803e3d6000fd5b50505050600260008581548110611535576115346139fc565b5b906000526020600020906006020160000160006101000a81548160ff02191690836002811115611568576115676130c7565b5b021790555050505050565b6000600160008473ffffffffffffffffffffffffffffffffffffffff1673ffffffffffffffffffffffffffffffffffffffff168152602001908152602001600020805490501415806116065750600160008373ffffffffffffffffffffffffffffffffffffffff1673ffffffffffffffffffffffffffffffffffffffff1681526020019081526020016000208054905081105b611645576040517f08c379a000000000000000000000000000000000000000000000000000000000815260040161163c906140c7565b60405180910390fd5b6000600160008473ffffffffffffffffffffffffffffffffffffffff1673ffffffffffffffffffffffffffffffffffffffff1681526020019081526020016000208281548110611698576116976139fc565b5b90600052602060002090600602016040518060c00160405290816000820180546116c190613df7565b80601f01602080910402602001604051908101604052809291908181526020018280546116ed90613df7565b801561173a5780601f1061170f5761010080835404028352916020019161173a565b820191906000526020600020905b81548152906001019060200180831161171d57829003601f168201915b5050505050815260200160018201805461175390613df7565b80601f016020809104026020016040519081016040528092919081815260200182805461177f90613df7565b80156117cc5780601f106117a1576101008083540402835291602001916117cc565b820191906000526020600020905b8154815290600101906020018083116117af57829003601f168201915b5050505050815260200160028201548152602001600382015481526020016004820180546117f990613df7565b80601f016020809104026020016040519081016040528092919081815260200182805461182590613df7565b80156118725780601f1061184757610100808354040283529160200191611872565b820191906000526020600020905b81548152906001019060200180831161185557829003601f168201915b5050505050815260200160058201805461188b90613df7565b80601f01602080910402602001604051908101604052809291908181526020018280546118b790613df7565b80156119045780601f106118d957610100808354040283529160200191611904565b820191906000526020600020905b8154815290600101906020018083116118e757829003601f168201915b50505050508152505090508060400151816060015110611959576040517f08c379a000000000000000000000000000000000000000000000000000000000815260040161195090613e9b565b60405180910390fd5b60008690503373ffffffffffffffffffffffffffffffffffffffff168173ffffffffffffffffffffffffffffffffffffffff16636352211e886040518263ffffffff1660e01b81526004016119ae91906140e7565b602060405180830381865afa1580156119cb573d6000803e3d6000fd5b505050506040513d601f19601f820116820180604052508101906119ef9190614117565b73ffffffffffffffffffffffffffffffffffffffff1614611a45576040517f08c379a0000000000000000000000000000000000000000000000000000000008152600401611a3c906141b6565b60405180910390fd5b3073ffffffffffffffffffffffffffffffffffffffff168173ffffffffffffffffffffffffffffffffffffffff1663081812fc886040518263ffffffff1660e01b8152600401611a9591906140e7565b602060405180830381865afa158015611ab2573d6000803e3d6000fd5b505050506040513d601f19601f82011682018060405250810190611ad69190614117565b73ffffffffffffffffffffffffffffffffffffffff1614611b2c576040517f08c379a0000000000000000000000000000000000000000000000000000000008152600401611b2390614248565b60405180910390fd5b8073ffffffffffffffffffffffffffffffffffffffff166323b872dd3330896040518463ffffffff1660e01b8152600401611b6993929190613b4f565b600060405180830381600087803b158015611b8357600080fd5b505af1158015611b97573d6000803e3d6000fd5b5050505060006040518060e0016040528060006002811115611bbc57611bbb6130c7565b5b81526020018973ffffffffffffffffffffffffffffffffffffffff1681526020018881526020013373ffffffffffffffffffffffffffffffffffffffff1681526020018781526020018673ffffffffffffffffffffffffffffffffffffffff168152602001858152509050600081908060018154018082558091505060019003906000526020600020906006020160009091909190915060008201518160000160006101000a81548160ff02191690836002811115611c7e57611c7d6130c7565b5b021790555060208201518160000160016101000a81548173ffffffffffffffffffffffffffffffffffffffff021916908373ffffffffffffffffffffffffffffffffffffffff1602179055506040820151816001015560608201518160020160006101000a81548173ffffffffffffffffffffffffffffffffffffffff021916908373ffffffffffffffffffffffffffffffffffffffff1602179055506080820151816003015560a08201518160040160006101000a81548173ffffffffffffffffffffffffffffffffffffffff021916908373ffffffffffffffffffffffffffffffffffffffff16021790555060c0820151816005015550505050505050505050565b60008181548110611d9257600080fd5b90600052602060002090600602016000915090508060000160009054906101000a900460ff16908060000160019054906101000a900473ffffffffffffffffffffffffffffffffffffffff16908060010154908060020160009054906101000a900473ffffffffffffffffffffffffffffffffffffffff16908060030154908060040160009054906101000a900473ffffffffffffffffffffffffffffffffffffffff16908060050154905087565b60008511611e84576040517f08c379a0000000000000000000000000000000000000000000000000000000008152600401611e7b906142da565b60405180910390fd5b60006040518060c001604052808b8b8080601f016020809104026020016040519081016040528093929190818152602001838380828437600081840152601f19601f82011690508083019250505050505050815260200189898080601f016020809104026020016040519081016040528093929190818152602001838380828437600081840152601f19601f8201169050808301925050505050505081526020018781526020016000815260200186868080601f016020809104026020016040519081016040528093929190818152602001838380828437600081840152601f19601f82011690508083019250505050505050815260200184848080601f016020809104026020016040519081016040528093929190818152602001838380828437600081840152601f19601f820116905080830192505050505050508152509050600160003373ffffffffffffffffffffffffffffffffffffffff1673ffffffffffffffffffffffffffffffffffffffff168152602001908152602001600020819080600181540180825580915050600190039060005260206000209060060201600090919091909150600082015181600001908051906020019061204b929190612fc2565b506020820151816001019080519060200190612068929190612fc2565b5060408201518160020155606082015181600301556080820151816004019080519060200190612099929190612fc2565b5060a08201518160050190805190602001906120b6929190612fc2565b5050503373ffffffffffffffffffffffffffffffffffffffff167f34e80b05a0a3efd9887eda706c4d48c03b8b01a72e44d1ea8e301657e71326448b8b8b8b8b60008c8c8c8c6040516121129a9998979695949392919061437b565b60405180910390a250505050505050505050565b606060008390508073ffffffffffffffffffffffffffffffffffffffff1663c87b56dd846040518263ffffffff1660e01b815260040161216691906140e7565b600060405180830381865afa158015612183573d6000803e3d6000fd5b505050506040513d6000823e3d601f19601f820116820180604052508101906121ac9190614521565b91505092915050565b6121bd613048565b6000600160008573ffffffffffffffffffffffffffffffffffffffff1673ffffffffffffffffffffffffffffffffffffffff168152602001908152602001600020805490501415612243576040517f08c379a000000000000000000000000000000000000000000000000000000000815260040161223a906145b6565b60405180910390fd5b600160008473ffffffffffffffffffffffffffffffffffffffff1673ffffffffffffffffffffffffffffffffffffffff1681526020019081526020016000208054905082106122c7576040517f08c379a00000000000000000000000000000000000000000000000000000000081526004016122be906139dc565b60405180910390fd5b600160008473ffffffffffffffffffffffffffffffffffffffff1673ffffffffffffffffffffffffffffffffffffffff1681526020019081526020016000208281548110612318576123176139fc565b5b90600052602060002090600602016040518060c001604052908160008201805461234190613df7565b80601f016020809104026020016040519081016040528092919081815260200182805461236d90613df7565b80156123ba5780601f1061238f576101008083540402835291602001916123ba565b820191906000526020600020905b81548152906001019060200180831161239d57829003601f168201915b505050505081526020016001820180546123d390613df7565b80601f01602080910402602001604051908101604052809291908181526020018280546123ff90613df7565b801561244c5780601f106124215761010080835404028352916020019161244c565b820191906000526020600020905b81548152906001019060200180831161242f57829003601f168201915b50505050508152602001600282015481526020016003820154815260200160048201805461247990613df7565b80601f01602080910402602001604051908101604052809291908181526020018280546124a590613df7565b80156124f25780601f106124c7576101008083540402835291602001916124f2565b820191906000526020600020905b8154815290600101906020018083116124d557829003601f168201915b5050505050815260200160058201805461250b90613df7565b80601f016020809104026020016040519081016040528092919081815260200182805461253790613df7565b80156125845780601f1061255957610100808354040283529160200191612584565b820191906000526020600020905b81548152906001019060200180831161256757829003601f168201915b505050505081525050905092915050565b8173ffffffffffffffffffffffffffffffffffffffff163373ffffffffffffffffffffffffffffffffffffffff161415612604576040517f08c379a00000000000000000000000000000000000000000000000000000000081526004016125fb90614622565b60405180910390fd5b6000600160008473ffffffffffffffffffffffffffffffffffffffff1673ffffffffffffffffffffffffffffffffffffffff16815260200190815260200160002080549050141561268a576040517f08c379a0000000000000000000000000000000000000000000000000000000008152600401612681906145b6565b60405180910390fd5b600160008373ffffffffffffffffffffffffffffffffffffffff1673ffffffffffffffffffffffffffffffffffffffff16815260200190815260200160002080549050811061270e576040517f08c379a0000000000000000000000000000000000000000000000000000000008152600401612705906139dc565b60405180910390fd5b6000600160008473ffffffffffffffffffffffffffffffffffffffff1673ffffffffffffffffffffffffffffffffffffffff1681526020019081526020016000208281548110612761576127606139fc565b5b90600052602060002090600602016040518060c001604052908160008201805461278a90613df7565b80601f01602080910402602001604051908101604052809291908181526020018280546127b690613df7565b80156128035780601f106127d857610100808354040283529160200191612803565b820191906000526020600020905b8154815290600101906020018083116127e657829003601f168201915b5050505050815260200160018201805461281c90613df7565b80601f016020809104026020016040519081016040528092919081815260200182805461284890613df7565b80156128955780601f1061286a57610100808354040283529160200191612895565b820191906000526020600020905b81548152906001019060200180831161287857829003601f168201915b5050505050815260200160028201548152602001600382015481526020016004820180546128c290613df7565b80601f01602080910402602001604051908101604052809291908181526020018280546128ee90613df7565b801561293b5780601f106129105761010080835404028352916020019161293b565b820191906000526020600020905b81548152906001019060200180831161291e57829003601f168201915b5050505050815260200160058201805461295490613df7565b80601f016020809104026020016040519081016040528092919081815260200182805461298090613df7565b80156129cd5780601f106129a2576101008083540402835291602001916129cd565b820191906000526020600020905b8154815290600101906020018083116129b057829003601f168201915b505050505081525050905080604001513482606001516129ed9190613f9c565b10612a2d576040517f08c379a0000000000000000000000000000000000000000000000000000000008152600401612a2490613e9b565b60405180910390fd5b80606001518160400151612a419190614642565b341115612a83576040517f08c379a0000000000000000000000000000000000000000000000000000000008152600401612a7a906146e8565b60405180910390fd5b60008373ffffffffffffffffffffffffffffffffffffffff1634604051612aa990613eec565b60006040518083038185875af1925050503d8060008114612ae6576040519150601f19603f3d011682016040523d82523d6000602084013e612aeb565b606091505b5050905080612b2f576040517f08c379a0000000000000000000000000000000000000000000000000000000008152600401612b2690613f4d565b60405180910390fd5b3482606001818151612b419190613f9c565b9150818152505081600160008673ffffffffffffffffffffffffffffffffffffffff1673ffffffffffffffffffffffffffffffffffffffff1681526020019081526020016000208481548110612b9a57612b996139fc565b5b90600052602060002090600602016000820151816000019080519060200190612bc4929190612fc2565b506020820151816001019080519060200190612be1929190612fc2565b5060408201518160020155606082015181600301556080820151816004019080519060200190612c12929190612fc2565b5060a0820151816005019080519060200190612c2f929190612fc2565b50905050600260009054906101000a900473ffffffffffffffffffffffffffffffffffffffff1673ffffffffffffffffffffffffffffffffffffffff166340c10f1933346040518363ffffffff1660e01b8152600401612c90929190613ff2565b600060405180830381600087803b158015612caa57600080fd5b505af1158015612cbe573d6000803e3d6000fd5b5050505050505050565b6060600160008373ffffffffffffffffffffffffffffffffffffffff1673ffffffffffffffffffffffffffffffffffffffff168152602001908152602001600020805480602002602001604051908101604052809291908181526020016000905b82821015612fb757838290600052602060002090600602016040518060c0016040529081600082018054612d5c90613df7565b80601f0160208091040260200160405190810160405280929190818152602001828054612d8890613df7565b8015612dd55780601f10612daa57610100808354040283529160200191612dd5565b820191906000526020600020905b815481529060010190602001808311612db857829003601f168201915b50505050508152602001600182018054612dee90613df7565b80601f0160208091040260200160405190810160405280929190818152602001828054612e1a90613df7565b8015612e675780601f10612e3c57610100808354040283529160200191612e67565b820191906000526020600020905b815481529060010190602001808311612e4a57829003601f168201915b505050505081526020016002820154815260200160038201548152602001600482018054612e9490613df7565b80601f0160208091040260200160405190810160405280929190818152602001828054612ec090613df7565b8015612f0d5780601f10612ee257610100808354040283529160200191612f0d565b820191906000526020600020905b815481529060010190602001808311612ef057829003601f168201915b50505050508152602001600582018054612f2690613df7565b80601f0160208091040260200160405190810160405280929190818152602001828054612f5290613df7565b8015612f9f5780601f10612f7457610100808354040283529160200191612f9f565b820191906000526020600020905b815481529060010190602001808311612f8257829003601f168201915b50505050508152505081526020019060010190612d29565b505050509050919050565b828054612fce90613df7565b90600052602060002090601f016020900481019282612ff05760008555613037565b82601f1061300957805160ff1916838001178555613037565b82800160010185558215613037579182015b8281111561303657825182559160200191906001019061301b565b5b509050613044919061307e565b5090565b6040518060c001604052806060815260200160608152602001600081526020016000815260200160608152602001606081525090565b5b8082111561309757600081600090555060010161307f565b5090565b600081519050919050565b600082825260208201905092915050565b6000819050602082019050919050565b7f4e487b7100000000000000000000000000000000000000000000000000000000600052602160045260246000fd5b60038110613107576131066130c7565b5b50565b6000819050613118826130f6565b919050565b60006131288261310a565b9050919050565b6131388161311d565b82525050565b600073ffffffffffffffffffffffffffffffffffffffff82169050919050565b60006131698261313e565b9050919050565b6131798161315e565b82525050565b6000819050919050565b6131928161317f565b82525050565b60e0820160008201516131ae600085018261312f565b5060208201516131c16020850182613170565b5060408201516131d46040850182613189565b5060608201516131e76060850182613170565b5060808201516131fa6080850182613189565b5060a082015161320d60a0850182613170565b5060c082015161322060c0850182613189565b50505050565b60006132328383613198565b60e08301905092915050565b6000602082019050919050565b60006132568261309b565b61326081856130a6565b935061326b836130b7565b8060005b8381101561329c5781516132838882613226565b975061328e8361323e565b92505060018101905061326f565b5085935050505092915050565b600060208201905081810360008301526132c3818461324b565b905092915050565b6000604051905090565b600080fd5b600080fd5b6132e88161317f565b81146132f357600080fd5b50565b600081359050613305816132df565b92915050565b600060208284031215613321576133206132d5565b5b600061332f848285016132f6565b91505092915050565b6133418161315e565b811461334c57600080fd5b50565b60008135905061335e81613338565b92915050565b600080600080600060a086880312156133805761337f6132d5565b5b600061338e8882890161334f565b955050602061339f888289016132f6565b94505060406133b0888289016132f6565b93505060606133c18882890161334f565b92505060806133d2888289016132f6565b9150509295509295909350565b6133e88161311d565b82525050565b6133f78161315e565b82525050565b6134068161317f565b82525050565b600060e082019050613421600083018a6133df565b61342e60208301896133ee565b61343b60408301886133fd565b61344860608301876133ee565b61345560808301866133fd565b61346260a08301856133ee565b61346f60c08301846133fd565b98975050505050505050565b600080fd5b600080fd5b600080fd5b60008083601f8401126134a05761349f61347b565b5b8235905067ffffffffffffffff8111156134bd576134bc613480565b5b6020830191508360018202830111156134d9576134d8613485565b5b9250929050565b600080600080600080600080600060a08a8c031215613502576135016132d5565b5b60008a013567ffffffffffffffff8111156135205761351f6132da565b5b61352c8c828d0161348a565b995099505060208a013567ffffffffffffffff81111561354f5761354e6132da565b5b61355b8c828d0161348a565b9750975050604061356e8c828d016132f6565b95505060608a013567ffffffffffffffff81111561358f5761358e6132da565b5b61359b8c828d0161348a565b945094505060808a013567ffffffffffffffff8111156135be576135bd6132da565b5b6135ca8c828d0161348a565b92509250509295985092959850929598565b600080604083850312156135f3576135f26132d5565b5b60006136018582860161334f565b9250506020613612858286016132f6565b9150509250929050565b600081519050919050565b600082825260208201905092915050565b60005b8381101561365657808201518184015260208101905061363b565b83811115613665576000848401525b50505050565b6000601f19601f8301169050919050565b60006136878261361c565b6136918185613627565b93506136a1818560208601613638565b6136aa8161366b565b840191505092915050565b600060208201905081810360008301526136cf818461367c565b905092915050565b600082825260208201905092915050565b60006136f38261361c565b6136fd81856136d7565b935061370d818560208601613638565b6137168161366b565b840191505092915050565b600060c083016000830151848203600086015261373e82826136e8565b9150506020830151848203602086015261375882826136e8565b915050604083015161376d6040860182613189565b5060608301516137806060860182613189565b506080830151848203608086015261379882826136e8565b91505060a083015184820360a08601526137b282826136e8565b9150508091505092915050565b600060208201905081810360008301526137d98184613721565b905092915050565b6000602082840312156137f7576137f66132d5565b5b60006138058482850161334f565b91505092915050565b600081519050919050565b600082825260208201905092915050565b6000819050602082019050919050565b600060c083016000830151848203600086015261385782826136e8565b9150506020830151848203602086015261387182826136e8565b91505060408301516138866040860182613189565b5060608301516138996060860182613189565b50608083015184820360808601526138b182826136e8565b91505060a083015184820360a08601526138cb82826136e8565b9150508091505092915050565b60006138e4838361383a565b905092915050565b6000602082019050919050565b60006139048261380e565b61390e8185613819565b9350836020820285016139208561382a565b8060005b8581101561395c578484038952815161393d85826138d8565b9450613948836138ec565b925060208a01995050600181019050613924565b50829750879550505050505092915050565b6000602082019050818103600083015261398881846138f9565b905092915050565b7f496e646578206f7574206f6620626f756e647300000000000000000000000000600082015250565b60006139c6601383613627565b91506139d182613990565b602082019050919050565b600060208201905081810360008301526139f5816139b9565b9050919050565b7f4e487b7100000000000000000000000000000000000000000000000000000000600052603260045260246000fd5b7f596f7520617265206e6f74207468652070726576696f7573206f776e6572206f60008201527f6620746869732067696674000000000000000000000000000000000000000000602082015250565b6000613a87602b83613627565b9150613a9282613a2b565b604082019050919050565b60006020820190508181036000830152613ab681613a7a565b9050919050565b7f4e465420697320616c726561647920736f6c64206f722077697468647261776e60008201527f2e00000000000000000000000000000000000000000000000000000000000000602082015250565b6000613b19602183613627565b9150613b2482613abd565b604082019050919050565b60006020820190508181036000830152613b4881613b0c565b9050919050565b6000606082019050613b6460008301866133ee565b613b7160208301856133ee565b613b7e60408301846133fd565b949350505050565b7f4e465420646f65736e2774206578697374732100000000000000000000000000600082015250565b6000613bbc601383613627565b9150613bc782613b86565b602082019050919050565b60006020820190508181036000830152613beb81613baf565b9050919050565b7f596f752077657265206e6f7420746865206f776e6572206f662074686973206e60008201527f6674000000000000000000000000000000000000000000000000000000000000602082015250565b6000613c4e602283613627565b9150613c5982613bf2565b604082019050919050565b60006020820190508181036000830152613c7d81613c41565b9050919050565b7f4e465420697320616c726561647920646f6e6174656400000000000000000000600082015250565b6000613cba601683613627565b9150613cc582613c84565b602082019050919050565b60006020820190508181036000830152613ce981613cad565b9050919050565b7f4e4654206973206e6f74206c6973746564000000000000000000000000000000600082015250565b6000613d26601183613627565b9150613d3182613cf0565b602082019050919050565b60006020820190508181036000830152613d5581613d19565b9050919050565b7f4769667420697320746f6f20657870656e736976650000000000000000000000600082015250565b6000613d92601583613627565b9150613d9d82613d5c565b602082019050919050565b60006020820190508181036000830152613dc181613d85565b9050919050565b7f4e487b7100000000000000000000000000000000000000000000000000000000600052602260045260246000fd5b60006002820490506001821680613e0f57607f821691505b60208210811415613e2357613e22613dc8565b5b50919050565b7f43616d706169676e20697320616c72656164792072656163686564206974277360008201527f2074617267657420616d6f756e742e0000000000000000000000000000000000602082015250565b6000613e85602f83613627565b9150613e9082613e29565b604082019050919050565b60006020820190508181036000830152613eb481613e78565b9050919050565b600081905092915050565b50565b6000613ed6600083613ebb565b9150613ee182613ec6565b600082019050919050565b6000613ef782613ec9565b9150819050919050565b7f4661696c656420746f207472616e73666572206769667420616d6f756e740000600082015250565b6000613f37601e83613627565b9150613f4282613f01565b602082019050919050565b60006020820190508181036000830152613f6681613f2a565b9050919050565b7f4e487b7100000000000000000000000000000000000000000000000000000000600052601160045260246000fd5b6000613fa78261317f565b9150613fb28361317f565b9250827fffffffffffffffffffffffffffffffffffffffffffffffffffffffffffffffff03821115613fe757613fe6613f6d565b5b828201905092915050565b600060408201905061400760008301856133ee565b61401460208301846133fd565b9392505050565b7f4e487b7100000000000000000000000000000000000000000000000000000000600052601260045260246000fd5b60006140558261317f565b91506140608361317f565b9250826140705761406f61401b565b5b828204905092915050565b7f43616d706169676e20646f6573206e6f74206578697374732e00000000000000600082015250565b60006140b1601983613627565b91506140bc8261407b565b602082019050919050565b600060208201905081810360008301526140e0816140a4565b9050919050565b60006020820190506140fc60008301846133fd565b92915050565b60008151905061411181613338565b92915050565b60006020828403121561412d5761412c6132d5565b5b600061413b84828501614102565b91505092915050565b7f596f7520617265206e6f7420746865206f776e6572206f66207468697320746f60008201527f6b656e0000000000000000000000000000000000000000000000000000000000602082015250565b60006141a0602383613627565b91506141ab82614144565b604082019050919050565b600060208201905081810360008301526141cf81614193565b9050919050565b7f506c6561736520617070726f76652074686520636f6e747261637420746f206160008201527f636365737320796f7572204e4654206265666f726520646f6e6174696e670000602082015250565b6000614232603e83613627565b915061423d826141d6565b604082019050919050565b6000602082019050818103600083015261426181614225565b9050919050565b7f54617267657420616d6f756e742073686f756c6420626520677265617465722060008201527f7468616e20300000000000000000000000000000000000000000000000000000602082015250565b60006142c4602683613627565b91506142cf82614268565b604082019050919050565b600060208201905081810360008301526142f3816142b7565b9050919050565b82818337600083830152505050565b60006143158385613627565b93506143228385846142fa565b61432b8361366b565b840190509392505050565b6000819050919050565b6000819050919050565b600061436561436061435b84614336565b614340565b61317f565b9050919050565b6143758161434a565b82525050565b600060c0820190508181036000830152614396818c8e614309565b905081810360208301526143ab818a8c614309565b90506143ba60408301896133fd565b6143c7606083018861436c565b81810360808301526143da818688614309565b905081810360a08301526143ef818486614309565b90509b9a5050505050505050505050565b600080fd5b7f4e487b7100000000000000000000000000000000000000000000000000000000600052604160045260246000fd5b61443d8261366b565b810181811067ffffffffffffffff8211171561445c5761445b614405565b5b80604052505050565b600061446f6132cb565b905061447b8282614434565b919050565b600067ffffffffffffffff82111561449b5761449a614405565b5b6144a48261366b565b9050602081019050919050565b60006144c46144bf84614480565b614465565b9050828152602081018484840111156144e0576144df614400565b5b6144eb848285613638565b509392505050565b600082601f8301126145085761450761347b565b5b81516145188482602086016144b1565b91505092915050565b600060208284031215614537576145366132d5565b5b600082015167ffffffffffffffff811115614555576145546132da565b5b614561848285016144f3565b91505092915050565b7f4e6f2063616d706169676e7320666f756e640000000000000000000000000000600082015250565b60006145a0601283613627565b91506145ab8261456a565b602082019050919050565b600060208201905081810360008301526145cf81614593565b9050919050565b7f596f752063616e6e6f74206769667420746f20796f757273656c660000000000600082015250565b600061460c601b83613627565b9150614617826145d6565b602082019050919050565b6000602082019050818103600083015261463b816145ff565b9050919050565b600061464d8261317f565b91506146588361317f565b92508282101561466b5761466a613f6d565b5b828203905092915050565b7f446f6e6174696f6e206973206c6172676572207468616e207468652072656d6160008201527f696e696e672074617267657420616d6f756e742e000000000000000000000000602082015250565b60006146d2603483613627565b91506146dd82614676565b604082019050919050565b60006020820190508181036000830152614701816146c5565b905091905056fea2646970667358221220c6b2c760fe3f0ee9064fad64dcb5b23df56f66d26f9546eb5974843e8d0e856d64736f6c634300080b0033",
  "linkReferences": {},
  "deployedLinkReferences": {}
}