{
  "_format": "hh-sol-artifact-1",
  "contractName": "Gift",
  "sourceName": "contracts/Gift.sol",
  "abi": [
    {
      "inputs": [
        {
          "internalType": "contract GiftToken",
          "name": "_token",
          "type": "address"
        }
      ],
      "stateMutability": "nonpayable",
      "type": "constructor"
    },
    {
      "anonymous": false,
      "inputs": [
        {
          "indexed": true,
          "internalType": "address",
          "name": "creator",
          "type": "address"
        },
        {
          "indexed": false,
          "internalType": "string",
          "name": "title",
          "type": "string"
        },
        {
          "indexed": false,
          "internalType": "string",
          "name": "description",
          "type": "string"
        },
        {
          "indexed": false,
          "internalType": "uint256",
          "name": "targetAmount",
          "type": "uint256"
        },
        {
          "indexed": false,
          "internalType": "uint256",
          "name": "collectedAmount",
          "type": "uint256"
        },
        {
          "indexed": false,
          "internalType": "string",
          "name": "image",
          "type": "string"
        },
        {
          "indexed": false,
          "internalType": "string",
          "name": "externalLink",
          "type": "string"
        }
      ],
      "name": "CampaignCreated",
      "type": "event"
    },
    {
      "inputs": [
        {
          "internalType": "uint256",
          "name": "_index",
          "type": "uint256"
        }
      ],
      "name": "buyNFT",
      "outputs": [],
      "stateMutability": "payable",
      "type": "function"
    },
    {
      "inputs": [
        {
          "internalType": "uint256",
          "name": "_index",
          "type": "uint256"
        }
      ],
      "name": "claimBackNFT",
      "outputs": [],
      "stateMutability": "payable",
      "type": "function"
    },
    {
      "inputs": [
        {
          "internalType": "string",
          "name": "_title",
          "type": "string"
        },
        {
          "internalType": "string",
          "name": "_description",
          "type": "string"
        },
        {
          "internalType": "uint256",
          "name": "_targetAmount",
          "type": "uint256"
        },
        {
          "internalType": "string",
          "name": "_image",
          "type": "string"
        },
        {
          "internalType": "string",
          "name": "_externalLink",
          "type": "string"
        }
      ],
      "name": "createCampaign",
      "outputs": [],
      "stateMutability": "nonpayable",
      "type": "function"
    },
    {
      "inputs": [
        {
          "internalType": "address",
          "name": "_nftContractAddress",
          "type": "address"
        },
        {
          "internalType": "uint256",
          "name": "_tokenId",
          "type": "uint256"
        },
        {
          "internalType": "uint256",
          "name": "_price",
          "type": "uint256"
        },
        {
          "internalType": "address",
          "name": "_campaignCreator",
          "type": "address"
        },
        {
          "internalType": "uint256",
          "name": "_campaignIndex",
          "type": "uint256"
        }
      ],
      "name": "donateNFT",
      "outputs": [],
      "stateMutability": "payable",
      "type": "function"
    },
    {
      "inputs": [
        {
          "internalType": "address",
          "name": "_creator",
          "type": "address"
        },
        {
          "internalType": "uint256",
          "name": "index",
          "type": "uint256"
        }
      ],
      "name": "getCampaign",
      "outputs": [
        {
          "components": [
            {
              "internalType": "string",
              "name": "title",
              "type": "string"
            },
            {
              "internalType": "string",
              "name": "description",
              "type": "string"
            },
            {
              "internalType": "uint256",
              "name": "targetAmount",
              "type": "uint256"
            },
            {
              "internalType": "uint256",
              "name": "collectedAmount",
              "type": "uint256"
            },
            {
              "internalType": "string",
              "name": "image",
              "type": "string"
            },
            {
              "internalType": "string",
              "name": "externalLink",
              "type": "string"
            }
          ],
          "internalType": "struct Gift.Campaign",
          "name": "",
          "type": "tuple"
        }
      ],
      "stateMutability": "view",
      "type": "function"
    },
    {
      "inputs": [
        {
          "internalType": "address",
          "name": "_creator",
          "type": "address"
        }
      ],
      "name": "getCampaignsByCreator",
      "outputs": [
        {
          "components": [
            {
              "internalType": "string",
              "name": "title",
              "type": "string"
            },
            {
              "internalType": "string",
              "name": "description",
              "type": "string"
            },
            {
              "internalType": "uint256",
              "name": "targetAmount",
              "type": "uint256"
            },
            {
              "internalType": "uint256",
              "name": "collectedAmount",
              "type": "uint256"
            },
            {
              "internalType": "string",
              "name": "image",
              "type": "string"
            },
            {
              "internalType": "string",
              "name": "externalLink",
              "type": "string"
            }
          ],
          "internalType": "struct Gift.Campaign[]",
          "name": "",
          "type": "tuple[]"
        }
      ],
      "stateMutability": "view",
      "type": "function"
    },
    {
      "inputs": [
        {
          "internalType": "address",
          "name": "_contract",
          "type": "address"
        },
        {
          "internalType": "uint256",
          "name": "_tokenId",
          "type": "uint256"
        }
      ],
      "name": "getNFTMetadata",
      "outputs": [
        {
          "internalType": "string",
          "name": "",
          "type": "string"
        }
      ],
      "stateMutability": "view",
      "type": "function"
    },
    {
      "inputs": [
        {
          "internalType": "address",
          "name": "_creator",
          "type": "address"
        },
        {
          "internalType": "uint256",
          "name": "index",
          "type": "uint256"
        }
      ],
      "name": "gift",
      "outputs": [],
      "stateMutability": "payable",
      "type": "function"
    },
    {
      "inputs": [
        {
          "internalType": "uint256",
          "name": "",
          "type": "uint256"
        }
      ],
      "name": "nftGifts",
      "outputs": [
        {
          "internalType": "enum Gift.NFTGiftState",
          "name": "status",
          "type": "uint8"
        },
        {
          "internalType": "address",
          "name": "contractAddress",
          "type": "address"
        },
        {
          "internalType": "uint256",
          "name": "tokenId",
          "type": "uint256"
        },
        {
          "internalType": "address",
          "name": "prevOwner",
          "type": "address"
        },
        {
          "internalType": "uint256",
          "name": "price",
          "type": "uint256"
        },
        {
          "internalType": "address",
          "name": "campaignCreator",
          "type": "address"
        },
        {
          "internalType": "uint256",
          "name": "campaignId",
          "type": "uint256"
        }
      ],
      "stateMutability": "view",
      "type": "function"
    }
  ],
  "bytecode": "0x60806040523480156200001157600080fd5b506040516200413c3803806200413c8339818101604052810190620000379190620000fd565b80600260006101000a81548173ffffffffffffffffffffffffffffffffffffffff021916908373ffffffffffffffffffffffffffffffffffffffff160217905550506200012f565b600080fd5b600073ffffffffffffffffffffffffffffffffffffffff82169050919050565b6000620000b18262000084565b9050919050565b6000620000c582620000a4565b9050919050565b620000d781620000b8565b8114620000e357600080fd5b50565b600081519050620000f781620000cc565b92915050565b6000602082840312156200011657620001156200007f565b5b60006200012684828501620000e6565b91505092915050565b613ffd806200013f6000396000f3fe6080604052600436106100865760003560e01c8063a076913e11610059578063a076913e14610122578063a838e43b1461014b578063b08328b414610188578063cbce4c97146101c5578063d5b8d84a146101e157610086565b8063247ca62a1461008b57806351ed8288146100a7578063873e58db146100c357806388cd6971146100df575b600080fd5b6100a560048036038101906100a09190612c45565b61021e565b005b6100c160048036038101906100bc9190612c45565b6106cc565b005b6100dd60048036038101906100d89190612cd0565b6110d3565b005b3480156100eb57600080fd5b5061010660048036038101906101019190612c45565b6118e2565b6040516101199796959493929190612de0565b60405180910390f35b34801561012e57600080fd5b5061014960048036038101906101449190612eb4565b6119a1565b005b34801561015757600080fd5b50610172600480360381019061016d9190612fb0565b611c86565b60405161017f9190613089565b60405180910390f35b34801561019457600080fd5b506101af60048036038101906101aa9190612fb0565b611d15565b6040516101bc91906131a2565b60405180910390f35b6101df60048036038101906101da9190612fb0565b6120f5565b005b3480156101ed57600080fd5b50610208600480360381019061020391906131c4565b612828565b6040516102159190613351565b60405180910390f35b6000805490508110610265576040517f08c379a000000000000000000000000000000000000000000000000000000000815260040161025c906133bf565b60405180910390fd5b600080828154811061027a576102796133df565b5b90600052602060002090600602016040518060e00160405290816000820160009054906101000a900460ff1660028111156102b8576102b7612d4b565b5b60028111156102ca576102c9612d4b565b5b81526020016000820160019054906101000a900473ffffffffffffffffffffffffffffffffffffffff1673ffffffffffffffffffffffffffffffffffffffff1673ffffffffffffffffffffffffffffffffffffffff168152602001600182015481526020016002820160009054906101000a900473ffffffffffffffffffffffffffffffffffffffff1673ffffffffffffffffffffffffffffffffffffffff1673ffffffffffffffffffffffffffffffffffffffff168152602001600382015481526020016004820160009054906101000a900473ffffffffffffffffffffffffffffffffffffffff1673ffffffffffffffffffffffffffffffffffffffff1673ffffffffffffffffffffffffffffffffffffffff16815260200160058201548152505090503373ffffffffffffffffffffffffffffffffffffffff16816060015173ffffffffffffffffffffffffffffffffffffffff1614610462576040517f08c379a000000000000000000000000000000000000000000000000000000000815260040161045990613480565b60405180910390fd5b60028081111561047557610474612d4b565b5b8160000151600281111561048c5761048b612d4b565b5b14156104cd576040517f08c379a00000000000000000000000000000000000000000000000000000000081526004016104c4906134ec565b60405180910390fd5b6000816020015190508073ffffffffffffffffffffffffffffffffffffffff166323b872dd30846060015185604001516040518463ffffffff1660e01b815260040161051b9392919061350c565b600060405180830381600087803b15801561053557600080fd5b505af1158015610549573d6000803e3d6000fd5b5050505060018260000190600281111561056657610565612d4b565b5b9081600281111561057a57610579612d4b565b5b815250508160008481548110610593576105926133df565b5b906000526020600020906006020160008201518160000160006101000a81548160ff021916908360028111156105cc576105cb612d4b565b5b021790555060208201518160000160016101000a81548173ffffffffffffffffffffffffffffffffffffffff021916908373ffffffffffffffffffffffffffffffffffffffff1602179055506040820151816001015560608201518160020160006101000a81548173ffffffffffffffffffffffffffffffffffffffff021916908373ffffffffffffffffffffffffffffffffffffffff1602179055506080820151816003015560a08201518160040160006101000a81548173ffffffffffffffffffffffffffffffffffffffff021916908373ffffffffffffffffffffffffffffffffffffffff16021790555060c08201518160050155905050505050565b6000805490508110610713576040517f08c379a000000000000000000000000000000000000000000000000000000000815260040161070a906133bf565b60405180910390fd5b6000600281111561072757610726612d4b565b5b6000828154811061073b5761073a6133df565b5b906000526020600020906006020160000160009054906101000a900460ff16600281111561076c5761076b612d4b565b5b146107ac576040517f08c379a00000000000000000000000000000000000000000000000000000000081526004016107a39061358f565b60405180910390fd5b34600082815481106107c1576107c06133df565b5b9060005260206000209060060201600301541115610814576040517f08c379a000000000000000000000000000000000000000000000000000000000815260040161080b906135fb565b60405180910390fd5b60006001600080848154811061082d5761082c6133df565b5b906000526020600020906006020160040160009054906101000a900473ffffffffffffffffffffffffffffffffffffffff1673ffffffffffffffffffffffffffffffffffffffff1673ffffffffffffffffffffffffffffffffffffffff168152602001908152602001600020600083815481106108ad576108ac6133df565b5b906000526020600020906006020160050154815481106108d0576108cf6133df565b5b90600052602060002090600602016040518060c00160405290816000820180546108f99061364a565b80601f01602080910402602001604051908101604052809291908181526020018280546109259061364a565b80156109725780601f1061094757610100808354040283529160200191610972565b820191906000526020600020905b81548152906001019060200180831161095557829003601f168201915b5050505050815260200160018201805461098b9061364a565b80601f01602080910402602001604051908101604052809291908181526020018280546109b79061364a565b8015610a045780601f106109d957610100808354040283529160200191610a04565b820191906000526020600020905b8154815290600101906020018083116109e757829003601f168201915b505050505081526020016002820154815260200160038201548152602001600482018054610a319061364a565b80601f0160208091040260200160405190810160405280929190818152602001828054610a5d9061364a565b8015610aaa5780601f10610a7f57610100808354040283529160200191610aaa565b820191906000526020600020905b815481529060010190602001808311610a8d57829003601f168201915b50505050508152602001600582018054610ac39061364a565b80601f0160208091040260200160405190810160405280929190818152602001828054610aef9061364a565b8015610b3c5780601f10610b1157610100808354040283529160200191610b3c565b820191906000526020600020905b815481529060010190602001808311610b1f57829003601f168201915b50505050508152505090508060400151816060015110610b91576040517f08c379a0000000000000000000000000000000000000000000000000000000008152600401610b88906136ee565b60405180910390fd5b6000808381548110610ba657610ba56133df565b5b906000526020600020906006020160000160019054906101000a900473ffffffffffffffffffffffffffffffffffffffff1690508073ffffffffffffffffffffffffffffffffffffffff166323b872dd303360008781548110610c0c57610c0b6133df565b5b9060005260206000209060060201600101546040518463ffffffff1660e01b8152600401610c3c9392919061350c565b600060405180830381600087803b158015610c5657600080fd5b505af1158015610c6a573d6000803e3d6000fd5b505050506000808481548110610c8357610c826133df565b5b906000526020600020906006020160040160009054906101000a900473ffffffffffffffffffffffffffffffffffffffff1673ffffffffffffffffffffffffffffffffffffffff1634604051610cd89061373f565b60006040518083038185875af1925050503d8060008114610d15576040519150601f19603f3d011682016040523d82523d6000602084013e610d1a565b606091505b5050905080610d5e576040517f08c379a0000000000000000000000000000000000000000000000000000000008152600401610d55906137a0565b60405180910390fd5b3483606001818151610d7091906137ef565b915081815250508260016000808781548110610d8f57610d8e6133df565b5b906000526020600020906006020160040160009054906101000a900473ffffffffffffffffffffffffffffffffffffffff1673ffffffffffffffffffffffffffffffffffffffff1673ffffffffffffffffffffffffffffffffffffffff16815260200190815260200160002060008681548110610e0f57610e0e6133df565b5b90600052602060002090600602016005015481548110610e3257610e316133df565b5b90600052602060002090600602016000820151816000019080519060200190610e5c929190612b22565b506020820151816001019080519060200190610e79929190612b22565b5060408201518160020155606082015181600301556080820151816004019080519060200190610eaa929190612b22565b5060a0820151816005019080519060200190610ec7929190612b22565b50905050600260009054906101000a900473ffffffffffffffffffffffffffffffffffffffff1673ffffffffffffffffffffffffffffffffffffffff166340c10f1960008681548110610f1d57610f1c6133df565b5b906000526020600020906006020160020160009054906101000a900473ffffffffffffffffffffffffffffffffffffffff16346040518363ffffffff1660e01b8152600401610f6d929190613845565b600060405180830381600087803b158015610f8757600080fd5b505af1158015610f9b573d6000803e3d6000fd5b50505050600260009054906101000a900473ffffffffffffffffffffffffffffffffffffffff1673ffffffffffffffffffffffffffffffffffffffff166340c10f1960008681548110610ff157610ff06133df565b5b906000526020600020906006020160020160009054906101000a900473ffffffffffffffffffffffffffffffffffffffff16606434611030919061389d565b6040518363ffffffff1660e01b815260040161104d929190613845565b600060405180830381600087803b15801561106757600080fd5b505af115801561107b573d6000803e3d6000fd5b50505050600260008581548110611095576110946133df565b5b906000526020600020906006020160000160006101000a81548160ff021916908360028111156110c8576110c7612d4b565b5b021790555050505050565b6000600160008473ffffffffffffffffffffffffffffffffffffffff1673ffffffffffffffffffffffffffffffffffffffff168152602001908152602001600020805490501415806111665750600160008373ffffffffffffffffffffffffffffffffffffffff1673ffffffffffffffffffffffffffffffffffffffff1681526020019081526020016000208054905081105b6111a5576040517f08c379a000000000000000000000000000000000000000000000000000000000815260040161119c9061391a565b60405180910390fd5b6000600160008473ffffffffffffffffffffffffffffffffffffffff1673ffffffffffffffffffffffffffffffffffffffff16815260200190815260200160002082815481106111f8576111f76133df565b5b90600052602060002090600602016040518060c00160405290816000820180546112219061364a565b80601f016020809104026020016040519081016040528092919081815260200182805461124d9061364a565b801561129a5780601f1061126f5761010080835404028352916020019161129a565b820191906000526020600020905b81548152906001019060200180831161127d57829003601f168201915b505050505081526020016001820180546112b39061364a565b80601f01602080910402602001604051908101604052809291908181526020018280546112df9061364a565b801561132c5780601f106113015761010080835404028352916020019161132c565b820191906000526020600020905b81548152906001019060200180831161130f57829003601f168201915b5050505050815260200160028201548152602001600382015481526020016004820180546113599061364a565b80601f01602080910402602001604051908101604052809291908181526020018280546113859061364a565b80156113d25780601f106113a7576101008083540402835291602001916113d2565b820191906000526020600020905b8154815290600101906020018083116113b557829003601f168201915b505050505081526020016005820180546113eb9061364a565b80601f01602080910402602001604051908101604052809291908181526020018280546114179061364a565b80156114645780601f1061143957610100808354040283529160200191611464565b820191906000526020600020905b81548152906001019060200180831161144757829003601f168201915b505050505081525050905080604001518160600151106114b9576040517f08c379a00000000000000000000000000000000000000000000000000000000081526004016114b0906136ee565b60405180910390fd5b60008690503373ffffffffffffffffffffffffffffffffffffffff168173ffffffffffffffffffffffffffffffffffffffff16636352211e886040518263ffffffff1660e01b815260040161150e919061393a565b602060405180830381865afa15801561152b573d6000803e3d6000fd5b505050506040513d601f19601f8201168201806040525081019061154f919061396a565b73ffffffffffffffffffffffffffffffffffffffff16146115a5576040517f08c379a000000000000000000000000000000000000000000000000000000000815260040161159c90613a09565b60405180910390fd5b3073ffffffffffffffffffffffffffffffffffffffff168173ffffffffffffffffffffffffffffffffffffffff1663081812fc886040518263ffffffff1660e01b81526004016115f5919061393a565b602060405180830381865afa158015611612573d6000803e3d6000fd5b505050506040513d601f19601f82011682018060405250810190611636919061396a565b73ffffffffffffffffffffffffffffffffffffffff161461168c576040517f08c379a000000000000000000000000000000000000000000000000000000000815260040161168390613a9b565b60405180910390fd5b8073ffffffffffffffffffffffffffffffffffffffff166323b872dd3330896040518463ffffffff1660e01b81526004016116c99392919061350c565b600060405180830381600087803b1580156116e357600080fd5b505af11580156116f7573d6000803e3d6000fd5b5050505060006040518060e001604052806000600281111561171c5761171b612d4b565b5b81526020018973ffffffffffffffffffffffffffffffffffffffff1681526020018881526020013373ffffffffffffffffffffffffffffffffffffffff1681526020018781526020018673ffffffffffffffffffffffffffffffffffffffff168152602001858152509050600081908060018154018082558091505060019003906000526020600020906006020160009091909190915060008201518160000160006101000a81548160ff021916908360028111156117de576117dd612d4b565b5b021790555060208201518160000160016101000a81548173ffffffffffffffffffffffffffffffffffffffff021916908373ffffffffffffffffffffffffffffffffffffffff1602179055506040820151816001015560608201518160020160006101000a81548173ffffffffffffffffffffffffffffffffffffffff021916908373ffffffffffffffffffffffffffffffffffffffff1602179055506080820151816003015560a08201518160040160006101000a81548173ffffffffffffffffffffffffffffffffffffffff021916908373ffffffffffffffffffffffffffffffffffffffff16021790555060c0820151816005015550505050505050505050565b600081815481106118f257600080fd5b90600052602060002090600602016000915090508060000160009054906101000a900460ff16908060000160019054906101000a900473ffffffffffffffffffffffffffffffffffffffff16908060010154908060020160009054906101000a900473ffffffffffffffffffffffffffffffffffffffff16908060030154908060040160009054906101000a900473ffffffffffffffffffffffffffffffffffffffff16908060050154905087565b600085116119e4576040517f08c379a00000000000000000000000000000000000000000000000000000000081526004016119db90613b2d565b60405180910390fd5b60006040518060c001604052808b8b8080601f016020809104026020016040519081016040528093929190818152602001838380828437600081840152601f19601f82011690508083019250505050505050815260200189898080601f016020809104026020016040519081016040528093929190818152602001838380828437600081840152601f19601f8201169050808301925050505050505081526020018781526020016000815260200186868080601f016020809104026020016040519081016040528093929190818152602001838380828437600081840152601f19601f82011690508083019250505050505050815260200184848080601f016020809104026020016040519081016040528093929190818152602001838380828437600081840152601f19601f820116905080830192505050505050508152509050600160003373ffffffffffffffffffffffffffffffffffffffff1673ffffffffffffffffffffffffffffffffffffffff1681526020019081526020016000208190806001815401808255809150506001900390600052602060002090600602016000909190919091506000820151816000019080519060200190611bab929190612b22565b506020820151816001019080519060200190611bc8929190612b22565b5060408201518160020155606082015181600301556080820151816004019080519060200190611bf9929190612b22565b5060a0820151816005019080519060200190611c16929190612b22565b5050503373ffffffffffffffffffffffffffffffffffffffff167f34e80b05a0a3efd9887eda706c4d48c03b8b01a72e44d1ea8e301657e71326448b8b8b8b8b60008c8c8c8c604051611c729a99989796959493929190613bce565b60405180910390a250505050505050505050565b606060008390508073ffffffffffffffffffffffffffffffffffffffff1663c87b56dd846040518263ffffffff1660e01b8152600401611cc6919061393a565b600060405180830381865afa158015611ce3573d6000803e3d6000fd5b505050506040513d6000823e3d601f19601f82011682018060405250810190611d0c9190613d74565b91505092915050565b611d1d612ba8565b6000600160008573ffffffffffffffffffffffffffffffffffffffff1673ffffffffffffffffffffffffffffffffffffffff168152602001908152602001600020805490501415611da3576040517f08c379a0000000000000000000000000000000000000000000000000000000008152600401611d9a90613e09565b60405180910390fd5b600160008473ffffffffffffffffffffffffffffffffffffffff1673ffffffffffffffffffffffffffffffffffffffff168152602001908152602001600020805490508210611e27576040517f08c379a0000000000000000000000000000000000000000000000000000000008152600401611e1e90613e75565b60405180910390fd5b600160008473ffffffffffffffffffffffffffffffffffffffff1673ffffffffffffffffffffffffffffffffffffffff1681526020019081526020016000208281548110611e7857611e776133df565b5b90600052602060002090600602016040518060c0016040529081600082018054611ea19061364a565b80601f0160208091040260200160405190810160405280929190818152602001828054611ecd9061364a565b8015611f1a5780601f10611eef57610100808354040283529160200191611f1a565b820191906000526020600020905b815481529060010190602001808311611efd57829003601f168201915b50505050508152602001600182018054611f339061364a565b80601f0160208091040260200160405190810160405280929190818152602001828054611f5f9061364a565b8015611fac5780601f10611f8157610100808354040283529160200191611fac565b820191906000526020600020905b815481529060010190602001808311611f8f57829003601f168201915b505050505081526020016002820154815260200160038201548152602001600482018054611fd99061364a565b80601f01602080910402602001604051908101604052809291908181526020018280546120059061364a565b80156120525780601f1061202757610100808354040283529160200191612052565b820191906000526020600020905b81548152906001019060200180831161203557829003601f168201915b5050505050815260200160058201805461206b9061364a565b80601f01602080910402602001604051908101604052809291908181526020018280546120979061364a565b80156120e45780601f106120b9576101008083540402835291602001916120e4565b820191906000526020600020905b8154815290600101906020018083116120c757829003601f168201915b505050505081525050905092915050565b8173ffffffffffffffffffffffffffffffffffffffff163373ffffffffffffffffffffffffffffffffffffffff161415612164576040517f08c379a000000000000000000000000000000000000000000000000000000000815260040161215b90613ee1565b60405180910390fd5b6000600160008473ffffffffffffffffffffffffffffffffffffffff1673ffffffffffffffffffffffffffffffffffffffff1681526020019081526020016000208054905014156121ea576040517f08c379a00000000000000000000000000000000000000000000000000000000081526004016121e190613e09565b60405180910390fd5b600160008373ffffffffffffffffffffffffffffffffffffffff1673ffffffffffffffffffffffffffffffffffffffff16815260200190815260200160002080549050811061226e576040517f08c379a000000000000000000000000000000000000000000000000000000000815260040161226590613e75565b60405180910390fd5b6000600160008473ffffffffffffffffffffffffffffffffffffffff1673ffffffffffffffffffffffffffffffffffffffff16815260200190815260200160002082815481106122c1576122c06133df565b5b90600052602060002090600602016040518060c00160405290816000820180546122ea9061364a565b80601f01602080910402602001604051908101604052809291908181526020018280546123169061364a565b80156123635780601f1061233857610100808354040283529160200191612363565b820191906000526020600020905b81548152906001019060200180831161234657829003601f168201915b5050505050815260200160018201805461237c9061364a565b80601f01602080910402602001604051908101604052809291908181526020018280546123a89061364a565b80156123f55780601f106123ca576101008083540402835291602001916123f5565b820191906000526020600020905b8154815290600101906020018083116123d857829003601f168201915b5050505050815260200160028201548152602001600382015481526020016004820180546124229061364a565b80601f016020809104026020016040519081016040528092919081815260200182805461244e9061364a565b801561249b5780601f106124705761010080835404028352916020019161249b565b820191906000526020600020905b81548152906001019060200180831161247e57829003601f168201915b505050505081526020016005820180546124b49061364a565b80601f01602080910402602001604051908101604052809291908181526020018280546124e09061364a565b801561252d5780601f106125025761010080835404028352916020019161252d565b820191906000526020600020905b81548152906001019060200180831161251057829003601f168201915b5050505050815250509050806040015134826060015161254d91906137ef565b1061258d576040517f08c379a0000000000000000000000000000000000000000000000000000000008152600401612584906136ee565b60405180910390fd5b806060015181604001516125a19190613f01565b3411156125e3576040517f08c379a00000000000000000000000000000000000000000000000000000000081526004016125da90613fa7565b60405180910390fd5b60008373ffffffffffffffffffffffffffffffffffffffff16346040516126099061373f565b60006040518083038185875af1925050503d8060008114612646576040519150601f19603f3d011682016040523d82523d6000602084013e61264b565b606091505b505090508061268f576040517f08c379a0000000000000000000000000000000000000000000000000000000008152600401612686906137a0565b60405180910390fd5b34826060018181516126a191906137ef565b9150818152505081600160008673ffffffffffffffffffffffffffffffffffffffff1673ffffffffffffffffffffffffffffffffffffffff16815260200190815260200160002084815481106126fa576126f96133df565b5b90600052602060002090600602016000820151816000019080519060200190612724929190612b22565b506020820151816001019080519060200190612741929190612b22565b5060408201518160020155606082015181600301556080820151816004019080519060200190612772929190612b22565b5060a082015181600501908051906020019061278f929190612b22565b50905050600260009054906101000a900473ffffffffffffffffffffffffffffffffffffffff1673ffffffffffffffffffffffffffffffffffffffff166340c10f1933346040518363ffffffff1660e01b81526004016127f0929190613845565b600060405180830381600087803b15801561280a57600080fd5b505af115801561281e573d6000803e3d6000fd5b5050505050505050565b6060600160008373ffffffffffffffffffffffffffffffffffffffff1673ffffffffffffffffffffffffffffffffffffffff168152602001908152602001600020805480602002602001604051908101604052809291908181526020016000905b82821015612b1757838290600052602060002090600602016040518060c00160405290816000820180546128bc9061364a565b80601f01602080910402602001604051908101604052809291908181526020018280546128e89061364a565b80156129355780601f1061290a57610100808354040283529160200191612935565b820191906000526020600020905b81548152906001019060200180831161291857829003601f168201915b5050505050815260200160018201805461294e9061364a565b80601f016020809104026020016040519081016040528092919081815260200182805461297a9061364a565b80156129c75780601f1061299c576101008083540402835291602001916129c7565b820191906000526020600020905b8154815290600101906020018083116129aa57829003601f168201915b5050505050815260200160028201548152602001600382015481526020016004820180546129f49061364a565b80601f0160208091040260200160405190810160405280929190818152602001828054612a209061364a565b8015612a6d5780601f10612a4257610100808354040283529160200191612a6d565b820191906000526020600020905b815481529060010190602001808311612a5057829003601f168201915b50505050508152602001600582018054612a869061364a565b80601f0160208091040260200160405190810160405280929190818152602001828054612ab29061364a565b8015612aff5780601f10612ad457610100808354040283529160200191612aff565b820191906000526020600020905b815481529060010190602001808311612ae257829003601f168201915b50505050508152505081526020019060010190612889565b505050509050919050565b828054612b2e9061364a565b90600052602060002090601f016020900481019282612b505760008555612b97565b82601f10612b6957805160ff1916838001178555612b97565b82800160010185558215612b97579182015b82811115612b96578251825591602001919060010190612b7b565b5b509050612ba49190612bde565b5090565b6040518060c001604052806060815260200160608152602001600081526020016000815260200160608152602001606081525090565b5b80821115612bf7576000816000905550600101612bdf565b5090565b6000604051905090565b600080fd5b600080fd5b6000819050919050565b612c2281612c0f565b8114612c2d57600080fd5b50565b600081359050612c3f81612c19565b92915050565b600060208284031215612c5b57612c5a612c05565b5b6000612c6984828501612c30565b91505092915050565b600073ffffffffffffffffffffffffffffffffffffffff82169050919050565b6000612c9d82612c72565b9050919050565b612cad81612c92565b8114612cb857600080fd5b50565b600081359050612cca81612ca4565b92915050565b600080600080600060a08688031215612cec57612ceb612c05565b5b6000612cfa88828901612cbb565b9550506020612d0b88828901612c30565b9450506040612d1c88828901612c30565b9350506060612d2d88828901612cbb565b9250506080612d3e88828901612c30565b9150509295509295909350565b7f4e487b7100000000000000000000000000000000000000000000000000000000600052602160045260246000fd5b60038110612d8b57612d8a612d4b565b5b50565b6000819050612d9c82612d7a565b919050565b6000612dac82612d8e565b9050919050565b612dbc81612da1565b82525050565b612dcb81612c92565b82525050565b612dda81612c0f565b82525050565b600060e082019050612df5600083018a612db3565b612e026020830189612dc2565b612e0f6040830188612dd1565b612e1c6060830187612dc2565b612e296080830186612dd1565b612e3660a0830185612dc2565b612e4360c0830184612dd1565b98975050505050505050565b600080fd5b600080fd5b600080fd5b60008083601f840112612e7457612e73612e4f565b5b8235905067ffffffffffffffff811115612e9157612e90612e54565b5b602083019150836001820283011115612ead57612eac612e59565b5b9250929050565b600080600080600080600080600060a08a8c031215612ed657612ed5612c05565b5b60008a013567ffffffffffffffff811115612ef457612ef3612c0a565b5b612f008c828d01612e5e565b995099505060208a013567ffffffffffffffff811115612f2357612f22612c0a565b5b612f2f8c828d01612e5e565b97509750506040612f428c828d01612c30565b95505060608a013567ffffffffffffffff811115612f6357612f62612c0a565b5b612f6f8c828d01612e5e565b945094505060808a013567ffffffffffffffff811115612f9257612f91612c0a565b5b612f9e8c828d01612e5e565b92509250509295985092959850929598565b60008060408385031215612fc757612fc6612c05565b5b6000612fd585828601612cbb565b9250506020612fe685828601612c30565b9150509250929050565b600081519050919050565b600082825260208201905092915050565b60005b8381101561302a57808201518184015260208101905061300f565b83811115613039576000848401525b50505050565b6000601f19601f8301169050919050565b600061305b82612ff0565b6130658185612ffb565b935061307581856020860161300c565b61307e8161303f565b840191505092915050565b600060208201905081810360008301526130a38184613050565b905092915050565b600082825260208201905092915050565b60006130c782612ff0565b6130d181856130ab565b93506130e181856020860161300c565b6130ea8161303f565b840191505092915050565b6130fe81612c0f565b82525050565b600060c083016000830151848203600086015261312182826130bc565b9150506020830151848203602086015261313b82826130bc565b915050604083015161315060408601826130f5565b50606083015161316360608601826130f5565b506080830151848203608086015261317b82826130bc565b91505060a083015184820360a086015261319582826130bc565b9150508091505092915050565b600060208201905081810360008301526131bc8184613104565b905092915050565b6000602082840312156131da576131d9612c05565b5b60006131e884828501612cbb565b91505092915050565b600081519050919050565b600082825260208201905092915050565b6000819050602082019050919050565b600060c083016000830151848203600086015261323a82826130bc565b9150506020830151848203602086015261325482826130bc565b915050604083015161326960408601826130f5565b50606083015161327c60608601826130f5565b506080830151848203608086015261329482826130bc565b91505060a083015184820360a08601526132ae82826130bc565b9150508091505092915050565b60006132c7838361321d565b905092915050565b6000602082019050919050565b60006132e7826131f1565b6132f181856131fc565b9350836020820285016133038561320d565b8060005b8581101561333f578484038952815161332085826132bb565b945061332b836132cf565b925060208a01995050600181019050613307565b50829750879550505050505092915050565b6000602082019050818103600083015261336b81846132dc565b905092915050565b7f4e465420646f65736e2774206578697374732100000000000000000000000000600082015250565b60006133a9601383612ffb565b91506133b482613373565b602082019050919050565b600060208201905081810360008301526133d88161339c565b9050919050565b7f4e487b7100000000000000000000000000000000000000000000000000000000600052603260045260246000fd5b7f596f752077657265206e6f7420746865206f776e6572206f662074686973206e60008201527f6674000000000000000000000000000000000000000000000000000000000000602082015250565b600061346a602283612ffb565b91506134758261340e565b604082019050919050565b600060208201905081810360008301526134998161345d565b9050919050565b7f4e465420697320616c726561647920646f6e6174656400000000000000000000600082015250565b60006134d6601683612ffb565b91506134e1826134a0565b602082019050919050565b60006020820190508181036000830152613505816134c9565b9050919050565b60006060820190506135216000830186612dc2565b61352e6020830185612dc2565b61353b6040830184612dd1565b949350505050565b7f4e4654206973206e6f74206c6973746564000000000000000000000000000000600082015250565b6000613579601183612ffb565b915061358482613543565b602082019050919050565b600060208201905081810360008301526135a88161356c565b9050919050565b7f4769667420697320746f6f20657870656e736976650000000000000000000000600082015250565b60006135e5601583612ffb565b91506135f0826135af565b602082019050919050565b60006020820190508181036000830152613614816135d8565b9050919050565b7f4e487b7100000000000000000000000000000000000000000000000000000000600052602260045260246000fd5b6000600282049050600182168061366257607f821691505b602082108114156136765761367561361b565b5b50919050565b7f43616d706169676e20697320616c72656164792072656163686564206974277360008201527f2074617267657420616d6f756e742e0000000000000000000000000000000000602082015250565b60006136d8602f83612ffb565b91506136e38261367c565b604082019050919050565b60006020820190508181036000830152613707816136cb565b9050919050565b600081905092915050565b50565b600061372960008361370e565b915061373482613719565b600082019050919050565b600061374a8261371c565b9150819050919050565b7f4661696c656420746f207472616e73666572206769667420616d6f756e740000600082015250565b600061378a601e83612ffb565b915061379582613754565b602082019050919050565b600060208201905081810360008301526137b98161377d565b9050919050565b7f4e487b7100000000000000000000000000000000000000000000000000000000600052601160045260246000fd5b60006137fa82612c0f565b915061380583612c0f565b9250827fffffffffffffffffffffffffffffffffffffffffffffffffffffffffffffffff0382111561383a576138396137c0565b5b828201905092915050565b600060408201905061385a6000830185612dc2565b6138676020830184612dd1565b9392505050565b7f4e487b7100000000000000000000000000000000000000000000000000000000600052601260045260246000fd5b60006138a882612c0f565b91506138b383612c0f565b9250826138c3576138c261386e565b5b828204905092915050565b7f43616d706169676e20646f6573206e6f74206578697374732e00000000000000600082015250565b6000613904601983612ffb565b915061390f826138ce565b602082019050919050565b60006020820190508181036000830152613933816138f7565b9050919050565b600060208201905061394f6000830184612dd1565b92915050565b60008151905061396481612ca4565b92915050565b6000602082840312156139805761397f612c05565b5b600061398e84828501613955565b91505092915050565b7f596f7520617265206e6f7420746865206f776e6572206f66207468697320746f60008201527f6b656e0000000000000000000000000000000000000000000000000000000000602082015250565b60006139f3602383612ffb565b91506139fe82613997565b604082019050919050565b60006020820190508181036000830152613a22816139e6565b9050919050565b7f506c6561736520617070726f76652074686520636f6e747261637420746f206160008201527f636365737320796f7572204e4654206265666f726520646f6e6174696e670000602082015250565b6000613a85603e83612ffb565b9150613a9082613a29565b604082019050919050565b60006020820190508181036000830152613ab481613a78565b9050919050565b7f54617267657420616d6f756e742073686f756c6420626520677265617465722060008201527f7468616e20300000000000000000000000000000000000000000000000000000602082015250565b6000613b17602683612ffb565b9150613b2282613abb565b604082019050919050565b60006020820190508181036000830152613b4681613b0a565b9050919050565b82818337600083830152505050565b6000613b688385612ffb565b9350613b75838584613b4d565b613b7e8361303f565b840190509392505050565b6000819050919050565b6000819050919050565b6000613bb8613bb3613bae84613b89565b613b93565b612c0f565b9050919050565b613bc881613b9d565b82525050565b600060c0820190508181036000830152613be9818c8e613b5c565b90508181036020830152613bfe818a8c613b5c565b9050613c0d6040830189612dd1565b613c1a6060830188613bbf565b8181036080830152613c2d818688613b5c565b905081810360a0830152613c42818486613b5c565b90509b9a5050505050505050505050565b600080fd5b7f4e487b7100000000000000000000000000000000000000000000000000000000600052604160045260246000fd5b613c908261303f565b810181811067ffffffffffffffff82111715613caf57613cae613c58565b5b80604052505050565b6000613cc2612bfb565b9050613cce8282613c87565b919050565b600067ffffffffffffffff821115613cee57613ced613c58565b5b613cf78261303f565b9050602081019050919050565b6000613d17613d1284613cd3565b613cb8565b905082815260208101848484011115613d3357613d32613c53565b5b613d3e84828561300c565b509392505050565b600082601f830112613d5b57613d5a612e4f565b5b8151613d6b848260208601613d04565b91505092915050565b600060208284031215613d8a57613d89612c05565b5b600082015167ffffffffffffffff811115613da857613da7612c0a565b5b613db484828501613d46565b91505092915050565b7f4e6f2063616d706169676e7320666f756e640000000000000000000000000000600082015250565b6000613df3601283612ffb565b9150613dfe82613dbd565b602082019050919050565b60006020820190508181036000830152613e2281613de6565b9050919050565b7f496e646578206f7574206f6620626f756e647300000000000000000000000000600082015250565b6000613e5f601383612ffb565b9150613e6a82613e29565b602082019050919050565b60006020820190508181036000830152613e8e81613e52565b9050919050565b7f596f752063616e6e6f74206769667420746f20796f757273656c660000000000600082015250565b6000613ecb601b83612ffb565b9150613ed682613e95565b602082019050919050565b60006020820190508181036000830152613efa81613ebe565b9050919050565b6000613f0c82612c0f565b9150613f1783612c0f565b925082821015613f2a57613f296137c0565b5b828203905092915050565b7f446f6e6174696f6e206973206c6172676572207468616e207468652072656d6160008201527f696e696e672074617267657420616d6f756e742e000000000000000000000000602082015250565b6000613f91603483612ffb565b9150613f9c82613f35565b604082019050919050565b60006020820190508181036000830152613fc081613f84565b905091905056fea2646970667358221220401e66490aa3dfdc90aa77618960e8c84cf5920e4e3a0591c451f2fd7adba29a64736f6c634300080b0033",
  "linkReferences": {},
  "deployedLinkReferences": {}
}