{
  "_format": "hh-sol-artifact-1",
  "contractName": "Gift",
  "sourceName": "contracts/Gift.sol",
  "abi": [
    {
      "inputs": [
        {
          "internalType": "contract GiftToken",
          "name": "_token",
          "type": "address"
        }
      ],
      "stateMutability": "nonpayable",
      "type": "constructor"
    },
    {
      "anonymous": false,
      "inputs": [
        {
          "indexed": true,
          "internalType": "address",
          "name": "creator",
          "type": "address"
        },
        {
          "indexed": false,
          "internalType": "string",
          "name": "title",
          "type": "string"
        },
        {
          "indexed": false,
          "internalType": "string",
          "name": "description",
          "type": "string"
        },
        {
          "indexed": false,
          "internalType": "uint256",
          "name": "targetAmount",
          "type": "uint256"
        },
        {
          "indexed": false,
          "internalType": "uint256",
          "name": "collectedAmount",
          "type": "uint256"
        },
        {
          "indexed": false,
          "internalType": "string",
          "name": "image",
          "type": "string"
        },
        {
          "indexed": false,
          "internalType": "string",
          "name": "externalLink",
          "type": "string"
        }
      ],
      "name": "CampaignCreated",
      "type": "event"
    },
    {
      "inputs": [
        {
          "internalType": "uint256",
          "name": "_index",
          "type": "uint256"
        }
      ],
      "name": "buyNFT",
      "outputs": [],
      "stateMutability": "payable",
      "type": "function"
    },
    {
      "inputs": [
        {
          "internalType": "uint256",
          "name": "_index",
          "type": "uint256"
        }
      ],
      "name": "claimBackNFT",
      "outputs": [],
      "stateMutability": "payable",
      "type": "function"
    },
    {
      "inputs": [
        {
          "internalType": "string",
          "name": "_title",
          "type": "string"
        },
        {
          "internalType": "string",
          "name": "_description",
          "type": "string"
        },
        {
          "internalType": "uint256",
          "name": "_targetAmount",
          "type": "uint256"
        },
        {
          "internalType": "string",
          "name": "_image",
          "type": "string"
        },
        {
          "internalType": "string",
          "name": "_externalLink",
          "type": "string"
        }
      ],
      "name": "createCampaign",
      "outputs": [],
      "stateMutability": "nonpayable",
      "type": "function"
    },
    {
      "inputs": [
        {
          "internalType": "address",
          "name": "_nftContractAddress",
          "type": "address"
        },
        {
          "internalType": "uint256",
          "name": "_tokenId",
          "type": "uint256"
        },
        {
          "internalType": "uint256",
          "name": "_price",
          "type": "uint256"
        },
        {
          "internalType": "address",
          "name": "_campaignCreator",
          "type": "address"
        },
        {
          "internalType": "uint256",
          "name": "_campaignIndex",
          "type": "uint256"
        }
      ],
      "name": "donateNFT",
      "outputs": [],
      "stateMutability": "payable",
      "type": "function"
    },
    {
      "inputs": [
        {
          "internalType": "address",
          "name": "_creator",
          "type": "address"
        },
        {
          "internalType": "uint256",
          "name": "index",
          "type": "uint256"
        }
      ],
      "name": "getCampaign",
      "outputs": [
        {
          "components": [
            {
              "internalType": "string",
              "name": "title",
              "type": "string"
            },
            {
              "internalType": "string",
              "name": "description",
              "type": "string"
            },
            {
              "internalType": "uint256",
              "name": "targetAmount",
              "type": "uint256"
            },
            {
              "internalType": "uint256",
              "name": "collectedAmount",
              "type": "uint256"
            },
            {
              "internalType": "string",
              "name": "image",
              "type": "string"
            },
            {
              "internalType": "string",
              "name": "externalLink",
              "type": "string"
            }
          ],
          "internalType": "struct Gift.Campaign",
          "name": "",
          "type": "tuple"
        }
      ],
      "stateMutability": "view",
      "type": "function"
    },
    {
      "inputs": [
        {
          "internalType": "address",
          "name": "_creator",
          "type": "address"
        }
      ],
      "name": "getCampaignsByCreator",
      "outputs": [
        {
          "components": [
            {
              "internalType": "string",
              "name": "title",
              "type": "string"
            },
            {
              "internalType": "string",
              "name": "description",
              "type": "string"
            },
            {
              "internalType": "uint256",
              "name": "targetAmount",
              "type": "uint256"
            },
            {
              "internalType": "uint256",
              "name": "collectedAmount",
              "type": "uint256"
            },
            {
              "internalType": "string",
              "name": "image",
              "type": "string"
            },
            {
              "internalType": "string",
              "name": "externalLink",
              "type": "string"
            }
          ],
          "internalType": "struct Gift.Campaign[]",
          "name": "",
          "type": "tuple[]"
        }
      ],
      "stateMutability": "view",
      "type": "function"
    },
    {
      "inputs": [
        {
          "internalType": "address",
          "name": "_contract",
          "type": "address"
        },
        {
          "internalType": "uint256",
          "name": "_tokenId",
          "type": "uint256"
        }
      ],
      "name": "getNFTMetadata",
      "outputs": [
        {
          "internalType": "string",
          "name": "",
          "type": "string"
        }
      ],
      "stateMutability": "view",
      "type": "function"
    },
    {
      "inputs": [],
      "name": "getNftGifts",
      "outputs": [
        {
          "components": [
            {
              "internalType": "enum Gift.NFTGiftState",
              "name": "status",
              "type": "uint8"
            },
            {
              "internalType": "address",
              "name": "contractAddress",
              "type": "address"
            },
            {
              "internalType": "uint256",
              "name": "tokenId",
              "type": "uint256"
            },
            {
              "internalType": "address",
              "name": "prevOwner",
              "type": "address"
            },
            {
              "internalType": "uint256",
              "name": "price",
              "type": "uint256"
            },
            {
              "internalType": "address",
              "name": "campaignCreator",
              "type": "address"
            },
            {
              "internalType": "uint256",
              "name": "campaignId",
              "type": "uint256"
            }
          ],
          "internalType": "struct Gift.NFTGift[]",
          "name": "",
          "type": "tuple[]"
        }
      ],
      "stateMutability": "view",
      "type": "function"
    },
    {
      "inputs": [
        {
          "internalType": "address",
          "name": "_creator",
          "type": "address"
        },
        {
          "internalType": "uint256",
          "name": "index",
          "type": "uint256"
        }
      ],
      "name": "gift",
      "outputs": [],
      "stateMutability": "payable",
      "type": "function"
    },
    {
      "inputs": [
        {
          "internalType": "uint256",
          "name": "",
          "type": "uint256"
        }
      ],
      "name": "nftGifts",
      "outputs": [
        {
          "internalType": "enum Gift.NFTGiftState",
          "name": "status",
          "type": "uint8"
        },
        {
          "internalType": "address",
          "name": "contractAddress",
          "type": "address"
        },
        {
          "internalType": "uint256",
          "name": "tokenId",
          "type": "uint256"
        },
        {
          "internalType": "address",
          "name": "prevOwner",
          "type": "address"
        },
        {
          "internalType": "uint256",
          "name": "price",
          "type": "uint256"
        },
        {
          "internalType": "address",
          "name": "campaignCreator",
          "type": "address"
        },
        {
          "internalType": "uint256",
          "name": "campaignId",
          "type": "uint256"
        }
      ],
      "stateMutability": "view",
      "type": "function"
    },
    {
      "inputs": [
        {
          "internalType": "uint256",
          "name": "_nftIndex",
          "type": "uint256"
        }
      ],
      "name": "revokeNFtGift",
      "outputs": [],
      "stateMutability": "nonpayable",
      "type": "function"
    }
  ],
  "bytecode": "0x60806040523480156200001157600080fd5b50604051620048c2380380620048c28339818101604052810190620000379190620000fd565b80600260006101000a81548173ffffffffffffffffffffffffffffffffffffffff021916908373ffffffffffffffffffffffffffffffffffffffff160217905550506200012f565b600080fd5b600073ffffffffffffffffffffffffffffffffffffffff82169050919050565b6000620000b18262000084565b9050919050565b6000620000c582620000a4565b9050919050565b620000d781620000b8565b8114620000e357600080fd5b50565b600081519050620000f781620000cc565b92915050565b6000602082840312156200011657620001156200007f565b5b60006200012684828501620000e6565b91505092915050565b614783806200013f6000396000f3fe60806040526004361061009b5760003560e01c806388cd69711161006457806388cd697114610148578063a076913e1461018b578063a838e43b146101b4578063b08328b4146101f1578063cbce4c971461022e578063d5b8d84a1461024a5761009b565b80623a4772146100a057806309a81929146100cb578063247ca62a146100f457806351ed828814610110578063873e58db1461012c575b600080fd5b3480156100ac57600080fd5b506100b5610287565b6040516100c291906132ee565b60405180910390f35b3480156100d757600080fd5b506100f260048036038101906100ed9190613350565b610441565b005b61010e60048036038101906101099190613350565b610703565b005b61012a60048036038101906101259190613350565b610bb1565b005b610146600480360381019061014191906133a9565b6115b8565b005b34801561015457600080fd5b5061016f600480360381019061016a9190613350565b611dc7565b6040516101829796959493929190613451565b60405180910390f35b34801561019757600080fd5b506101b260048036038101906101ad9190613525565b611e86565b005b3480156101c057600080fd5b506101db60048036038101906101d69190613621565b61216b565b6040516101e891906136fa565b60405180910390f35b3480156101fd57600080fd5b5061021860048036038101906102139190613621565b6121fa565b6040516102259190613804565b60405180910390f35b61024860048036038101906102439190613621565b6125da565b005b34801561025657600080fd5b50610271600480360381019061026c9190613826565b612d0d565b60405161027e91906139b3565b60405180910390f35b60606000805480602002602001604051908101604052809291908181526020016000905b8282101561043857838290600052602060002090600602016040518060e00160405290816000820160009054906101000a900460ff1660028111156102f3576102f261310c565b5b60028111156103055761030461310c565b5b81526020016000820160019054906101000a900473ffffffffffffffffffffffffffffffffffffffff1673ffffffffffffffffffffffffffffffffffffffff1673ffffffffffffffffffffffffffffffffffffffff168152602001600182015481526020016002820160009054906101000a900473ffffffffffffffffffffffffffffffffffffffff1673ffffffffffffffffffffffffffffffffffffffff1673ffffffffffffffffffffffffffffffffffffffff168152602001600382015481526020016004820160009054906101000a900473ffffffffffffffffffffffffffffffffffffffff1673ffffffffffffffffffffffffffffffffffffffff1673ffffffffffffffffffffffffffffffffffffffff168152602001600582015481525050815260200190600101906102ab565b50505050905090565b6000805490508110610488576040517f08c379a000000000000000000000000000000000000000000000000000000000815260040161047f90613a21565b60405180910390fd5b6000818154811061049c5761049b613a41565b5b906000526020600020906006020160020160009054906101000a900473ffffffffffffffffffffffffffffffffffffffff1673ffffffffffffffffffffffffffffffffffffffff163373ffffffffffffffffffffffffffffffffffffffff161461053b576040517f08c379a000000000000000000000000000000000000000000000000000000000815260040161053290613ae2565b60405180910390fd5b6000600281111561054f5761054e61310c565b5b6000828154811061056357610562613a41565b5b906000526020600020906006020160000160009054906101000a900460ff1660028111156105945761059361310c565b5b146105d4576040517f08c379a00000000000000000000000000000000000000000000000000000000081526004016105cb90613b74565b60405180910390fd5b60008082815481106105e9576105e8613a41565b5b906000526020600020906006020160000160019054906101000a900473ffffffffffffffffffffffffffffffffffffffff1690508073ffffffffffffffffffffffffffffffffffffffff166323b872dd30336000868154811061064f5761064e613a41565b5b9060005260206000209060060201600101546040518463ffffffff1660e01b815260040161067f93929190613b94565b600060405180830381600087803b15801561069957600080fd5b505af11580156106ad573d6000803e3d6000fd5b505050506001600083815481106106c7576106c6613a41565b5b906000526020600020906006020160000160006101000a81548160ff021916908360028111156106fa576106f961310c565b5b02179055505050565b600080549050811061074a576040517f08c379a000000000000000000000000000000000000000000000000000000000815260040161074190613c17565b60405180910390fd5b600080828154811061075f5761075e613a41565b5b90600052602060002090600602016040518060e00160405290816000820160009054906101000a900460ff16600281111561079d5761079c61310c565b5b60028111156107af576107ae61310c565b5b81526020016000820160019054906101000a900473ffffffffffffffffffffffffffffffffffffffff1673ffffffffffffffffffffffffffffffffffffffff1673ffffffffffffffffffffffffffffffffffffffff168152602001600182015481526020016002820160009054906101000a900473ffffffffffffffffffffffffffffffffffffffff1673ffffffffffffffffffffffffffffffffffffffff1673ffffffffffffffffffffffffffffffffffffffff168152602001600382015481526020016004820160009054906101000a900473ffffffffffffffffffffffffffffffffffffffff1673ffffffffffffffffffffffffffffffffffffffff1673ffffffffffffffffffffffffffffffffffffffff16815260200160058201548152505090503373ffffffffffffffffffffffffffffffffffffffff16816060015173ffffffffffffffffffffffffffffffffffffffff1614610947576040517f08c379a000000000000000000000000000000000000000000000000000000000815260040161093e90613ca9565b60405180910390fd5b60028081111561095a5761095961310c565b5b816000015160028111156109715761097061310c565b5b14156109b2576040517f08c379a00000000000000000000000000000000000000000000000000000000081526004016109a990613d15565b60405180910390fd5b6000816020015190508073ffffffffffffffffffffffffffffffffffffffff166323b872dd30846060015185604001516040518463ffffffff1660e01b8152600401610a0093929190613b94565b600060405180830381600087803b158015610a1a57600080fd5b505af1158015610a2e573d6000803e3d6000fd5b50505050600182600001906002811115610a4b57610a4a61310c565b5b90816002811115610a5f57610a5e61310c565b5b815250508160008481548110610a7857610a77613a41565b5b906000526020600020906006020160008201518160000160006101000a81548160ff02191690836002811115610ab157610ab061310c565b5b021790555060208201518160000160016101000a81548173ffffffffffffffffffffffffffffffffffffffff021916908373ffffffffffffffffffffffffffffffffffffffff1602179055506040820151816001015560608201518160020160006101000a81548173ffffffffffffffffffffffffffffffffffffffff021916908373ffffffffffffffffffffffffffffffffffffffff1602179055506080820151816003015560a08201518160040160006101000a81548173ffffffffffffffffffffffffffffffffffffffff021916908373ffffffffffffffffffffffffffffffffffffffff16021790555060c08201518160050155905050505050565b6000805490508110610bf8576040517f08c379a0000000000000000000000000000000000000000000000000000000008152600401610bef90613c17565b60405180910390fd5b60006002811115610c0c57610c0b61310c565b5b60008281548110610c2057610c1f613a41565b5b906000526020600020906006020160000160009054906101000a900460ff166002811115610c5157610c5061310c565b5b14610c91576040517f08c379a0000000000000000000000000000000000000000000000000000000008152600401610c8890613d81565b60405180910390fd5b3460008281548110610ca657610ca5613a41565b5b9060005260206000209060060201600301541115610cf9576040517f08c379a0000000000000000000000000000000000000000000000000000000008152600401610cf090613ded565b60405180910390fd5b600060016000808481548110610d1257610d11613a41565b5b906000526020600020906006020160040160009054906101000a900473ffffffffffffffffffffffffffffffffffffffff1673ffffffffffffffffffffffffffffffffffffffff1673ffffffffffffffffffffffffffffffffffffffff16815260200190815260200160002060008381548110610d9257610d91613a41565b5b90600052602060002090600602016005015481548110610db557610db4613a41565b5b90600052602060002090600602016040518060c0016040529081600082018054610dde90613e3c565b80601f0160208091040260200160405190810160405280929190818152602001828054610e0a90613e3c565b8015610e575780601f10610e2c57610100808354040283529160200191610e57565b820191906000526020600020905b815481529060010190602001808311610e3a57829003601f168201915b50505050508152602001600182018054610e7090613e3c565b80601f0160208091040260200160405190810160405280929190818152602001828054610e9c90613e3c565b8015610ee95780601f10610ebe57610100808354040283529160200191610ee9565b820191906000526020600020905b815481529060010190602001808311610ecc57829003601f168201915b505050505081526020016002820154815260200160038201548152602001600482018054610f1690613e3c565b80601f0160208091040260200160405190810160405280929190818152602001828054610f4290613e3c565b8015610f8f5780601f10610f6457610100808354040283529160200191610f8f565b820191906000526020600020905b815481529060010190602001808311610f7257829003601f168201915b50505050508152602001600582018054610fa890613e3c565b80601f0160208091040260200160405190810160405280929190818152602001828054610fd490613e3c565b80156110215780601f10610ff657610100808354040283529160200191611021565b820191906000526020600020905b81548152906001019060200180831161100457829003601f168201915b50505050508152505090508060400151816060015110611076576040517f08c379a000000000000000000000000000000000000000000000000000000000815260040161106d90613ee0565b60405180910390fd5b600080838154811061108b5761108a613a41565b5b906000526020600020906006020160000160019054906101000a900473ffffffffffffffffffffffffffffffffffffffff1690508073ffffffffffffffffffffffffffffffffffffffff166323b872dd3033600087815481106110f1576110f0613a41565b5b9060005260206000209060060201600101546040518463ffffffff1660e01b815260040161112193929190613b94565b600060405180830381600087803b15801561113b57600080fd5b505af115801561114f573d6000803e3d6000fd5b50505050600080848154811061116857611167613a41565b5b906000526020600020906006020160040160009054906101000a900473ffffffffffffffffffffffffffffffffffffffff1673ffffffffffffffffffffffffffffffffffffffff16346040516111bd90613f31565b60006040518083038185875af1925050503d80600081146111fa576040519150601f19603f3d011682016040523d82523d6000602084013e6111ff565b606091505b5050905080611243576040517f08c379a000000000000000000000000000000000000000000000000000000000815260040161123a90613f92565b60405180910390fd5b34836060018181516112559190613fe1565b91508181525050826001600080878154811061127457611273613a41565b5b906000526020600020906006020160040160009054906101000a900473ffffffffffffffffffffffffffffffffffffffff1673ffffffffffffffffffffffffffffffffffffffff1673ffffffffffffffffffffffffffffffffffffffff168152602001908152602001600020600086815481106112f4576112f3613a41565b5b9060005260206000209060060201600501548154811061131757611316613a41565b5b90600052602060002090600602016000820151816000019080519060200190611341929190613007565b50602082015181600101908051906020019061135e929190613007565b506040820151816002015560608201518160030155608082015181600401908051906020019061138f929190613007565b5060a08201518160050190805190602001906113ac929190613007565b50905050600260009054906101000a900473ffffffffffffffffffffffffffffffffffffffff1673ffffffffffffffffffffffffffffffffffffffff166340c10f196000868154811061140257611401613a41565b5b906000526020600020906006020160020160009054906101000a900473ffffffffffffffffffffffffffffffffffffffff16346040518363ffffffff1660e01b8152600401611452929190614037565b600060405180830381600087803b15801561146c57600080fd5b505af1158015611480573d6000803e3d6000fd5b50505050600260009054906101000a900473ffffffffffffffffffffffffffffffffffffffff1673ffffffffffffffffffffffffffffffffffffffff166340c10f19600086815481106114d6576114d5613a41565b5b906000526020600020906006020160020160009054906101000a900473ffffffffffffffffffffffffffffffffffffffff16606434611515919061408f565b6040518363ffffffff1660e01b8152600401611532929190614037565b600060405180830381600087803b15801561154c57600080fd5b505af1158015611560573d6000803e3d6000fd5b5050505060026000858154811061157a57611579613a41565b5b906000526020600020906006020160000160006101000a81548160ff021916908360028111156115ad576115ac61310c565b5b021790555050505050565b6000600160008473ffffffffffffffffffffffffffffffffffffffff1673ffffffffffffffffffffffffffffffffffffffff1681526020019081526020016000208054905014158061164b5750600160008373ffffffffffffffffffffffffffffffffffffffff1673ffffffffffffffffffffffffffffffffffffffff1681526020019081526020016000208054905081105b61168a576040517f08c379a00000000000000000000000000000000000000000000000000000000081526004016116819061410c565b60405180910390fd5b6000600160008473ffffffffffffffffffffffffffffffffffffffff1673ffffffffffffffffffffffffffffffffffffffff16815260200190815260200160002082815481106116dd576116dc613a41565b5b90600052602060002090600602016040518060c001604052908160008201805461170690613e3c565b80601f016020809104026020016040519081016040528092919081815260200182805461173290613e3c565b801561177f5780601f106117545761010080835404028352916020019161177f565b820191906000526020600020905b81548152906001019060200180831161176257829003601f168201915b5050505050815260200160018201805461179890613e3c565b80601f01602080910402602001604051908101604052809291908181526020018280546117c490613e3c565b80156118115780601f106117e657610100808354040283529160200191611811565b820191906000526020600020905b8154815290600101906020018083116117f457829003601f168201915b50505050508152602001600282015481526020016003820154815260200160048201805461183e90613e3c565b80601f016020809104026020016040519081016040528092919081815260200182805461186a90613e3c565b80156118b75780601f1061188c576101008083540402835291602001916118b7565b820191906000526020600020905b81548152906001019060200180831161189a57829003601f168201915b505050505081526020016005820180546118d090613e3c565b80601f01602080910402602001604051908101604052809291908181526020018280546118fc90613e3c565b80156119495780601f1061191e57610100808354040283529160200191611949565b820191906000526020600020905b81548152906001019060200180831161192c57829003601f168201915b5050505050815250509050806040015181606001511061199e576040517f08c379a000000000000000000000000000000000000000000000000000000000815260040161199590613ee0565b60405180910390fd5b60008690503373ffffffffffffffffffffffffffffffffffffffff168173ffffffffffffffffffffffffffffffffffffffff16636352211e886040518263ffffffff1660e01b81526004016119f3919061412c565b602060405180830381865afa158015611a10573d6000803e3d6000fd5b505050506040513d601f19601f82011682018060405250810190611a34919061415c565b73ffffffffffffffffffffffffffffffffffffffff1614611a8a576040517f08c379a0000000000000000000000000000000000000000000000000000000008152600401611a81906141fb565b60405180910390fd5b3073ffffffffffffffffffffffffffffffffffffffff168173ffffffffffffffffffffffffffffffffffffffff1663081812fc886040518263ffffffff1660e01b8152600401611ada919061412c565b602060405180830381865afa158015611af7573d6000803e3d6000fd5b505050506040513d601f19601f82011682018060405250810190611b1b919061415c565b73ffffffffffffffffffffffffffffffffffffffff1614611b71576040517f08c379a0000000000000000000000000000000000000000000000000000000008152600401611b689061428d565b60405180910390fd5b8073ffffffffffffffffffffffffffffffffffffffff166323b872dd3330896040518463ffffffff1660e01b8152600401611bae93929190613b94565b600060405180830381600087803b158015611bc857600080fd5b505af1158015611bdc573d6000803e3d6000fd5b5050505060006040518060e0016040528060006002811115611c0157611c0061310c565b5b81526020018973ffffffffffffffffffffffffffffffffffffffff1681526020018881526020013373ffffffffffffffffffffffffffffffffffffffff1681526020018781526020018673ffffffffffffffffffffffffffffffffffffffff168152602001858152509050600081908060018154018082558091505060019003906000526020600020906006020160009091909190915060008201518160000160006101000a81548160ff02191690836002811115611cc357611cc261310c565b5b021790555060208201518160000160016101000a81548173ffffffffffffffffffffffffffffffffffffffff021916908373ffffffffffffffffffffffffffffffffffffffff1602179055506040820151816001015560608201518160020160006101000a81548173ffffffffffffffffffffffffffffffffffffffff021916908373ffffffffffffffffffffffffffffffffffffffff1602179055506080820151816003015560a08201518160040160006101000a81548173ffffffffffffffffffffffffffffffffffffffff021916908373ffffffffffffffffffffffffffffffffffffffff16021790555060c0820151816005015550505050505050505050565b60008181548110611dd757600080fd5b90600052602060002090600602016000915090508060000160009054906101000a900460ff16908060000160019054906101000a900473ffffffffffffffffffffffffffffffffffffffff16908060010154908060020160009054906101000a900473ffffffffffffffffffffffffffffffffffffffff16908060030154908060040160009054906101000a900473ffffffffffffffffffffffffffffffffffffffff16908060050154905087565b60008511611ec9576040517f08c379a0000000000000000000000000000000000000000000000000000000008152600401611ec09061431f565b60405180910390fd5b60006040518060c001604052808b8b8080601f016020809104026020016040519081016040528093929190818152602001838380828437600081840152601f19601f82011690508083019250505050505050815260200189898080601f016020809104026020016040519081016040528093929190818152602001838380828437600081840152601f19601f8201169050808301925050505050505081526020018781526020016000815260200186868080601f016020809104026020016040519081016040528093929190818152602001838380828437600081840152601f19601f82011690508083019250505050505050815260200184848080601f016020809104026020016040519081016040528093929190818152602001838380828437600081840152601f19601f820116905080830192505050505050508152509050600160003373ffffffffffffffffffffffffffffffffffffffff1673ffffffffffffffffffffffffffffffffffffffff1681526020019081526020016000208190806001815401808255809150506001900390600052602060002090600602016000909190919091506000820151816000019080519060200190612090929190613007565b5060208201518160010190805190602001906120ad929190613007565b50604082015181600201556060820151816003015560808201518160040190805190602001906120de929190613007565b5060a08201518160050190805190602001906120fb929190613007565b5050503373ffffffffffffffffffffffffffffffffffffffff167f34e80b05a0a3efd9887eda706c4d48c03b8b01a72e44d1ea8e301657e71326448b8b8b8b8b60008c8c8c8c6040516121579a999897969594939291906143c0565b60405180910390a250505050505050505050565b606060008390508073ffffffffffffffffffffffffffffffffffffffff1663c87b56dd846040518263ffffffff1660e01b81526004016121ab919061412c565b600060405180830381865afa1580156121c8573d6000803e3d6000fd5b505050506040513d6000823e3d601f19601f820116820180604052508101906121f19190614566565b91505092915050565b61220261308d565b6000600160008573ffffffffffffffffffffffffffffffffffffffff1673ffffffffffffffffffffffffffffffffffffffff168152602001908152602001600020805490501415612288576040517f08c379a000000000000000000000000000000000000000000000000000000000815260040161227f906145fb565b60405180910390fd5b600160008473ffffffffffffffffffffffffffffffffffffffff1673ffffffffffffffffffffffffffffffffffffffff16815260200190815260200160002080549050821061230c576040517f08c379a000000000000000000000000000000000000000000000000000000000815260040161230390613a21565b60405180910390fd5b600160008473ffffffffffffffffffffffffffffffffffffffff1673ffffffffffffffffffffffffffffffffffffffff168152602001908152602001600020828154811061235d5761235c613a41565b5b90600052602060002090600602016040518060c001604052908160008201805461238690613e3c565b80601f01602080910402602001604051908101604052809291908181526020018280546123b290613e3c565b80156123ff5780601f106123d4576101008083540402835291602001916123ff565b820191906000526020600020905b8154815290600101906020018083116123e257829003601f168201915b5050505050815260200160018201805461241890613e3c565b80601f016020809104026020016040519081016040528092919081815260200182805461244490613e3c565b80156124915780601f1061246657610100808354040283529160200191612491565b820191906000526020600020905b81548152906001019060200180831161247457829003601f168201915b5050505050815260200160028201548152602001600382015481526020016004820180546124be90613e3c565b80601f01602080910402602001604051908101604052809291908181526020018280546124ea90613e3c565b80156125375780601f1061250c57610100808354040283529160200191612537565b820191906000526020600020905b81548152906001019060200180831161251a57829003601f168201915b5050505050815260200160058201805461255090613e3c565b80601f016020809104026020016040519081016040528092919081815260200182805461257c90613e3c565b80156125c95780601f1061259e576101008083540402835291602001916125c9565b820191906000526020600020905b8154815290600101906020018083116125ac57829003601f168201915b505050505081525050905092915050565b8173ffffffffffffffffffffffffffffffffffffffff163373ffffffffffffffffffffffffffffffffffffffff161415612649576040517f08c379a000000000000000000000000000000000000000000000000000000000815260040161264090614667565b60405180910390fd5b6000600160008473ffffffffffffffffffffffffffffffffffffffff1673ffffffffffffffffffffffffffffffffffffffff1681526020019081526020016000208054905014156126cf576040517f08c379a00000000000000000000000000000000000000000000000000000000081526004016126c6906145fb565b60405180910390fd5b600160008373ffffffffffffffffffffffffffffffffffffffff1673ffffffffffffffffffffffffffffffffffffffff168152602001908152602001600020805490508110612753576040517f08c379a000000000000000000000000000000000000000000000000000000000815260040161274a90613a21565b60405180910390fd5b6000600160008473ffffffffffffffffffffffffffffffffffffffff1673ffffffffffffffffffffffffffffffffffffffff16815260200190815260200160002082815481106127a6576127a5613a41565b5b90600052602060002090600602016040518060c00160405290816000820180546127cf90613e3c565b80601f01602080910402602001604051908101604052809291908181526020018280546127fb90613e3c565b80156128485780601f1061281d57610100808354040283529160200191612848565b820191906000526020600020905b81548152906001019060200180831161282b57829003601f168201915b5050505050815260200160018201805461286190613e3c565b80601f016020809104026020016040519081016040528092919081815260200182805461288d90613e3c565b80156128da5780601f106128af576101008083540402835291602001916128da565b820191906000526020600020905b8154815290600101906020018083116128bd57829003601f168201915b50505050508152602001600282015481526020016003820154815260200160048201805461290790613e3c565b80601f016020809104026020016040519081016040528092919081815260200182805461293390613e3c565b80156129805780601f1061295557610100808354040283529160200191612980565b820191906000526020600020905b81548152906001019060200180831161296357829003601f168201915b5050505050815260200160058201805461299990613e3c565b80601f01602080910402602001604051908101604052809291908181526020018280546129c590613e3c565b8015612a125780601f106129e757610100808354040283529160200191612a12565b820191906000526020600020905b8154815290600101906020018083116129f557829003601f168201915b50505050508152505090508060400151348260600151612a329190613fe1565b10612a72576040517f08c379a0000000000000000000000000000000000000000000000000000000008152600401612a6990613ee0565b60405180910390fd5b80606001518160400151612a869190614687565b341115612ac8576040517f08c379a0000000000000000000000000000000000000000000000000000000008152600401612abf9061472d565b60405180910390fd5b60008373ffffffffffffffffffffffffffffffffffffffff1634604051612aee90613f31565b60006040518083038185875af1925050503d8060008114612b2b576040519150601f19603f3d011682016040523d82523d6000602084013e612b30565b606091505b5050905080612b74576040517f08c379a0000000000000000000000000000000000000000000000000000000008152600401612b6b90613f92565b60405180910390fd5b3482606001818151612b869190613fe1565b9150818152505081600160008673ffffffffffffffffffffffffffffffffffffffff1673ffffffffffffffffffffffffffffffffffffffff1681526020019081526020016000208481548110612bdf57612bde613a41565b5b90600052602060002090600602016000820151816000019080519060200190612c09929190613007565b506020820151816001019080519060200190612c26929190613007565b5060408201518160020155606082015181600301556080820151816004019080519060200190612c57929190613007565b5060a0820151816005019080519060200190612c74929190613007565b50905050600260009054906101000a900473ffffffffffffffffffffffffffffffffffffffff1673ffffffffffffffffffffffffffffffffffffffff166340c10f1933346040518363ffffffff1660e01b8152600401612cd5929190614037565b600060405180830381600087803b158015612cef57600080fd5b505af1158015612d03573d6000803e3d6000fd5b5050505050505050565b6060600160008373ffffffffffffffffffffffffffffffffffffffff1673ffffffffffffffffffffffffffffffffffffffff168152602001908152602001600020805480602002602001604051908101604052809291908181526020016000905b82821015612ffc57838290600052602060002090600602016040518060c0016040529081600082018054612da190613e3c565b80601f0160208091040260200160405190810160405280929190818152602001828054612dcd90613e3c565b8015612e1a5780601f10612def57610100808354040283529160200191612e1a565b820191906000526020600020905b815481529060010190602001808311612dfd57829003601f168201915b50505050508152602001600182018054612e3390613e3c565b80601f0160208091040260200160405190810160405280929190818152602001828054612e5f90613e3c565b8015612eac5780601f10612e8157610100808354040283529160200191612eac565b820191906000526020600020905b815481529060010190602001808311612e8f57829003601f168201915b505050505081526020016002820154815260200160038201548152602001600482018054612ed990613e3c565b80601f0160208091040260200160405190810160405280929190818152602001828054612f0590613e3c565b8015612f525780601f10612f2757610100808354040283529160200191612f52565b820191906000526020600020905b815481529060010190602001808311612f3557829003601f168201915b50505050508152602001600582018054612f6b90613e3c565b80601f0160208091040260200160405190810160405280929190818152602001828054612f9790613e3c565b8015612fe45780601f10612fb957610100808354040283529160200191612fe4565b820191906000526020600020905b815481529060010190602001808311612fc757829003601f168201915b50505050508152505081526020019060010190612d6e565b505050509050919050565b82805461301390613e3c565b90600052602060002090601f016020900481019282613035576000855561307c565b82601f1061304e57805160ff191683800117855561307c565b8280016001018555821561307c579182015b8281111561307b578251825591602001919060010190613060565b5b50905061308991906130c3565b5090565b6040518060c001604052806060815260200160608152602001600081526020016000815260200160608152602001606081525090565b5b808211156130dc5760008160009055506001016130c4565b5090565b600081519050919050565b600082825260208201905092915050565b6000819050602082019050919050565b7f4e487b7100000000000000000000000000000000000000000000000000000000600052602160045260246000fd5b6003811061314c5761314b61310c565b5b50565b600081905061315d8261313b565b919050565b600061316d8261314f565b9050919050565b61317d81613162565b82525050565b600073ffffffffffffffffffffffffffffffffffffffff82169050919050565b60006131ae82613183565b9050919050565b6131be816131a3565b82525050565b6000819050919050565b6131d7816131c4565b82525050565b60e0820160008201516131f36000850182613174565b50602082015161320660208501826131b5565b50604082015161321960408501826131ce565b50606082015161322c60608501826131b5565b50608082015161323f60808501826131ce565b5060a082015161325260a08501826131b5565b5060c082015161326560c08501826131ce565b50505050565b600061327783836131dd565b60e08301905092915050565b6000602082019050919050565b600061329b826130e0565b6132a581856130eb565b93506132b0836130fc565b8060005b838110156132e15781516132c8888261326b565b97506132d383613283565b9250506001810190506132b4565b5085935050505092915050565b600060208201905081810360008301526133088184613290565b905092915050565b6000604051905090565b600080fd5b600080fd5b61332d816131c4565b811461333857600080fd5b50565b60008135905061334a81613324565b92915050565b6000602082840312156133665761336561331a565b5b60006133748482850161333b565b91505092915050565b613386816131a3565b811461339157600080fd5b50565b6000813590506133a38161337d565b92915050565b600080600080600060a086880312156133c5576133c461331a565b5b60006133d388828901613394565b95505060206133e48882890161333b565b94505060406133f58882890161333b565b935050606061340688828901613394565b92505060806134178882890161333b565b9150509295509295909350565b61342d81613162565b82525050565b61343c816131a3565b82525050565b61344b816131c4565b82525050565b600060e082019050613466600083018a613424565b6134736020830189613433565b6134806040830188613442565b61348d6060830187613433565b61349a6080830186613442565b6134a760a0830185613433565b6134b460c0830184613442565b98975050505050505050565b600080fd5b600080fd5b600080fd5b60008083601f8401126134e5576134e46134c0565b5b8235905067ffffffffffffffff811115613502576135016134c5565b5b60208301915083600182028301111561351e5761351d6134ca565b5b9250929050565b600080600080600080600080600060a08a8c0312156135475761354661331a565b5b60008a013567ffffffffffffffff8111156135655761356461331f565b5b6135718c828d016134cf565b995099505060208a013567ffffffffffffffff8111156135945761359361331f565b5b6135a08c828d016134cf565b975097505060406135b38c828d0161333b565b95505060608a013567ffffffffffffffff8111156135d4576135d361331f565b5b6135e08c828d016134cf565b945094505060808a013567ffffffffffffffff8111156136035761360261331f565b5b61360f8c828d016134cf565b92509250509295985092959850929598565b600080604083850312156136385761363761331a565b5b600061364685828601613394565b92505060206136578582860161333b565b9150509250929050565b600081519050919050565b600082825260208201905092915050565b60005b8381101561369b578082015181840152602081019050613680565b838111156136aa576000848401525b50505050565b6000601f19601f8301169050919050565b60006136cc82613661565b6136d6818561366c565b93506136e681856020860161367d565b6136ef816136b0565b840191505092915050565b6000602082019050818103600083015261371481846136c1565b905092915050565b600082825260208201905092915050565b600061373882613661565b613742818561371c565b935061375281856020860161367d565b61375b816136b0565b840191505092915050565b600060c0830160008301518482036000860152613783828261372d565b9150506020830151848203602086015261379d828261372d565b91505060408301516137b260408601826131ce565b5060608301516137c560608601826131ce565b50608083015184820360808601526137dd828261372d565b91505060a083015184820360a08601526137f7828261372d565b9150508091505092915050565b6000602082019050818103600083015261381e8184613766565b905092915050565b60006020828403121561383c5761383b61331a565b5b600061384a84828501613394565b91505092915050565b600081519050919050565b600082825260208201905092915050565b6000819050602082019050919050565b600060c083016000830151848203600086015261389c828261372d565b915050602083015184820360208601526138b6828261372d565b91505060408301516138cb60408601826131ce565b5060608301516138de60608601826131ce565b50608083015184820360808601526138f6828261372d565b91505060a083015184820360a0860152613910828261372d565b9150508091505092915050565b6000613929838361387f565b905092915050565b6000602082019050919050565b600061394982613853565b613953818561385e565b9350836020820285016139658561386f565b8060005b858110156139a15784840389528151613982858261391d565b945061398d83613931565b925060208a01995050600181019050613969565b50829750879550505050505092915050565b600060208201905081810360008301526139cd818461393e565b905092915050565b7f496e646578206f7574206f6620626f756e647300000000000000000000000000600082015250565b6000613a0b60138361366c565b9150613a16826139d5565b602082019050919050565b60006020820190508181036000830152613a3a816139fe565b9050919050565b7f4e487b7100000000000000000000000000000000000000000000000000000000600052603260045260246000fd5b7f596f7520617265206e6f74207468652070726576696f7573206f776e6572206f60008201527f6620746869732067696674000000000000000000000000000000000000000000602082015250565b6000613acc602b8361366c565b9150613ad782613a70565b604082019050919050565b60006020820190508181036000830152613afb81613abf565b9050919050565b7f4e465420697320616c726561647920736f6c64206f722077697468647261776e60008201527f2e00000000000000000000000000000000000000000000000000000000000000602082015250565b6000613b5e60218361366c565b9150613b6982613b02565b604082019050919050565b60006020820190508181036000830152613b8d81613b51565b9050919050565b6000606082019050613ba96000830186613433565b613bb66020830185613433565b613bc36040830184613442565b949350505050565b7f4e465420646f65736e2774206578697374732100000000000000000000000000600082015250565b6000613c0160138361366c565b9150613c0c82613bcb565b602082019050919050565b60006020820190508181036000830152613c3081613bf4565b9050919050565b7f596f752077657265206e6f7420746865206f776e6572206f662074686973206e60008201527f6674000000000000000000000000000000000000000000000000000000000000602082015250565b6000613c9360228361366c565b9150613c9e82613c37565b604082019050919050565b60006020820190508181036000830152613cc281613c86565b9050919050565b7f4e465420697320616c726561647920646f6e6174656400000000000000000000600082015250565b6000613cff60168361366c565b9150613d0a82613cc9565b602082019050919050565b60006020820190508181036000830152613d2e81613cf2565b9050919050565b7f4e4654206973206e6f74206c6973746564000000000000000000000000000000600082015250565b6000613d6b60118361366c565b9150613d7682613d35565b602082019050919050565b60006020820190508181036000830152613d9a81613d5e565b9050919050565b7f4769667420697320746f6f20657870656e736976650000000000000000000000600082015250565b6000613dd760158361366c565b9150613de282613da1565b602082019050919050565b60006020820190508181036000830152613e0681613dca565b9050919050565b7f4e487b7100000000000000000000000000000000000000000000000000000000600052602260045260246000fd5b60006002820490506001821680613e5457607f821691505b60208210811415613e6857613e67613e0d565b5b50919050565b7f43616d706169676e20697320616c72656164792072656163686564206974277360008201527f2074617267657420616d6f756e742e0000000000000000000000000000000000602082015250565b6000613eca602f8361366c565b9150613ed582613e6e565b604082019050919050565b60006020820190508181036000830152613ef981613ebd565b9050919050565b600081905092915050565b50565b6000613f1b600083613f00565b9150613f2682613f0b565b600082019050919050565b6000613f3c82613f0e565b9150819050919050565b7f4661696c656420746f207472616e73666572206769667420616d6f756e740000600082015250565b6000613f7c601e8361366c565b9150613f8782613f46565b602082019050919050565b60006020820190508181036000830152613fab81613f6f565b9050919050565b7f4e487b7100000000000000000000000000000000000000000000000000000000600052601160045260246000fd5b6000613fec826131c4565b9150613ff7836131c4565b9250827fffffffffffffffffffffffffffffffffffffffffffffffffffffffffffffffff0382111561402c5761402b613fb2565b5b828201905092915050565b600060408201905061404c6000830185613433565b6140596020830184613442565b9392505050565b7f4e487b7100000000000000000000000000000000000000000000000000000000600052601260045260246000fd5b600061409a826131c4565b91506140a5836131c4565b9250826140b5576140b4614060565b5b828204905092915050565b7f43616d706169676e20646f6573206e6f74206578697374732e00000000000000600082015250565b60006140f660198361366c565b9150614101826140c0565b602082019050919050565b60006020820190508181036000830152614125816140e9565b9050919050565b60006020820190506141416000830184613442565b92915050565b6000815190506141568161337d565b92915050565b6000602082840312156141725761417161331a565b5b600061418084828501614147565b91505092915050565b7f596f7520617265206e6f7420746865206f776e6572206f66207468697320746f60008201527f6b656e0000000000000000000000000000000000000000000000000000000000602082015250565b60006141e560238361366c565b91506141f082614189565b604082019050919050565b60006020820190508181036000830152614214816141d8565b9050919050565b7f506c6561736520617070726f76652074686520636f6e747261637420746f206160008201527f636365737320796f7572204e4654206265666f726520646f6e6174696e670000602082015250565b6000614277603e8361366c565b91506142828261421b565b604082019050919050565b600060208201905081810360008301526142a68161426a565b9050919050565b7f54617267657420616d6f756e742073686f756c6420626520677265617465722060008201527f7468616e20300000000000000000000000000000000000000000000000000000602082015250565b600061430960268361366c565b9150614314826142ad565b604082019050919050565b60006020820190508181036000830152614338816142fc565b9050919050565b82818337600083830152505050565b600061435a838561366c565b935061436783858461433f565b614370836136b0565b840190509392505050565b6000819050919050565b6000819050919050565b60006143aa6143a56143a08461437b565b614385565b6131c4565b9050919050565b6143ba8161438f565b82525050565b600060c08201905081810360008301526143db818c8e61434e565b905081810360208301526143f0818a8c61434e565b90506143ff6040830189613442565b61440c60608301886143b1565b818103608083015261441f81868861434e565b905081810360a083015261443481848661434e565b90509b9a5050505050505050505050565b600080fd5b7f4e487b7100000000000000000000000000000000000000000000000000000000600052604160045260246000fd5b614482826136b0565b810181811067ffffffffffffffff821117156144a1576144a061444a565b5b80604052505050565b60006144b4613310565b90506144c08282614479565b919050565b600067ffffffffffffffff8211156144e0576144df61444a565b5b6144e9826136b0565b9050602081019050919050565b6000614509614504846144c5565b6144aa565b90508281526020810184848401111561452557614524614445565b5b61453084828561367d565b509392505050565b600082601f83011261454d5761454c6134c0565b5b815161455d8482602086016144f6565b91505092915050565b60006020828403121561457c5761457b61331a565b5b600082015167ffffffffffffffff81111561459a5761459961331f565b5b6145a684828501614538565b91505092915050565b7f4e6f2063616d706169676e7320666f756e640000000000000000000000000000600082015250565b60006145e560128361366c565b91506145f0826145af565b602082019050919050565b60006020820190508181036000830152614614816145d8565b9050919050565b7f596f752063616e6e6f74206769667420746f20796f757273656c660000000000600082015250565b6000614651601b8361366c565b915061465c8261461b565b602082019050919050565b6000602082019050818103600083015261468081614644565b9050919050565b6000614692826131c4565b915061469d836131c4565b9250828210156146b0576146af613fb2565b5b828203905092915050565b7f446f6e6174696f6e206973206c6172676572207468616e207468652072656d6160008201527f696e696e672074617267657420616d6f756e742e000000000000000000000000602082015250565b600061471760348361366c565b9150614722826146bb565b604082019050919050565b600060208201905081810360008301526147468161470a565b905091905056fea264697066735822122072d721d941bee34d1b8b173d973c4823326b20cefd381a21cad784f78c00724364736f6c634300080b0033",
  "linkReferences": {},
  "deployedLinkReferences": {}
}